:1000000000080020310D00002D0D00002D0D000016
:100010002D0D00002D0D00002D0D00002D0D0000F8
:100020002D0D00002D0D00002D0D00002D0D0000E8
:100030002D0D00002D0D00002D0D00002D0D0000D8
:100040002D0D0000094402002D0D00002D0D0000B3
:10005000CD3E020075440200154402002D4402000A
:100060000D440200A9120000691300002D0D0000CC
:1000700095080000210900002D0D00002D0D000045
:100080002D0D00002D0D0000AD1300002D0D000002
:100090002D0D00002D0D00002D0D00002D0D000078
:1000A0002D0D00002D0D00002D0D00002D0D000068
:1000B0007944020011440200692502002D0D000060
:1000C000B94402002D0D00001DF701002D0D0000A8
:1000D0002D0D00002D0D00002D0D00002D0D000038
:1000E0002D0D00002D0D00002D0D00002D0D000028
:1000F0002D0D00002D0D00002D0D000013B779FA15
:10010000C925DDB7ADF3CFE0F1B614B801010000A9
:1001100000000000000000002000000001000000BE
:1001200000000000000000000000000000000000CF
:10013000000000000000000000000000800100003E
:100140000D0000000B000000740200000000000021
:10015000700200000400000078010000740100003B
:10016000000000007001000000000000FFFFFFFF22
:1001700000000000000000000300060008000B0063
:1001800000000108FFFF00001C020000020001083F
:10019000FFFF00002002000007000008FFFF000131
:1001A000280200000A000708FFFF00030200000009
:1001B00002000108FFFF00003002000008000108F3
:1001C000FFFF00013802000002000108FFFF0000ED
:1001D0004002000009000308FFFF00014802000080
:1001E00000000108FFFF00005002000002000108AB
:1001F000FFFF00005402000004000308FFFF00019D
:100200005C02000002000108FFFF00006402000021
:1002100005000108FFFF00006C0200000200011849
:100220000500200300052A00200004001C15002002
:1002300005000206002A2B000201100020150020F4
:1002400005000A0800292B000A02010030150020D1
:100250000200001805000A0B00002A000A030A0029
:10026000000800200500020D00012A000200000322
:10027000000000000028012803280018002A012A95
:100280000118052A2A2B292B0229000010B5054C3C
:10029000237833B9044B13B10448AFF30080012332
:1002A000237010BD0015002000000000E47402005F
:1002B00008B5034B1BB103490348AFF3008008BDE9
:1002C0000000000004150020E4740200154B002B10
:1002D00008BF134B9D46A3F5803A00218B460F467D
:1002E0001348144A121A24F022FB0F4B002B00D0A3
:1002F00098470E4B002B00D09847002000210400A7
:100300000D000D48002802D00C48AFF3008024F007
:10031000A7FA2000290000F0BFF824F08DFA00BFF2
:10032000000008000008002000000000000000009D
:1003300000150020944D0020000000000000000087
:10034000704700BF08B50121044802F02BFB0121D2
:100350000348BDE8084002F025BB00BF003204009E
:1003600000350A00F0B5414E414D96E80F000124DA
:100370006C642F688DB003AC47F480772F6084E8FD
:100380000F0006F11005204603F030FC0FCD07AC3E
:100390000FC4384B2A685B6822801B035BBF364B57
:1003A0001B884FF4AD73C3F3080307A8ADF82230E0
:1003B00002F044FF314800F015FD012211460220F1
:1003C00002F0E6FC0421112002F072FD0022114629
:1003D000032002F0DDFC0121294802F0E3FA0CAD14
:1003E000736A0293202305F8283D284602F064FF33
:1003F0004FF4004000F030FD0221224802F058FD89
:100400000221214802F054FD0221204802F050FD53
:100410001F4B93E8070007AB03C30024012107A883
:100420001A708DF81C108DF81D408DF81E408DF847
:100430001F408DF820408DF8224003F025FE0CA8C7
:1004400000F82C4D03F042FA022328468DF80930BB
:100450008DF8084003F044FA0E4A136823F4E06371
:1004600043F4007313600DB0F0BD00BF184B0200E1
:1004700000000E40B081E00FB881E00F00F04902AB
:1004800000250A0002001E000300200005002400D1
:10049000404B020000500E402DE9F84FFFF762FF7D
:1004A000FFF750FF00F050FAFFF74AFF324804F020
:1004B0009DF998B916F054FA16F09AFA16F05CFA0B
:1004C00016F0A2FA16F064FA16F06EFA16F030FA88
:1004D00016F076FA16F038FA16F07EFADFF8A4B0C5
:1004E000DFF8A4A0254F264EDFF8A090DFF8A0800B
:1004F00000F05AF902E000F07FF950BB04F028F94F
:10050000044630B300F08CFA05460028F3D1236886
:100510003B40B3422CD043454FF003024FF0200440
:100520004846E8D1DBF800108A70CA700C704D7034
:10053000043104F046FB2A46294640F2851016F0A5
:10054000DDF9DAF8000000F053F800F055F9002862
:10055000D4D000F0EFF800F04FF90028C8D102F035
:10056000CDFE04F012F904F0E4F802F0C9FEBFE792
:10057000201D00F035FBBEE74C4B0200F800FFFFEA
:10058000A0000300BC190020C019002020000303B4
:10059000A0000C0030B40B4B0B4C0C4D1860042227
:1005A00000230120287119462A8004F10C006B8079
:1005B0004FF4BD6223806380A380E380238130BC3D
:1005C00024F0B5B9341500207C0900200C08002067
:1005D00038B5064C0D460A460146601D24F083F9E5
:1005E000ADB2002365802371238038BD0C08002044
:1005F0002DE9F8430546002853D0414CD0F800902F
:10060000B4F80A8002F086FEA8F10C0823891FFACC
:1006100088F89845074646D94FEA092606F4E06669
:10062000C9F3072946EA090604361E2E40D9238954
:10063000A8EB0308C8EB0818B6EB480F33D820889E
:100640001E2E00EBC000B04604EB800028BF4FF028
:100650001E0829464246103024F045F9238803EB52
:10066000C30304EB8303B6EB0806C3F80C802288AF
:10067000638902F1010292FBF3F101FB13239BB2A8
:100680002380E38803F101039BB2E380238903F114
:1006900001039BB245442381D1D1384602F03EFE8E
:1006A0000120BDE8F88302F039FE0020BDE8F883A0
:1006B000208800EBC00004EB800029463246103051
:1006C00024F011F9238803EBC30304EB83033846BA
:1006D000DE6022886389013292FBF3F101FB132370
:1006E0009BB22380E38801339BB2E38023890133EB
:1006F0009BB2238102F012FE0120BDE8F88300BF07
:100700007C09002010B502F005FE094A9188538942
:10071000013191FBF3F404FB13139BB29380138913
:10072000013B9BB21381BDE8104002F0F7BD00BF52
:100730007C09002070B51A4DEB889BB2002B2ED09F
:10074000184E22E06C88A4B204EBC404A40002F0AA
:10075000E5FD2B191034D9683368C9B228199847B8
:10076000E8B902F0D7FD6A886B89013292FBF3F198
:1007700001FB13239BB26B80EB88013B9BB2EB80A8
:1007800002F0CCFDEB889BB24BB102F0C3FDEC88CC
:10079000A4B2002CD6D102F0C1FD2368FFDE70BDEB
:1007A0007C0900203415002010B5114C2379ABB919
:1007B00023889BB293B9D4F805000E4A20F47F43F6
:1007C00023F0070393420DD004F1090104F0F9F975
:1007D000012104220023217122806380BDE81040A2
:1007E000FFF7A8BF04F1090000F04AF9F0E700BFE5
:1007F0000C0800202000FF00054B1A792AB9188840
:1008000080B2B0FA80F0400970470020704700BF06
:100810000C080020704700BF10B4044C044B0A467B
:10082000014620685DF8044B02F014B8700F0020F8
:100830003508000019461046FFF764BF38B5104C64
:10084000022003F0C5FF20680368DA6E22F4E0227C
:10085000DA66DA6E4FF4004542F48022DA6602214D
:100860009D6401F041F9074B206807494FF4B472C9
:1008700001F0B8FF054A064B12681A6038BD00BF88
:10088000700F0020150800003C150020A81600205D
:10089000A41600201E4B186803681A6C120435D584
:1008A00030B54FF400421B4C9A64236885B033B9CD
:1008B000042003F08DFFFFF7C1FF05B030BD2568B0
:1008C00004AB002143F8041D01910291013D02AAED
:1008D00001A9256001F0ACF901980028EDD002993A
:1008E0000329EAD90C4B0D4C1A68130203F4E06398
:1008F000C2F3072213430433236023689942DCD3F5
:100900002168FFF765FEFFF799FFD6E7704700BF44
:10091000700F0020A41600203C1500203815002080
:1009200010B5084C23681B681B6C9B0400D410BDD9
:10093000022003F04DFF23681B684FF400529A64B5
:1009400010BD00BF700F0020F0B58BB0264E274BB6
:1009500001932749274A079100234FF4E13401A965
:100960000294ADF80C304FF48054ADF810308DF88F
:1009700012308DF813308DF814303068089241F63B
:100980001E63ADF80E40ADF8243001F065FA029B0D
:10099000194D1A481A4F9B092B60FFF7FBFD1949A7
:1009A0000C2002F00BFD18490D2002F007FD174B3B
:1009B0003068C3F880414FF40052C3F880211C60B6
:1009C0001A6002681249D7669164D46C114B1249BF
:1009D00044F42044D4644FF4B47201F003FF0F4B8D
:1009E0002A681A600BB0F0BD700F002000000140B3
:1009F000740F0020F40F0020A81600201908000032
:100A000030002401950800002109000000E100E009
:100A1000FFFF0100150800003C150020A41600206F
:100A20000368164A23F47F4323F0070393420CD153
:100A300010B54368044613F0010016D15A0706D4D6
:100A400013F0020F18BF012010BD002070470022D4
:100A5000114640F2951015F0F5FE636813F0020F91
:100A60004FF0010018BF012010BD15F0E3FE6368D0
:100A70005A074FF00100E3D5E9E700BFA0000103EA
:100A80002DE9F04FDFF84481D8F800100546032423
:100A9000202700260F704E708C70CC7083B004310C
:100AA000444804F08EF82B78082B03D16B780BB1F7
:100AB000AA7862B9002211464FF4C07015F01EFFEB
:100AC0003D4B186803B0BDE8F04FFFF791BD95F8B6
:100AD000039095F804A095F805E0A87995F807B07B
:100AE000D8F800102D7ADFF8E8C0019505258CF8BC
:100AF00005904D704FF0100916258CF804A08CF865
:100B000003E0CD70DFF8CCE081F8059081F8079024
:100B10004FF00105DFF8C090DFF8C0A08CF80200AC
:100B20008E710E720F708C700D7124489DF80450F8
:100B30008CF8005004318AF800208CF801B0AEF82F
:100B4000006089F8003004F03CF8D8F800101C4828
:100B50004E714FF0010517234FF0020A0D710F700F
:100B60008C70CB7081F801A0043104F02AF8D8F819
:100B70000010144881F801A018230D714D710F70F9
:100B80008C70CB70043104F01CF899F80030D8F860
:100B900000100D480E72DB0306240C224B604D72D0
:100BA0000F70CE704C708A70043103B0BDE8F04F06
:100BB00004F007B820000303C01900202005031625
:100BC000200203172002031820060C00BC19002085
:100BD000AC160020B4170020B7170020B61700206D
:100BE0004A4B81781A78914200D07047C1785A7880
:100BF0009142FAD101799A789142F6D14179DA7825
:100C00009142F2D181791A799142EED15B79C27920
:100C10009A42EAD12DE9F0433D4D3E4E2B883E4CA1
:100C200001783278E15401339BB29A4283B02B8031
:100C300002D903B0BDE8F083DFF8EC903748D9F86B
:100C4000001001274F72062200270C234FF02008C6
:100C50004A708B700F714F718F71CF710F72CF709F
:100C600081F80080043103F0ACFFD9F800102C4863
:100C700081F8008003238B70CB704F70043103F038
:100C8000A0FF3378012B2DD0B5F800C0BCF1000FC8
:100C90002CD00CF1FF366EB100231A46511CA05621
:100CA00065560133A8429BB2C4BFA5546054B342F9
:100CB0001A46F3DB0137BBB29C45ECD81CF0010FA0
:100CC00016D04FEA5C0C14F80C308DF807300DF19B
:100CD00007020121002015F011FE124B1868FFF7E2
:100CE00087FCA6E723788DF80730F0E74FF0FF3652
:100CF0004FEA5C0C022214F90C1096FBF2F6A35793
:100D00000B4493FBF2F38DF80730E0E7AC160020BC
:100D1000B4170020B6170020B416002020060C00DF
:100D200020000303C0190020BC190020FEE700BF0B
:100D300008B500F075F8064B0648834206D2064A0D
:100D400052F8041B43F8041B9842F9D8FFF7BEFA87
:100D50000008002034140020F0740200004870479E
:100D600000F049020F4BD3F8943003F00703032B34
:100D700014D0042B0FD0022B0AD00B4B1868094B50
:100D8000D3F80031C3F304230133B0FBF3F0704711
:100D9000064B1868F3E7064B1868F0E74FF400407D
:100DA000EDE700BF00400E407C10002078100020CE
:100DB0008010002008B5FFF7D5FF054B054AD3F892
:100DC0000831C3F308230133B0FBF3F0106008BD12
:100DD00000400E4074100020014B1868704700BF9F
:100DE0007810002008B50B4B0B4A1860D2F89430ED
:100DF00003F00703022B00D008BDFFF7B3FFD2F8C2
:100E00000831064AC3F308230133B0FBF3F0106046
:100E100008BD00BF7810002000400E407410002074
:100E2000044B054A9A60D3F8882042F47002C3F854
:100E30008820704700ED00E0000000004FF4004003
:100E4000704700BF4FF47A70704700BF014B1868BD
:100E5000704700BF8010002008B50B4B0B4A18608C
:100E6000D2F8943003F00703042B00D008BDFFF73D
:100E700079FFD2F80831064AC3F308230133B0FBE7
:100E8000F3F0106008BD00BF8010002000400E404D
:100E9000741000202DE9F04F594C85B025789DF84D
:100EA00044A09DF84CE0002D66D0072A14465FD878
:100EB0000E9A002A5CD00F9A002A59D0129AB2F5E5
:100EC000006F55DC012806460F464ED0DFF84491EE
:100ED0004FEA041809EB0802127B002A50D0494A55
:100EE00000216501CDE90111039102EB050C002FF2
:100EF00048D157519CF802009CF80310CCF80470BC
:100F000040F0100041F03001CCE902778CF802008B
:100F10008CF80310BAF1000F65D00093129B515B5F
:100F2000013B63F30E11515315440E99EB78A96000
:100F30006EF383030F996960012EEB703CD0149B14
:100F4000002B56D009EB08032046149C49F80840B2
:100F5000159D5D600024624669465E739C6002F0E8
:100F6000B1FF204605B0BDE8F08F109A002AADD140
:100F7000254805B0BDE8F08F244805B0BDE8F08FE6
:100F80002348F6E751519CF802B09CF80300CCF8D6
:100F900004104BF0100B40F00300CCE902118CF868
:100FA00002B08CF80300BAF1000FB6D1C1B241F023
:100FB00030018CF80310B0E71323EB6095E80F00C5
:100FC00005F1100E8EE80F00EA69109B6B616FF05F
:100FD000030161F39F02012FEA61B3D10F9BAB6163
:100FE000109B6B60AEE7C9B241F003018CF80310AF
:100FF00093E7AB78149A62F30413AB70A2E700BFD7
:101000003819002038180020018000F0028000F01C
:10101000078000F0B817002038B5114B1B7883B15A
:1010200088B1054602F076F90E4900220B461C7B7A
:10103000103354B10132082AF9D102F06FF90A488D
:1010400038BD0A4838BD0A4838BD13012A60CA189D
:101050000125CC50157302F061F9204638BD00BF60
:1010600038190020B8170020048000F0028000F03A
:10107000018000F010B5174A82B000231268019277
:101080008DF8043002F046F9134B1C78E4B90122C4
:101090001A7002F043F9114B04220DEB02001C738D
:1010A0001C7783F82C4083F83C4083F84C4083F84D
:1010B0005C4083F86C4083F87C408DF8072002F098
:1010C000D5FE204602B010BD02F028F9044802B057
:1010D00010BD00BF904B020038190020B817002047
:1010E000038000F0F0B589B09DF838500F9C9DF852
:1010F0004070119E03950494129D01930024009268
:101100000B460246CDE90576079502942146204616
:10111000FFF7C0FE09B0F0BDF0B589B09DF83850BA
:101120000F9C9DF84070119E03950494129D0193AD
:10113000002400920B460246CDE9057607950294FD
:1011400020460121FFF7A6FE09B0F0BD08B50A4B05
:101150001A786AB1072809D8084A02EB00131B7BEA
:1011600043B1002102F078FE002008BD044808BD0C
:10117000044808BD044808BD38190020B8170020ED
:10118000018000F0028000F0078000F008B50A4BF3
:101190001A786AB1072809D8084A02EB00131B7BAA
:1011A00043B1012102F058FE002008BD044808BDEB
:1011B000044808BD044808BD38190020B8170020AD
:1011C000018000F0028000F0078000F008B50A4BB3
:1011D0001A7862B1072808D8084A02EB00131B7B73
:1011E0003BB102F0BFFE002008BD054808BD054820
:1011F00008BD054808BD00BF38190020B8170020F9
:10120000018000F0028000F0078000F00D4B1B7899
:10121000A3B1072810D879B10B4B03EB00131B7B4C
:1012200073B10A4B01221B6A02FA00F018401ABF80
:1012300000200A70087070470548704705487047DD
:101240000548704738190020B817002000200E40CC
:10125000018000F0028000F0078000F00D4B1A784A
:1012600092B107280DD861B10B4A02EB00131B7B2A
:101270006BB110B50C4602F08BFE002320601846BF
:1012800010BD064B18467047054B18467047054B76
:101290001846704738190020B8170020018000F068
:1012A000028000F0078000F02DE9F8431D4E326EF9
:1012B000F36E12EA030834D41B4CDFF87090012758
:1012C000002506E00135082D4FEA470704F1100418
:1012D00025D018EA070F2846F4D02368B766002BFC
:1012E000F0D0D4E901210131A1609847637B012B43
:1012F000E8D109EB451303F1080218330028E1D1C6
:10130000117960F3410111711A79013560F34102DD
:10131000082D1A714FEA470704F11004D9D1BDE82E
:10132000F883FEE700200E40B81700203818002090
:10133000054B4FF480214FF48062C3F8801119608F
:10134000C3F880211A60704700E100E038B5044618
:101350000D4601F0DFFF034B43F82450BDE8384051
:1013600001F0DCBF3C1900200E4B70B5D3F82844C7
:10137000D3F81C1445F255520C401440C3F82444D1
:101380007CB1094E012594FAA4F0B0FA80F005FA78
:1013900000F256F8203024EA020403B19847002CEA
:1013A000F1D170BD00A000403C1900200E4B70B57B
:1013B000D3F82844D3F81C144AF6AA220C4014404F
:1013C000C3F824447CB1094E012594FAA4F0B0FA84
:1013D00080F005FA00F256F8203024EA020403B146
:1013E0009847002CF1D170BD00A000403C190020AE
:1013F00008B5034B1B6803B19847012008BD00BF27
:101400008019002038B5124D2B6804460BB198475F
:1014100068B1631E032B05D8DFE803F00A1115023B
:1014200002F0D8F96B6820460BB19847204638BDCA
:10143000084A136923F00403136130BFF2E7002068
:1014400002F066F9EEE7002002F088F9EAE700BF53
:101450008419002000ED00E00B4A0C4B70B51060C1
:101460000B4C0C4D00221A80C4E9005102F0DCFD47
:10147000C30300D470BD02F0D1FD6368002BF9D026
:101480000420BDE870401847801900207C19002016
:1014900084190020F11300002DE9F041184D01F0EE
:1014A00031FF2B78804613B902F090F92B78154F55
:1014B000002483B96B78002B14BF02200320FFF7B0
:1014C000A1FFBB6806460BB198470446E30704D565
:1014D0002B78002BEED00120F1E7B31EDBB2012BFD
:1014E00005D9404601F012FF3046BDE8F08102F018
:1014F0006FF9404601F00AFF3046BDE8F08100BFB9
:101500007C190020841900200238C3B2012B03D8B3
:10151000024A135C01331354704700BF7C1900204A
:101520000238C3B2012B00D97047034A135C002B69
:10153000FAD0013B135470477C190020054B1A78F0
:101540002AB95B78002B0CBF0320022070470120D2
:10155000704700BF7C19002038B504460D4601F0E5
:10156000D9FEA3889BB253B1638803EB830304EBDA
:10157000830408342C6001F0D1FE002038BD2B60BC
:1015800001F0CCFE004838BD0B7000F070B5044689
:101590000E4601F0BFFEA3889BB2BBB16388628890
:1015A000E58803EB830304EB8303013208333360E4
:1015B00092FBF5F305FB13239BB26380A388013BE9
:1015C0009BB2A38001F0AAFE002070BD336001F041
:1015D000A5FE014870BD00BF0B7000F030B5044699
:1015E0000D4683B0C07DE17EE5B10123042202F007
:1015F000E9FB01230222217F207E02F0E3FB94F825
:101600003130022B36D0032B1CD1617F607E00234A
:10161000012202F0D7FB00230422A17FA07E02F06A
:10162000D1FB0FE02B462A4602F0CCFB2B462A4684
:10163000217F207E02F0C6FB94F83130022B04D0CB
:10164000032B2CD0002003B030BD2B462A46617FEF
:10165000607E02F0B7FB2B462A46A17FA07E02F0F7
:10166000B1FB627F607E019501231146009302F079
:1016700055FBE7E7617F607E0023012202F0A2FBB9
:10168000A17FA07E0023042202F09CFB627F607E8B
:1016900001231146CDE9003302F040FBD2E72B468F
:1016A0002A46617F607E02F08DFB2B462A46A17F91
:1016B000A07E02F087FBC5E790F83230012280F867
:1016C0002C202BB1012B03D0002380F82C30704745
:1016D00003680A6830B50D4687B0044601696D6835
:1016E00080680494054C01950394002501241C3363
:1016F00002950094FFF710FD07B030BD6D1D00008E
:1017000090F83230012280F82D20ABB902683432D3
:1017100030B50D4687B004460B686D68C1684068F7
:1017200004940A4C01950394002501240295009429
:10173000FFF7D8FC07B030BD012B03D0002380F8A1
:101740002D30704702682832E2E700BF51170000D1
:10175000F0B583B0906A01A91446FFF7FDFE154B62
:1017600098421BD0019B00251D619D6001F0D2FDB8
:10177000019AD668074626B12946D2E900232046B9
:10178000B04701A9A06AFFF701FFA06A83889BB256
:101790003BB984F82D30384601F0C0FD012003B07C
:1017A000F0BD01A9FFF7D8FE20460199FFF7A8FF79
:1017B000F1E700BF0B7000F0427E054B417F02EB6A
:1017C0004202D20113440B449B001868C0B2704718
:1017D000E000851010B51D4B82B003F1100153F8E5
:1017E000044B627F824203D08B42F8D102B010BD1D
:1017F00094F83130022BF9D12046FFF7DDFF637DED
:101800002075022BF2D194F82E3003F0FF02002B4A
:10181000ECD102A9606801F8012DFFF7F7FC237DE8
:1018200063B194F82F304BB90028DFD19DF8073011
:10183000002BDBD06068FFF789FCD7E7002384F832
:101840002F306068FFF7A2FCD0E700BF901900209E
:1018500090F8323053B902680123D3601369D80776
:10186000FCD5536F43F0010353677047012B00D041
:10187000704703685A6C9107FCD401225A609A6839
:10188000D207FCD55A6D42F001025A65704700BF7D
:1018900090F832306BB1012B00D070470268536C66
:1018A0009B07FCD4536D022123F001035365516063
:1018B000704703685A6F022122F001025A67D9600B
:1018C000704700BF10B50446FFF7D4FB201D002170
:1018D000FFF7A2FB30B9014604F10800FFF79CFBBB
:1018E00000B910BD004810BD0E7000F003689B6881
:1018F00003F00200DA0748BF40F00100590748BF73
:1019000040F008001A0748BF40F02000D90648BF41
:1019100040F040009A0648BF40F080005B0648BF98
:1019200040F40050704700BFF8B5044609200D464A
:10193000164601F0F5FC0746A26A03E094F82E3043
:1019400023B977BB93889BB2002BF7D194F8323040
:1019500003BB2068076917F002074DD10423C36059
:1019600003699907FCD5436F012243F002034367E3
:1019700084F830203EB12E4415F8011B02F06AFCB9
:10198000B5422068F8D103699906FCD5002F37D0FD
:101990000020F8BD012B07D0012384F8303000204F
:1019A000F8BDFFF781FCC7E72068876817F00207DA
:1019B00018BF84F830300FD03EB12E4415F8011B0B
:1019C00002F006FBB5422068F8D183681A07DDD41F
:1019D00083681A07F9D5D9E7436C9A07FCD4042326
:1019E000436083689B07FCD5436D012243F00203EB
:1019F000436584F83020DFE7012384F83030B9E70D
:101A000094F8323063B1012BC2D12268536C9B072A
:101A1000FCD4536D082123F0020353655160B7E7EE
:101A200023685A6F082122F002025A670020D96009
:101A3000F8BD00BF10B590F82E30012B044607D03A
:101A400094F82E30013BDBB284F82E30002010BD1C
:101A500090F83130022B03D06068FFF797FBEFE777
:101A6000FFF7AAFE0028F7D0EAE700BFF8B5044662
:101A700017460D4601F04EFCA388E2889A422BD906
:101A8000268884460FCD06EB8606B600083604EBA2
:101A9000060EA051CEF80410CEF80820CEF80C3077
:101AA0002868CEF8100023882288E088511C03EBB8
:101AB000830391FBF0F204EB830300FB121292B25A
:101AC00008333B602280A38801339BB26046A38029
:101AD00001F024FC0020F8BD00233B6001F01EFC57
:101AE0000048F8BD0A7000F0002849D02DE9F04107
:101AF00082B00D46044601F00DFC012D074619D0B9
:101B0000022D3FD1636A9B889BB2002B46D0A06810
:101B1000FFF75CFB0023606A84F82C3083889BB25B
:101B2000002B61D194F83130032B1CD02046FFF7F5
:101B3000AFFE18E0A36A9B889BB2002B2ED0606892
:101B4000FFF744FB0023A06A84F82D3083889BB202
:101B500053BB94F832306BB9236818698304F8D505
:101B6000023D012DD3D9384601F0D8FB002002B048
:101B7000BDE8F081012BEED12046FFF7B7FEEDE77F
:101B800028487047032DEBD1A36A9B889BB2002B9A
:101B9000D5D1636A9B889BB2002BD0D101F0BEFBEC
:101BA000214802B0BDE8F08101A9FFF7D5FC0199F9
:101BB00060680831FFF752FB1C4B019A984613618D
:101BC00004E0FFF7E3FC019BDE683EB9A36A184618
:101BD0009B889BB201A9002BF3D1BAE79B68002236
:101BE00041462046B047F1E76946FFF7B5FC00994A
:101BF000A0680E4E0831FFF731FB009B1E61636A3F
:101C000018469B889BB26946002B8BD0FFF7BEFC21
:101C1000009BDD68002DF2D09B68002231462046F3
:101C2000A847ECE7027000F0087000F0097000F0BF
:101C30002DE9F0410546406A848882B00026A4B2AE
:101C40000096019617460E46984694B90021C8F8AA
:101C500000103960316095F832302BB1012B1ED065
:101C6000002002B0BDE8F0812B68186902B0BDE821
:101C7000F0816946FFF770FC01A90446A868FFF7E8
:101C8000EDFA009A002AE1D0002CDFD1D2E900233E
:101C900001995B1A3B60C8F800103260DBE7284608
:101CA000FFF724FE02B0BDE8F08100BF98B110B587
:101CB00090F82E30044633B990F83130022B0CD016
:101CC0006068FFF743FA94F82E300133DBB284F8F2
:101CD0002E30002010BD03487047FFF76DFD00282F
:101CE000EED0F0E7027000F070B590F83150022DA0
:101CF00082B003461AD0012D02D0002002B070BD80
:101D0000037D044602AE63B3132306F8013DFFF7DB
:101D1000CDFF2A4631462046FFF706FE94F82E30C6
:101D2000002BEAD02046FFF785FEE6E7827E857F1E
:101D30000D49447D02EB4202120101201144A840EA
:101D40004CB1012C01D01B7D2BB101F1C0610860A9
:101D5000002002B070BD01F180610860002002B077
:101D600070BD1123D1E700BF0CA0004070B582B058
:101D7000506A01A91446FFF7EFFB344B984235D067
:101D800094F83220019B002A33D12068016C11F4B1
:101D9000007106D09A602E4919614FF40072826476
:101DA00005E0026CD50541D400221A619A6001F069
:101DB000B1FA0199CD68064635B1D1E900208B68AA
:101DC0000969C31A2046A84701A9606AFFF7DEFB2C
:101DD000606A8588ADB2D5B101A9FFF7BDFB204689
:101DE0000199FFF769FC304601F098FA012002B032
:101DF00070BD012AD8D12168CA6A12F080021CD0B5
:101E0000134A1A610020802298604A63CFE70123B9
:101E100023752046FFF768FF94F8313084F82C5082
:101E2000032BE0D02046FFF733FDDCE7094D996036
:101E30004FF480721D618264B9E7C86A4006B3D569
:101E40009A600448186140224A63B0E70B7000F0C2
:101E50000D7000F00C7000F02DE9F041894D064640
:101E60000F460FCD88B001AC0FC495E8070084E899
:101E70000700B6B1002F35D034220021304622F0C1
:101E800056FD814A814913783D46344673B100239B
:101E9000084650F8042B7AB194420DD00133042B3C
:101EA000F7D17B4E304608B0BDE8F081C1E9003380
:101EB000C1E90233012010702A6841F82340754BB4
:101EC000297C84F831109A424FF00001226084F896
:101ED00032100CD0704B9A4200F0A0816F4B9A42A6
:101EE00000F0C7806E4E304608B0BDE8F0816D4B03
:101EF0006D4A23624FF44023C4E90323D5E9062346
:101F000069686889B5F80CC06262002616800527EA
:101F100056809680AA7B84F82C60A3621E805E8027
:101F20009E80EB7B0391ADF8140001215F4884F89B
:101F30002D6084F82F60ADF812C08DF810208DF858
:101F400016308DF8117000F02DFD0121584800F079
:101F500029FD0121206A00F025FD01A928688DF8DE
:101F6000046002F019F928686A7A836F297AD4F834
:101F700000C0DFF820E123F4F85323F01F031343DC
:101F800043EA01238367F4454FF00303436700F0FE
:101F900095804148844500F04981404B9C45A1D142
:101FA000002900F04C824B1E0C2B40F21483A1F14F
:101FB0000E03062B8CBFFF230523E375002A00F0D8
:101FC000DE82012A00F08983931E0A2B40F20D83E2
:101FD000A2F10D03062B40F2B083A2F11403092BEA
:101FE00040F203831F2A14BFFF2300232376002916
:101FF00000F00683012900F09D838B1E0B2B40F21D
:10200000FD820E2900F0A3830F2900F09E83102982
:1020100000F07C83112900F07783122900F072838D
:10202000132900F06D83142914BFFF230723E376DF
:10203000002A00F00D82531E0B2B40F209820D2A5C
:1020400000F0B3830E2A00F058830F2A00F0528369
:10205000102A00F06883112A08D0122A00F0728337
:10206000132A00F06C831F2A40F0F28105232377A6
:10207000A7E0104B104A23624FF46023C4E9032306
:102080003CE700BFA44B0200A019002090190020DB
:10209000027000F00000014000040140000801400F
:1020A000037000F00032040001000C004041050004
:1020B00000350A000052040001000E00002900F063
:1020C000B481481E042816D9881F042840F2CE8205
:1020D000A1F10B00B84240F21B83A1F111000628C8
:1020E00040F24A83A1F11803062B40F243831F29D3
:1020F00014BFFF263E46E675002A40F047820129BC
:10210000227600F02683022900F06D82032952D046
:10211000042950D005294ED0062900F0A9820729AC
:1021200000F0B482082900F0B782092900F0BA82D1
:102130000A2900F0BD820B2900F012830C2900F05F
:1021400013830D2900F00E830E2900F025830F293B
:1021500000F02083102900F08B82112900F01C83ED
:10216000122900F01783132900F08282142900F04D
:102170008D82152900F09082162900F0938217298C
:1021800000F09682182900F00383192900F0FE82DE
:102190001A2900F0F9821B2900F0F4821C2900F0B2
:1021A000EF821D2900F0EA821E2900F0D9821F2942
:1021B00014BFFF210721E176002A40F07B81012234
:1021C00022776B7C6376AB7C6377EB7CA3762B7D8D
:1021D000A37701212046FFF701FA064600287FF485
:1021E00061AE01F097F82F7C032F804600F0E1816B
:1021F000022F00F00F8228684FF0FF338364042120
:1022000001F0C2FF2B684FF440622046DA60FFF70E
:1022100059FB0646404601F081F843E6E14BE24AAD
:1022200023624FF45023C4E9032367E6002900F03A
:102230001281481E042816D9881F042840F21C82E7
:10224000A1F10B00052840F24682A1F111000628F9
:1022500040F28E82A1F11803062B40F287821F29DB
:1022600014BFFF260526E675002A00F09581012A95
:1022700000F09682931E022B40F2B981531F042B6B
:1022800040F2F081A2F10A03052B40F22B82A2F169
:102290001003062B40F22482A2F11703072B40F211
:1022A0007D821F2A14BFFF2300232376002900F01C
:1022B000AF81012900F07782022954D0032952D03E
:1022C000042950D005294ED0062900F0D3810729D2
:1022D00000F0DE81082900F0E981092900F0E4819D
:1022E0000A2900F06B820B2900F066820C2900F0AD
:1022F00061820D2900F05C820E2900F06F820F29A7
:1023000000F06A82102900F0B581112900F0668280
:10231000122900F06182132900F0AC81142900F029
:10232000B781152900F0C281162900F0BD81172957
:1023300000F04482182900F04D82192900F04882EB
:102340001A2900F043821B2900F03E821C2900F06C
:1023500039821D2900F034821E2900F02D821F29A8
:1023600014BFFF210721E176002A00F00281012A33
:102370007AD0022A00F03D81032A00F06081042A0D
:1023800000F06281052A00F06A81062A00F0768159
:10239000072A00F07881082A00F08C81092A00F0D1
:1023A0008E810A2A00F08E810B2A00F091810C2A7E
:1023B00000F08B810D2A00F09A810E2A00F09481A2
:1023C0000F2A00F04C81102A00F09181112A00F0B0
:1023D0008B81122A00F04381132A00F04F81142AC6
:1023E00000F05181152A00F06581162A00F06781FE
:1023F000172A00F09581182A00F0BB80192A33D0E3
:102400001A2A00F0F6801B2A00F019811C2A00F01D
:102410001B811D2A00F056811E2A00F059811F2AB7
:1024200014BFFF2100212177CBE6E175002A00F0DF
:10243000A380012A1BD12176E1760222C0E6E17554
:1024400012B1012A7FF4C0ADFF2323760523E37682
:10245000FF232377B5E6E175002A00F0A780012A63
:102460007FF408AF2176E17602212177A9E6931E59
:10247000022B40F2B680531F042B40F2EA80A2F1F7
:102480000A03052B40F20A81A2F11003062B40F249
:102490006581A2F11703072B40F25E811F2A14BF4A
:1024A000FF2300232376002900F09780012940F0C4
:1024B000D280E176012AC0D0022A00F09080032A5F
:1024C00000F09A80042A00F0BD80052A00F0BF8049
:1024D000062A00F0C980072A00F0D380082A00F0FD
:1024E000D980092A00F0DC800A2A00F0E6800B2A55
:1024F00000F010810C2A00F011810D2A00F00C81EF
:102500000E2A00F015810F2A00F0A180102A00F099
:102510000381112A00F00C81122A00F09880132AFE
:1025200000F0A280142A00F0AC80152A00F0B280DE
:10253000162A00F0B580172A00F0F880182A3FF418
:102540003EAE192A3FF479AF1A2A48D01B2A53D03D
:102550001C2A77D01D2A00F0B0801E2A00F0DA80F5
:102560001F2A14BFFF2200222AE602297FF4A6AE0A
:10257000E1760121217724E62276E2761FE6FF2329
:10258000012923763FD1E37623771AE6012A7FF4E7
:102590006EAF0023237689E701292276E5D1E17623
:1025A00021770EE60042040001000D002276E2765B
:1025B000DFE728682B8CC367436E43F00403436650
:1025C000436F4FF0FF3243F03003436782640521CD
:1025D00001F0DAFD16E6FF23EFE4E1766CE7032273
:1025E000EEE500235EE7E176E9E5FF23FEE4002364
:1025F0005BE603212177E4E50422E1E5FF2316E50C
:102600000523E37617E5881E0B283FF6FAAC1EE794
:10261000E176AEE6FEF78CFE7149607FFEF796FE2E
:10262000A675267567752046FFF75EFB2B7C28682C
:102630004FF0FF32032B82647FF4E1ADC7E7042142
:102640002177BEE50522BBE505212177B9E50B22FF
:10265000B6E5012326E702297FF458ADABE50B214F
:102660002177AEE5012320E60C22A9E5012642E50B
:102670000B21A0E50B2176E60126F4E50C2121775C
:102680009FE50D229CE50D2121779AE50C2192E52D
:102690000C2168E60E2293E50D218CE5022301E76B
:1026A0000F228DE50E2186E50E215CE60D215AE60E
:1026B0000F2180E50E21217783E5062280E50F2199
:1026C00021777EE5062121777BE50821217778E5D2
:1026D0000721217775E50226C5E5FF23237689E4E6
:1026E0000323E2E50223E0E50A21217769E50921D8
:1026F000217766E50323237763E50123237760E5EC
:10270000062394E4052392E4042390E403238EE457
:102710000226F0E4072253E5092251E508224FE59D
:10272000002121774DE5042323774AE5002247E580
:102730000A2245E5FF23E3767DE4052356E40723DB
:1027400023773EE5062323773BE501236FE400234F
:102750006DE4E1760A4633E50523A3E60323A1E60B
:10276000062128E5082126E5072124E53E467AE5ED
:102770001E4678E53E46BEE41E46BCE405211AE549
:10278000042118E5032116E5022114E5012112E5D3
:10279000002110E50A210EE509210CE5052384E559
:1027A0000023237685E5E176E1E50023237708E53C
:1027B0000821D8E50721D6E50621D4E50F21D2E589
:1027C0000521D0E50421CEE50321CCE50221CAE5AF
:1027D0000121C8E50021C6E50A21C4E50921C2E5B9
:1027E000D517000070B586B050B329B3541EB4F5A8
:1027F000006F21D2144E0191144605466A46406A84
:10280000029401A90394CDE90436FFF72FF9044699
:1028100098B995F82C3083B92846FFF719F8009934
:102820002846FEF749FF95F83130032B05D02C756B
:102830002846FFF759FA00E0044C204606B070BD68
:10284000034C204606B070BD017000F0037000F02C
:10285000027000F070B586B028B301B3541EB4F511
:10286000006F1CD2164E0191144605466A46806AD6
:10287000029401A90394CDE90436FFF7F7F8044662
:1028800070B995F82D305BB900F044FDAB6A9B88B8
:102890009BB206465BB9304600F040FD00E0094CB3
:1028A000204606B070BD084C204606B070BD0099A9
:1028B0002846FEF725FF012385F83030EBE700BFFF
:1028C000017000F0037000F0027000F010B4134BC0
:1028D000134A5B680024C9B28C42234608D00133F6
:1028E000052B02F1080215D012F8084C8C42F6D1E3
:1028F00052F80C4C8442F2D30A4A02EBC3035B79D0
:102900001A0606495DF8044B4B6823F040731343E5
:102910004B6070474FF04072F3E700BF00000E407D
:10292000DC4B0200D04B020038B5074C41F6713346
:10293000256C2364FEF712FA0021FFF7C7FF0DB1E3
:102940000023236438BD00BF00000E400C4A0D4B2D
:10295000D2F89010516A21F0300141F0100110B40A
:102960005162146BC0F3C311033123400F2928BFF8
:102970000F21034343EA017313635DF8044B70476F
:1029800000400E4000F8FF0F38B5054C41F671339A
:10299000256C2364FFF79AFF0DB10023236438BD33
:1029A00000000E40C0F30323013B30B4092B0CD8C8
:1029B000DFE803F00D110B0B152D190B2705164C35
:1029C000C0F3043020448000016030BC7047C0F385
:1029D0000430124CF6E7C0F30430114CF2E7C0F3B8
:1029E0000430104CEEE7104CC0F3043010250F4BB0
:1029F000D3F84421D207E5D4D3F840212A42FBD1B1
:102A0000E0E7C0F304300A4C4FF48035EFE7C0F341
:102A10000430084C0125EAE7800AF2100000F210A9
:102A20000006F2108005F2104007F21000400E4040
:102A30008007F2100007F21000F00F00013807289D
:102A400047D8DFE800F0121D3346283E4604264BE7
:102A5000D3F85C3103F03003202B40D0302B40D032
:102A6000102B0CBF0720012070471F4BD3F8943068
:102A700003F00703023B052B2FD81C4AD05C70479C
:102A8000194BD3F8803003F00703013B032B22D806
:102A9000174AD05C7047144BD3F8883003F0070313
:102AA000013B032B17D8134AD05C70470E4BD3F869
:102AB000843003F00703013B032B0CD80E4AD05C93
:102AC0007047094B1B6F13F0010F14BF092007203B
:102AD0007047002070470120704705207047042090
:102AE00070470820704700BF00400E40C04B0200F6
:102AF000C84B0200C84B0200CC4B020008B501468F
:102B0000FFF79AFF1E4B99422FD01E4B994226D0B9
:102B10001D4B99421DD00138032803D8DFE800F08F
:102B20001511042B002008BDFEF744F9174BD3F80C
:102B30000031C3F300635A1C01239340B0FBF3F050
:102B400008BDBDE80840FEF781B9BDE80840FEF7C2
:102B500075B90E4BD3F8800000F00700DBE70B4B94
:102B6000D3F8880000F00700D5E7084BD3F88400BD
:102B700000F00700CFE7BDE80840FEF763B900BFEB
:102B8000030020000500240002001E0000400E404B
:102B900000F47810B0F5A01F08B500F098801BD99C
:102BA000B0F5001F33D054D9B0F5381F34D066D9F2
:102BB000B0F5401F6BD0B0F5481F1AD15B48FFF746
:102BC0003BFF072842D0082800F0A580042810D138
:102BD000BDE80840FEF700B9B0F5202F13D00AD9A0
:102BE000B0F5602F2DD0B0F5801F2FD0B0F5402F5D
:102BF0001CD0002008BDB0F5003F7DD0B0F5802F7F
:102C00006FD00028F5D1BDE80840FEF7ABB84848C2
:102C1000BDE80840FFF772BF4648FFF76FFF464B1D
:102C2000D3F82031C3F30113D84008BDFEF79AF85A
:102C3000414BD3F81431C3F304230133B0FBF3F059
:102C400008BD3E48FFF7F8FE072860D13C4B1868E6
:102C500008BDB0F5D01F2DD0B0F5F01F25D0B0F5D0
:102C6000B01FC6D13348FFF749FF334BD3F82021BB
:102C7000012302F00F029340B0FBF3F008BDB0F562
:102C8000101FB6D12F48BDE80840FFF737BF2848CE
:102C9000FFF734FF284BD3F82831C3F301231A1D63
:102CA00001239340B0FBF3F008BD2248BDE8084083
:102CB000FFF724BF1E48FFF721FF1F4BD3F8282141
:102CC0000123C2F301129340B0FBF3F008BD1D488D
:102CD000FFF714FF184BD3F8303103F00303D8404B
:102CE00008BDFEF73FF8144BD3F80C31C3F30823AB
:102CF0000133B0FBF3F008BDFEF734F80E4BD3F808
:102D00000831C3F308230133B0FBF3F008BD0928F1
:102D10007FF46FAF77E7FEF725F8074BD3F8003164
:102D2000C3F3042303FB000008BD00BFB80032005A
:102D30000300200002001E0000400E4006000E00AE
:102D400084100020050024000F4B5B6A13F0300F45
:102D500006D0202914D0302902D009B10B4A01E055
:102D60004FF440020849D1F8903032EA0303FAD117
:102D7000530246BFD1F8A000C0F380200120704765
:102D80004FF40002EEE700BF00400E40FF33E13F8A
:102D9000F8B5042818D8DFE800F03018374D520095
:102DA0003F4C1C44A40000213E4B1D662368002BB1
:102DB000FCD04AB13A4C3444A4002368002BFCD028
:102DC000022801D1002948D1F8BD802440250623DE
:102DD00007260029E4D10120984032490C66D1F839
:102DE00090300342FBD1002AEED001222D49B2409F
:102DF000D1F890301342FBD1F8BD4FF400744FF47A
:102E0000807508230926E4E7002944D0254B5C6A35
:102E100014F0300F18D1244CE46B5C6AE40718D529
:102E20005D6A224C25F0300545F010055D620326F1
:102E30000425B9E701252E4602240023C9E72024F2
:102E4000102504230526C4E7184C04250326002179
:102E5000AAE7164C04250326A6E7124A114E516A2A
:102E600011F001011FBF20214FF48063C2F8A83088
:102E70005166FFF769FFD6F89C70012200210220FD
:102E8000FFF786FFC7F30A00FFF760FD356623688A
:102E9000002BFCD0F8BD0420082403269DE700BFCA
:102EA0008004F21000400E4000300E400812C8436B
:102EB0001128F8B50C460DD000F00F000138072896
:102EC00007D8DFE800F00C6466063F5B06290423A0
:102ED0002B60F8BD042900F0908005295BD0002507
:102EE000023C0A2CF5D801A353F824F00D31000060
:102EF000D5300000DB300000F5300000D32E00009C
:102F0000D32E0000D32E0000D32E0000D32E0000BD
:102F10004F300000133100004C1E072CD9D801A3FC
:102F200053F824F04B300000D32E0000D32E0000C5
:102F30003D300000D32E0000D32E00002F300000C3
:102F40001B300000774D013C092CC2D801A353F877
:102F500024F000BFF72F0000E92F0000DB2F000056
:102F6000D32E0000D32E0000AB2F0000D32E000084
:102F7000D32E0000D32E0000CF2E0000072900F032
:102F8000CD800929A5D1684B01221A67F8BD674D8C
:102F9000D9E7674DD7E7674A674B15689D429ED9C9
:102FA0000021284600F06AFC9AE7FDF703FF634B17
:102FB000984229D800231C4661495B4A0C60D2F82C
:102FC000000101F5AE51083120F080701843012452
:102FD000C2F8000103230C607AE701221146104673
:102FE000FFF7D6FE012373E7012211460020FFF709
:102FF000CFFE02236CE700236AE7FDF7EDFE0546EE
:1030000000283FF46CAFCBE74E4B012498428CBFB5
:103010004FF000734FF08073CEE73021424AD2F870
:103020005C3123F030030B43C2F85C31F8BD012260
:1030300011460420FFF7ACFE1021EFE701221146F4
:103040000220FFF7A5FE2021E8E70021E6E70320A4
:10305000052401221146FFF79BFEFFF765FC1DB119
:10306000394A1368002BFCD12F4B38485C67FFF7B7
:103070008FFD324B98424ED9324B012498428CBF7F
:103080004FF000734FF080732D49274A0C60D2F83F
:10309000000120F080701843C2F80001FDF78AFE9D
:1030A000294B1C68002CFCD1294B2A4E5968376CDF
:1030B00041F67133C1F301413364FFF707FC07B1F7
:1030C0003464002D7FF405AF28460121BDE8F840A7
:1030D00000F0D4BB01200324BBE7194B124A0121A5
:1030E0001960D2F80031022043F08073C2F8003139
:1030F0000446AEE7124B0C4A01241C60D2F80031A2
:1031000043F08073C2F800310320A2E700200424BA
:103110009FE70724A1E700231C46B5E7024B0022E6
:103120001A67F8BD88400E4000400E4080400E40B7
:1031300084400E407C100020002D31010048E80141
:103140004000C8430090D003C800C64300250A00D1
:1031500000300E4000000E402DE9F041002A46D01C
:103160002F4B304A12685D6A002925F0405545F022
:10317000005314BF4FF0805500251D43FDF72CFE72
:103180000121064600F07AFB274B1C68002CFCD17D
:10319000244B264F5968D7F8408041F67133C1F36C
:1031A00001413B643046FFF791FBB8F1000F00D0BE
:1031B0003C641F4B9E4228D91E4B01249E428CBF6B
:1031C0004FF000764FF080761B4B154A1C60D2F80A
:1031D000003123F080733343C2F8003101221146DD
:1031E0000220FFF7D5FD0E4B5D62BDE8F0810C4B70
:1031F0005D6A25F0405551B9FDF7EEFD012100F063
:103200003DFB074B5D62BDE8F0810026DCE7FDF782
:10321000E3FD012145F0805500F030FBDEE700BF03
:1032200000400E4000300E40C800C64300000E4073
:103230000048E8010090D0034000C84338B5044678
:103240001120FFF7F9FB012200210220FFF7A0FD6A
:10325000174A257C536A1749207823F00103022D71
:1032600008BF43F0010353620860A388617AE588D0
:1032700041EAC321D162136B207AA17A03F07F6304
:103280000B43C11C43EAC5230F2943EAC01328BFDF
:103290000F2143EA01731363A37B657BE07B217BF2
:1032A0001B0143EA0533034343EA0143536338BD3B
:1032B00000400E40A004C843014638B51120FFF776
:1032C000BBFB0C4D0C4BAA6B0C78487813401C438D
:1032D0008B78C978AA6B44EAC02444EA036444EAC0
:1032E0000124A24205D0002108460122FFF750FD2B
:1032F000AC6338BD00400E4080E4FFF872B6704702
:1033000062B67047EFF3108072B6704700B962B6CC
:10331000704700BFEFF3108072B67047FFF7F6BF3B
:10332000EFF31083DA0732D4214A4309C1B252F8CD
:10333000233010B401F01F04E340DB0723D500283D
:1033400027DB104490F800034209EFF3118313B117
:10335000B2EB531F17D217494868C0F3080098B161
:103360001038C0B243B2002B1ADB03F1604303F5FF
:10337000614393F800034009824234BF00200120DA
:103380005DF8044B704701205DF8044B7047012045
:103390007047094B01F00F010B44187E4209D4E736
:1033A00000F00F03043B0B44187E4009E4E700BF24
:1033B00000E100E000ED00E0FCEC00E0024B9B6867
:1033C00003EB80000164704700ED00E0F0B4049F5F
:1033D0009DF8145053B1002465B1A14213D950F89F
:1033E000246042F824600134A342F5D1074BF0BCBD
:1033F0009A607047A14252F8246002D9002EF2D19F
:10340000EDE7002EEFD142F82470ECE700ED00E08C
:103410000E29436816D8012210B48A4047F2E0040E
:10342000224223F01F0306D041F0100119434160EE
:103430005DF8044B704740F61F742242F6D15DF8E8
:10344000044B7047704700BF70B4056A046A036A92
:10345000066ACE60102AC1E900548B6007D1046A65
:10346000026A036A006AC861C1E904428B6170BCE8
:10347000704700BF42EA032340F2011293425BD03F
:10348000B3F5817F14D340F2012293424BD030D95F
:10349000B3F5407F24D040F2013293423ED12B4B12
:1034A000D3F878311A0EC3F3074303600A607047FC
:1034B000012B2AD00BD3B3F5807F2FD1234BD3F828
:1034C0006C311A0EC3F3074303600A6070471F4B49
:1034D000D3F86C31C3F30722DBB203600A60704794
:1034E0001A4BD3F870311A0EC3F3074303600A6016
:1034F0007047B3F5007F11D1144BD3F87031C3F38B
:103500000722DBB203600A607047104BD3F87431B6
:10351000C3F30722DBB203600A6070470022134640
:1035200003600A607047094BD3F87831C3F3072270
:10353000DBB203600A607047044BD3F874311A0E93
:10354000C3F3074303600A60704700BFB081E00F18
:10355000094A1368002BFCD1084B19685A68C1F35B
:103560000121C2F3014291421A688CBF42F010025D
:1035700022F010021A607047C800C64300300E40A7
:10358000044B1B69C3F30443082B02D1024B034ACB
:103590001A60704700400E407C100020C0EA2101F4
:1035A000154B0228D3F8803122D003281ED00128E1
:1035B00014BFDBB2C3F307231B0323F4704241B9EA
:1035C00092B90E49CA6E22F470421343CB660120B1
:1035D00070474AB90949D1F8E02022F470421343F8
:1035E000C1F8E03001207047002070471B0EE3E770
:1035F000C3F30743E0E700BFB081E00F00300E40A7
:1036000070B5274B274C1978274B284D284AC1F114
:10361000020010218140216145F60E01D3F880415E
:10362000C3F88011286840F25511014004F00104EC
:1036300019661368002BFCD11A4B1B68D80617D5E6
:10364000194AD2F84031D901FBD41A4E1A4B3178BD
:103650001B681361052916D01120FFF729FC2B6880
:10366000DB070CD51CB1104B0022C3F8802170BDC4
:10367000104E31780529EFD12B68DB07F2D40A4BC5
:1036800002221A66EEE70D4B094A18681368002BF0
:10369000FCD1044B5968C1F30141FFF775F9E8E724
:1036A000B519002000300E4000400E40A419002043
:1036B000C800C643AE190020B01900207C100020BD
:1036C0000C4A08B50C4BD2F890201A601120FFF775
:1036D000B3F90A4B0A4A18701368002BFCD1094B46
:1036E00009485B680349094AC3F3014303700B6946
:1036F000136008BD00400E40A4190020AE19002040
:10370000C800C64300300E40B5190020B019002093
:1037100010B50446B0B9FFF71BFF0E4A136943F01A
:103720000403136130BF84B90B4B1B68DB0603D461
:10373000BDE81040FDF73EBBFFF722FFBDE810409B
:10374000FDF738BBFFF7BCFFE5E7BDE81040FFF72A
:1037500057BF00BF00ED00E000300E4010B504463A
:1037600030BBFFF7F5FE164BD3F88021D20748BFD8
:10377000002245F60E004FF42071C3F8800119664F
:1037800048BFC3F880210F4A136943F00403136153
:1037900030BF84B90C4B1B68DB0603D4BDE8104076
:1037A000FDF708BBFFF7ECFEBDE81040FDF702BBDC
:1037B000FFF786FFD5E7BDE81040FFF721BF00BF48
:1037C00000400E4000ED00E000300E40FFF778BFF3
:1037D000FFF716BF0A4B9A69996922F4403242F406
:1037E000003241F440314AF6E85098609A6199619C
:1037F0009A6199619A6199619A6199619A61704738
:1038000000300E401A4B2DE9F041D3F80031044648
:103810000E46FDF7A7FA174A07461368002BFCD19E
:10382000DFF85480D8F80430C3F301439C420ED033
:10383000C4F102031025022C05FA03F50FD0C8F8D5
:1038400010501EB10B4A1368002BFCD10CB1BDE81F
:10385000F08121463846BDE8F041FFF795B8214692
:103860003846FFF791F8C8F81050002EEFD0E9E77E
:1038700000400E40C800C64300300E4010B5104B4B
:1038800082B0D3F8004158B10E4B1B7813B10E4BE8
:1038900098420ED9002002B0BDE81040FFF7B2BF39
:1038A0000191FDF75FFAC4F3042404FB00000199C1
:1038B000EAE7022002B0BDE81040FFF7A3BF00BF57
:1038C00000400E40B4190020FF2C3101034B027858
:1038D0001A7001210020FFF7D1BF00BFB4190020EA
:1038E000064942780B6823F4407343EA0223022A14
:1038F0000B6004BF024B5B6A704700BF00300E4094
:1039000000400E401E4A936FDB07FCD4136C13F08B
:1039100003031CD01B4A0121834211601CD0032BDE
:1039200002D1431E012B18D9154A936FD907FCD435
:10393000136C134923F00303034313648B6FDB07FA
:10394000FCD400300F4B18BF0120186070470028CE
:10395000E7D10C4B186070477047094A4FF40023B9
:10396000D362936FD907FCD4136C054923F003038A
:1039700043F0010313644B6A1B03FCD5D4E700BF7B
:1039800000300E40B40AC6432DE9F04FA0F5E164C3
:1039900089B00023B4F5966FCDE90233CDE9043345
:1039A000CDE9063370D8514BB0F5E16FD3F86831EB
:1039B0008CBF4FF0010A4FF0000A69D1C3F307240E
:1039C000DBB2079404934FF4167B4FF49665DFF84F
:1039D00020910191D9F84C60C6F30176044605A9FF
:1039E00002A8334690465246FFF744FDD9F8E070EE
:1039F000C7F3012752463B4606A903A8FFF73AFD45
:103A0000049A0799651B8B1A05FB03F3B3FBFBF3C1
:103A1000D3182CBF01220022994235D3002A33D17A
:103A2000069903980A1A05FB02F2B2FBFBF210EBAF
:103A3000020A2CBF01220022514525D322BB029944
:103A4000059A501A05FB00F5B5FBFBFB11EB0B0BC0
:103A50002CBF012100215A4516D3A9B9B8F1000F96
:103A60000ED0D9F85C2022F4FE4222F0020242EA93
:103A70000323B4F5E16F1E4A18BF43F00203D36578
:103A8000019B7BB9012000E0002009B0BDE8F08F68
:103A90001C0EC3F30743079404934FF4966B4FF443
:103AA000E16594E730460021FFF77AFD0028EBD06E
:103AB00038460121FFF774FD0028E5D00C4A536E0B
:103AC000D34538BFD34623F4FF73BBF1E70F23F090
:103AD000010328BF4FF0E70BB4F5E16F18BF43F0C7
:103AE000010343EA4B035366CFE700BFB081E00F09
:103AF00000300E403A4B1A6FD96CC90730B402F04F
:103B000007020BD5012A57D9132852D91438132884
:103B10008CBF4FF47F424FF4EE4207E0D96CCD07E3
:103B20003BD4012A51D9DB6C6FF0FF022C482D4D9C
:103B3000C36C2D4C23F47F431343C364C16C2B88A7
:103B4000C26CC1F303210131283301EB810503EB82
:103B50005303B3FBF5F3013B072B22F0EE6228BFC2
:103B6000072342F4801242EA0363B4F90020C364DD
:103B7000002A10DB036D4C08283204EB410102EBF4
:103B8000520223F07004B2FBF1F3072B28BF072386
:103B900044EA0313036530BC7047DB6CDC0711D5C6
:103BA000012A0FD827288CBF4FF47F424FF4EE42F2
:103BB000BCE74FF44C52B9E7DA6CD10705D5DB6CA2
:103BC000DB07EFD46FF0FF02B0E70928F1D90A381C
:103BD00009288CBF4FF47F424FF4EE42A6E700BFA6
:103BE00000300E40AA190020AC190020C2884A2AD1
:103BF000F8B50446B0F90C7005D9B2F5FA7F53D286
:103C00004FF0805000E000203349344ECB6C344DEF
:103C100023F0405323F00103002FA8BF43F001031A
:103C20000343CB64D1F8E030288843F44073C1F8F3
:103C3000E030CB6E43F08073CB663368002B3CD111
:103C400033680B6F23F007030B67FFF753FF254B18
:103C50002549A0882689B4F90C201A8028800E8076
:103C6000FFF748FFA37B002B31D0012B18D0012296
:103C700011466088FFF788FE054678B1164A6078DD
:103C8000D36B43F48063D363FFF73CFEA37A174AF8
:103C9000A3F12003B3FA83F35B0913602846F8BD50
:103CA0000D4B134A9A65E2E740F6C3139A428CBF64
:103CB0004FF040504FF00050A6E733680B6F23F0F1
:103CC000070343F004030B67FFF714FFBFE7024B42
:103CD000084A9A65CBE700BF00300E408009C64312
:103CE000A8190020AC190020AA1900209407C64387
:103CF000372110B777402057054A064B06491B6805
:103D0000136F23F00703184310670888FFF7F2BE0C
:103D100000300E408009C643A81900202DE9F04369
:103D2000072A01F003019DF81C609DF8205027D858
:103D3000DFF87090DFF87080DFF870E0DFF870C0B7
:103D400094000F27A040A740C9F80070C8F80000F1
:103D50000320A14000FA04F4CEF80040CCF8001093
:103D60000E490F4C11448900012000FA02F20B6049
:103D7000C1F88060C4F82424C1F80053BDE8F08382
:103D8000A2F10804A4000F27DFF82890DFF82880AC
:103D9000DFF828E0DFF828C0D4E700BF80208510D6
:103DA00000A0004000A4004400A4004608A4004471
:103DB00008A4004604A4004404A400460CA4004443
:103DC0000CA40046F0B444004AB12718214D3F012D
:103DD00001263D448E40A3B305F1C0652E60251831
:103DE0002D0105F18045072905F5204519D88F00DB
:103DF0006E684FF00F0C0CFA07FC26EA0C0602FA6C
:103E000007F73E436E6052B90444124A2401012070
:103E1000224400FA01F1C3B902F180621160F0BCE2
:103E2000704701F18046083EAF68B6004FF00F0CB6
:103E30000CFA06FC27EA0C0702FA06F63E43AE60CF
:103E4000E1E705F180652E60C9E702F1C062F0BCD0
:103E5000116070470CA00040034B03449B0081F0AD
:103E600001011960704700BFA001F11038B5044688
:103E700001211148FEF796FDB4F8013020780F4A71
:103E80000F495BBA9BB243EA0063002013604FF016
:103E9000004510624FF0FF33D06250634FF4007062
:103EA000D5669366C1F88001E3785B01DBB281F8E7
:103EB0000933086038BD00BF00550A0000200E40DD
:103EC00000E100E0F8B5CB7A8E7A0D7B234F1B051D
:103ED0000C4643EA064300EB400607EB061643EAAE
:103EE0004553C0B20125497B22F00302854020687A
:103EF000C6F88000C6F88810C6F88430C6F8982046
:103F0000BD66FFF707FAFB6E227A2B43FB6612B100
:103F10007B6B2B437B63637A1BB1104AD36A2B43C1
:103F2000D3620E4B22791B6822B1D243120262F493
:103F30007F42134062790AB143EA0223A2790AB1AF
:103F400023EA0203E27902B11343044A04491360ED
:103F50000D60D563BDE8F840FFF7E0B900200E40E2
:103F600028200E4410B5C0B201248440FFF7D2F9D6
:103F7000054A0649D36E23EA0403D3660C60BDE804
:103F80001040FFF7CBB900BF00200E4020200E44A8
:103F9000F8B5C3B201259D400446FFF7BBF90B4BB2
:103FA00004EB44041F6E9E6A03EB0414D4F88C40A7
:103FB000FFF7B4F9354206D1C4F30A1008B93D42FF
:103FC00000D10130F8BD0020F8BD00BF00200E4038
:103FD0008368DB06FCD5036CDA0702D4436C5B060E
:103FE000FCD48162704700BF054A064B5168526895
:103FF00041F671321A649A6822F001029A607047A1
:1040000000300E4000000E40034B9A68002122F061
:1040100001029A601964704700000E40014B0122B2
:104020009A60704700500E40144A154B0021F0B4BE
:1040300008465568134F03F1480601220FE0B2F518
:10404000006F16D0B2F5803F13D02A4202D0294229
:1040500008BF10430833B3420ED053E902213C6835
:104060006407F2D4B2F5806F03D0E8D8B2F5007FD0
:10407000EBD141F48071E8E7F0BC704700500E408E
:10408000004C0200E841E00F437941780278F0B437
:104090000479C7798678C5781B0343EA042300298D
:1040A00043EA02030CBF002104218479027A002E26
:1040B00043EA074343EA01030CBF00211021002D0E
:1040C00043EA01030CBF00212021002C43EA010335
:1040D0000CBF00214FF400410B430AB143F40033FD
:1040E000014AF0BC13607047002004400B4A53693A
:1040F00011699B0003F03C03C1F381110B438370F2
:10410000136903F03F0343709369D26903F0F0032E
:10411000C2F3031213430370704700BFD0FF0FE0D8
:10412000F8B5054616461C46E9B1202C21D022D907
:10413000402C16D0602C13D104222B68104F23F092
:1041400060032B6006FB02F62B68720802EB41123B
:10415000B2FBF6F2203A07EAC2021C432C606A6105
:10416000F8BD0622E9E70748FEF712FD202C0146BC
:10417000DDD10822E1E7002CF2D11022DDE700BFFB
:10418000F8FF7F0040410500CB435B0003F00A03CA
:10419000C360C160704700BF2C4A70B5044600235D
:1041A0002B4840F6AA660D46944241F20501E660AE
:1041B00023606160A3606361E364A0642366636756
:1041C000A367E3673FD002F58062944237D002F5DF
:1041D0008062944237D0A365AB7C1BB1236843F067
:1041E00080432360EB7C1BB12B7D43F08003A365F0
:1041F000697B2E8AE8892B7BAA6831430143616081
:1042000020466968FFF78CFF6B7D1BB1236843F480
:1042100080332360AB7DEA7D297E28781B07120559
:1042200003F0E04302F4E00213432366636F23F0DC
:1042300030036367636F0B436367E06070BD2365A2
:10424000A365E365C8E700232365C4E700000140D8
:10425000F9FF010003695B06FCD54163704700BFAD
:10426000C20606D51038C0B2032817D80C4B185C0C
:104270007047C1070ED402070ED410F0020F0CBF16
:104280000323022310F0600F0CBF43F0800043F0C3
:10429000C00070470123F5E70423F3E704207047CB
:1042A000404C0200F0B51C4640F207239A4287B00A
:1042B00000F03781B2F5027F3DD240F201139A42FD
:1042C00000F09680B2F5817F25D2042A63D0072AB8
:1042D00000F03F81032A2BD1002403A8CDE9034439
:1042E000059412F017FDB549B54D049BCB604CF613
:1042F00093024A8243F2BF628A82B24A0123C1E931
:104300000052B14A0B828A6016200093224623464F
:1043100000F020FC0CE040F203139A4200F0E3802E
:10432000B2F5817F40F20A8140F206239A423DD0E5
:10433000002007B0F0BD40F203639A4200F02381F1
:1043400017D840F201639A4200F05E8100F20E81BC
:1043500040F20B239A42EBD1984963888B802378F3
:104360008B719A4B0B600123009300231A460720A0
:10437000CEE740F205639A4200F01881C0F0088150
:1043800040F207639A42D3D18C4923780B7163685A
:104390004B718F4B03E0894923888B808D4B0B60D9
:1043A0000123009300231A460620B1E723688349BE
:1043B00053F8380F48609B880B81236893F851208D
:1043C0008A7293F85320501E42424241CA7293F8B7
:1043D0004E200A7393F8552093F856308B737E4B1A
:1043E0000B6001234A73009300231A460F208FE7C6
:1043F000A378724DFF2B04F1030614D1637B2B715C
:104400003368C5F80530B388A5F80930637AEB72D4
:10441000A37A2B73714B2B600123009300231A4660
:1044200029460D2074E7022011F02CFF04F1140737
:10443000002835D0A078FFF713FF28713368C5F83E
:104440000530B388A5F80930637AEB72A37A2B7331
:10445000E37A6B73237BAB73637BEB73A37B2B746C
:1044600023786B746378AB746069238AA5F8133082
:1044700009F0B5F8C2B202F1120059496A75030297
:1044800041EA10219BB20B432B6002230093636926
:104490002946162000F05EFB384608F0C1FF47E7CA
:1044A00023782B71A078FFF7DBFE68713368C5F8BD
:1044B0000630B3886B81637A2B73A37A60696B7360
:1044C00009F08DF8C2B202F10B004649AA7303024B
:1044D00041EA10219BB20B432B60022300936369D6
:1044E00029460F20D6E7207809F0C4FA00283FF4C7
:1044F0001FAF324923780B716388A1F80530A38878
:10450000A1F80730E388A1F80930237ACB726389D8
:104510008B81354B0B600123009300231A460E203C
:10452000F6E6207809F0A6FA00283FF401AF234907
:1045300023780B7163784B712C4B30E71F4923783C
:104540000B712B4B0B600123009300231A460520AF
:10455000DEE6207809F08EFA184990F84E300B719B
:1045600063784B71A3788B71224BFBE6207809F0BE
:1045700081FA00283FF4DCAE104923780B71637890
:104580004B711D4B0BE70D4923780B711B4BD9E782
:104590000A4923780B716368C1F80530184B0B602A
:1045A0000123009300231A460920B1E6034923782A
:1045B0000B716368C1F80530124BF0E7C847002063
:1045C000A012010002000B000500B001A0030801C9
:1045D000A0020F09A0020105A00B0800A009030218
:1045E000A0000304A0000300A00A0802A00208041F
:1045F000A0010301A0030803A0020F03A0010F0103
:10460000A0050F00A0050F02034923780B716388F2
:10461000A1F80530014BA5E6C8470020A0030F0410
:104620007047000010B504464FF49870A047064B41
:1046300018604FF49870A047044B18604FF49870BE
:10464000A047034B186010BDBC190020C019002002
:10465000B819002038B50B4D0B492B6809681A189A
:10466000914204460CD902460021184620F05FF919
:1046700003460330204420F003002860184638BD6C
:104680000023FBE7CC190020D019002007B508490A
:104690001B684B60074B0B600123009300231A46F5
:1046A000082000F057FA002003B05DF804FB00BFBB
:1046B000C8470020A00401032DE9F8430746134D25
:1046C000DFF84C9000F01CFAA84612F07DFC286040
:1046D000D8F8000011F0A4FD064600F01BFA0446CD
:1046E00088B908F01FFB0028F2D167B199F80030B3
:1046F0004BB9FEF70FFE0446304612F0E7FC2046A9
:10470000FEF70CFEE1E72046BDE8F883C41900205F
:10471000D419002007B502210DF10602322000F065
:10472000BDFB18B9BDF8060012F074FB03B05DF8CC
:1047300004FB08B5431C1EBF4FF47A73C003B0FBE3
:10474000F3F012F0C3FC4FF47A735843C00B08BD6A
:104750000020FFF7B1BF08B508F02AFB38B912F006
:1047600033FC08F079FB003018BF012008BD0120A0
:10477000FCE708B5FFF7EFFF28B912F025FCBDE80C
:10478000084008F077BB002008BD08B5FFF7F1FF2F
:104790004FF47A72A0FB0223D00B40EA434008BDDD
:1047A00008B5064B1978814204D0187011F05CFDF1
:1047B000002008BD40F28110FBE700BFC8190020AF
:1047C000024B1B6803B11847704700BFD81900207F
:1047D00008B5054B1B78014658B208F083FABDE8CE
:1047E0000840FFF7EDBF00BFF84700202DE9F04774
:1047F000044686B0002800F016810368DA0542BF3F
:10480000904B01221A7012F04DFB257A677AE3680B
:10481000002D08BF0425002F08BF012743B18A4A95
:10482000B4F842101360228A0A441344874A136082
:104830008748FFF7F7FE5FFA87F88549152008F0EB
:10484000B9FCE27A4146E8B211F0D5FC814B196817
:10485000814B186816F086FC00F0F2FA0646002834
:1048600040F0868009F00EFB09F07AF939460246DD
:10487000284600F0E5FB94F83A50002D7CD0102D2E
:1048800028BF102508F04EFC6A1C81B20023D2B26A
:104890000C2008F055FC404601F04FFA40460BF062
:1048A00005F8A07A07F064F9A07A0BF00BF8B4F8D9
:1048B0004250664B6FF00302521B1D68624B154459
:1048C0001A68AD1A08F02EFCC21C02F0FC02583225
:1048D000B5FBF2F5EDB26149284608F0FDFA002378
:1048E0002A465121012008F02BFC08F0C9F9554B4C
:1048F0001A78994632B9206880F40070C0F34020DD
:1049000000F0D8F908F0DCFF626B94F83010362024
:1049100000F0B6FA04F12C020421352000F0B0FAC0
:10492000FFF7F8FE94F804A0E0690AF0040A08B161
:1049300011F034FD0DF10808424606212C2000F04C
:10494000ADFA18BB18F80050C5B901300628F9D1E6
:104950002F46206A00F0E2F994F84030DB0722D5B8
:1049600094F8410012F096FAE8B100F5306086B292
:10497000304606B0BDE8F087042583E7002318F829
:104980000320FF2A52D10133062BF8D100273D46E0
:10499000DFE79DF80770012F51D198E803000490DC
:1049A000ADF81410D5E7002D14BF424600220121B6
:1049B00004F12803204600F00BF912F011FB284BFC
:1049C000626A1A60012012F0DFFA12F0FDFA254B3C
:1049D00001211860062011F061FC12F04DFA01214E
:1049E00009F0F2FA1FB104A9012009F0D7FE002155
:1049F0001D4808F065F91D4B1870BAF1000F10D171
:104A00000220FCF781FD12F0E5FA0022032118488C
:104A100008F0E3FA99F80030002BA9D1FFF7D0FE97
:104A2000A6E70320EDE74FF4C076A1E70DF10702FA
:104A300001213C2000F032FA05460028A9D00027C9
:104A4000012586E7D4190020CC190020D0190020B8
:104A5000554600006421002060210020C96F01003C
:104A6000D8190020C41900208D460000F847002006
:104A7000B81F0020044B1B680BB9184670471A7802
:104A80008242FAD09B68F7E7E01900202DE9F04157
:104A90001D4691F900309DF81860002B07468846A6
:104AA00014461EDA101D384408F00BFF10B3002323
:104AB0000360114B1A688AB91860031D3A464146D3
:104AC00018461FF010FFACB1022E38440CD122461C
:104AD00029460023BDE8F04108F073BC1346126874
:104AE000E9E7064B1B68E9E722462946BDE8F041A5
:104AF0001FF0F9BEBDE8F081DC190020C0190020CC
:104B0000034B186818B102681A6008F0EBBE7047D2
:104B1000DC190020024B186800B10430704700BF58
:104B2000DC19002070B506460D46FFF7A3FF48B913
:104B30000C2008F0D5FE38B1054B06701A684560A8
:104B400082601860002070BD4FF4C170FBE700BFA9
:104B5000E019002010B49DF8044001945DF8044B66
:104B6000FFF794BF30B587B0C0F3074403902046E9
:104B70001546FFF77FFF30B101BB9DF80F2043685A
:104B80000BB11968A9B99DF80F30240444EA0364F5
:104B900040F28313ADF8143001230093002344F452
:104BA00008741A4604A906200494FFF76FFF07B0A3
:104BB00030BD5879904201D00833E1E72846884754
:104BC000F5E70A460021FFF7CDBF704770470000A8
:104BD0002DE9F043064687B00C461F46334D002AA8
:104BE0003CD1334BD3F840C05B6C42EA0C08C8F3AD
:104BF0000742AA70C3F30722C8F30721EA70C3F380
:104C00000742C3F3076385F8008069702A716B71EE
:104C1000122200210DF106001FF089FE738AADF803
:104C2000043073690293B3690393B38FADF8103006
:104C3000F38FADF8123012F021F98DF8140097B906
:104C4000029B43F01003029301A800F007FAA0B101
:104C500000F5306080B207B0BDE8F08313682B60C8
:104C60009388AB80D4E73B78002BE9D07B78BA7887
:104C70008DF81420012BE3D0E6E706AA502322F892
:104C8000163D0221312000F009F9BDF9020011F0B2
:104C900015FB12F0F1F8012801D903F061FE20465E
:104CA00000F04EF8FFF7BCFC0020D4E74C49002090
:104CB000B081E00F08B518B104490548FCF7CCFBFA
:104CC00012F0DEF8BDE8084012F050B8CD4B0000FD
:104CD000CB4B0000024B4FF080525A60704700BF30
:104CE00000ED00E0044A002352E8000F42E80031E2
:104CF0000029F9D100F026B954490020054A52E8AC
:104D0000003F034342E800310029F8D1024B1B6801
:104D1000184700BF5449002058490020054B08B1EE
:104D200018607047044A05491A606FF0010012F0DC
:104D3000B3B800BF58490020D54C0000E54C000036
:104D400010B5002104460A4807F0BAFF094B187055
:104D500024B10121BDE8104007F0C4BF2246064936
:104D6000064808F042F90120BDE81040FCF7CCBB32
:104D70009D4D00005C490020A5420000B81F0020A6
:104D800008B511F027FA002202490348BDE808409F
:104D900008F02BB9A5420000B81F002073B51C68AD
:104DA000E10701D5FFF7ECFFA20725D50CF0DAFEED
:104DB000E0B902AC124D44F8040DFEF7ABFA06461A
:104DC000284608F070FB01903046FEF7A7FA0198DC
:104DD00090B143795B070CD42046022108F0D2FC45
:104DE00001980CF0B9FE0CF065FFE6E70CF062FFED
:104DF000DCE70DF013FDF6E7002002B070BD00BF48
:104E0000E419002038B5044648B1FEF783FA21467C
:104E10000546084808F065FC2846FEF77FFA064B71
:104E2000022193F9000007F05DFFBDE83840FFF76D
:104E3000C7BC00BFE41900205C490020FFF7E2BFB7
:104E40000D4B98420BD8013B98420ED230B1033B38
:104E500098420DD0C0F30C0000F510607047074B6E
:104E60009842F7D140F2025070474FF4C07070473B
:104E700040F20150704700BF0AE000F00BE000F084
:104E800008B50B4640F480210348006816F0A0FBEB
:104E9000BDE80840FFF7D4BF6021002008B50B46ED
:104EA00040F480210348006816F0A2FBBDE80840EA
:104EB000FFF7C6BF6021002008B5054B40F48021F4
:104EC000186816F0B7FBBDE80840FFF7B9BF00BF90
:104ED000602100202DE9F0438DB005460F46904635
:104EE00002AECDF800803B460A223146284616F035
:104EF000BBFB002481464C4505D1002CF1D1204656
:104F00000DB0BDE8F08356F82410284616F092FB49
:104F10000134F0E708B5CA43054B10FA82F240F4B9
:104F2000802142F480221868FFF7D4FF002008BDDA
:104F300060210020024BD86808B1FFF7DFBE704740
:104F4000E81900202DE9F8433C4B00221D4603F1EF
:104F50000C0151E8001F03F10C0444E80026002E68
:104F6000F5D140EA0104200101D505F09DFA002C9D
:104F700001DA03F033FC610001D506F03DFAA2002E
:104F800001D501F0D7FCE3000ED500F01BFA58B9AB
:104F900005F10C0353E8003F43F0805305F10C0189
:104FA00041E80032002AF3D167010ED502F078F90A
:104FB00058B905F10C0353E8003F43F0806305F155
:104FC0000C0141E80032002AF3D1A00105D500F020
:104FD000C8FE02F0CFF906F063FEE10101D506F04C
:104FE000CBFD620201D506F051FF230201D500F08E
:104FF000B3FEA7B2FFB14FF0010997FAA7F0B0FADC
:1050000080F009FA00F827EA080701F055F820B106
:1050100001F0DEFF08B946EA0806002FEDD156B1CF
:1050200005F10C0353E8003F234305F10C0141E86F
:105030000032002AF4D1BDE8F88300BFE81900204F
:1050400038B50D46144601F0C5FB284600F09EF920
:105050002046BDE8384012F01ABA000038B51A4BA5
:1050600000221A600446194A20B141681160816823
:1050700001B11960196809B915491960154B16482D
:10508000936008F00FFC204605F0F6FA0546C0B91B
:105090002CB1B4F90E10B4F90C0005F031FE00F09B
:1050A00069FE12F0F1F902F029FC00F019FD05F09B
:1050B000D1FF01F0BDFB02F0AFFA06F0EFFD07F003
:1050C000EFF9284638BD00BF60490020E8190020EC
:1050D00088100020354F0000EC190020044A52E8E7
:1050E000003F034342E800310029F8D1704700BF78
:1050F000E8190020044AC04352E8003F034042E858
:1051000000310029F8D17047E8190020014B1B68D5
:1051100018407047E819002008B505F055FD01203A
:10512000BDE8084005F044BD05F0D2B8034B024687
:105130000068186192889A8201207047E81900205F
:1051400000487047F8190020014B9868704700BF6D
:1051500064490020F0B5104B1E6893F804C0354632
:105160004FF0FF320024A44509DC99B1531C11D043
:10517000642303FB026383F83D001846F0BD95F8F5
:105180003D7087422B46F8D0FF2F08BF224664357A
:105190000134E8E70023F0E764490020203050E8BC
:1051A000003F0B4340E80032002AF8D14FF0805016
:1051B000FFF7A4BD37B590F82B3004460133DBB2BE
:1051C000032B04D184F82B30002003B030BD94F8B9
:1051D0002A201A41D207F1D584F82B3000F0D5FDF2
:1051E00060B194F83C30DB0626D494F82B002530CF
:1051F000C0B200F0CDFD80F00100C0B200F00100AF
:1052000005F0D6FCB4F9442094F82B5094F85A30A9
:105210000A499042A8BF104600B225350090084ABE
:10522000E8B205F0CFFB94F82B002530C0B2002186
:1052300000F0AAFD0120C8E70020DFE75555550022
:10524000D6BE898E38B5044611F04CFCA06B002503
:10525000E56110B101F048FBA56304F14800BDE829
:10526000384008F0DDB838B5044639B390F8282046
:105270009AB190F829300133DBB29A4280F8293094
:105280000BD10121FFF7DEFF11F044FC4FF4801138
:105290002046BDE83840FFF781BF236A1A040DD5C8
:1052A000E36A62689B1A002B08DA01212046FFF7A7
:1052B000C9FF11F02FFC4FF48001E9E7236A5B047A
:1052C00027D405F035F91125B0FBF5F505EB0515EB
:1052D00094F95230451BADB2EA18102A88BFC5F1C7
:1052E00010056DB2083B2B4484F852302046012152
:1052F00011F0F8FBA38C1D44636840F2712202FB9D
:1053000005356560204611F0BDFBBDE8384011F061
:1053100001BC0025EAE7000038B5044605F0ACF80A
:10532000236A13F0100518D003F00303134A002B6F
:1053300008BF0025124B1CBF01251346E361204620
:10534000FFF738FF58B10F4B986805F005FC217E38
:105350002846BDE8384005F00BBA094BEEE70A4B8A
:105360001B689A78237E04339342D4BF2376227637
:1053700020460121BDE83840FFF775BF055D0000FC
:1053800015570000644900206049002000EB8001AF
:1053900001EB8101890038B589B20446002301225E
:1053A000074D062007F0CCFE06202C7107F00EFFFB
:1053B0006422286062430021BDE838401FF0B7BA7C
:1053C000644900202DE9F041304E88B00025337942
:1053D000AB4203DC012008B0BDE8F08133686424EF
:1053E00004FB053494F83D30FF2B0DD0236A9B025B
:1053F00006D504F14808404608F0E9F8074628B900
:10540000226A12F4A00F15D10135E0E7BB7994F8B8
:105410003D100C333B441A4652F80C0F069092880C
:10542000ADF81C209A7A384606ABC2F3801203F01E
:105430003DF8E0E794F83C301D2B19D100203C23C7
:10544000CDE90303CDE90100009004F14C03C2F360
:105450000022012102F011FF0028BCD0203454E8C2
:10546000003F23F4A00344E80032002AF7D1CBE741
:1054700012F4801F94F8293094F83D004FF0000298
:1054800014BF43213C2102F0F1FFE5E7644900200D
:10549000F8B51F46C36904460D46164673B159B99F
:1054A000FDF738FF294606462046FFF7CBFE11F0F0
:1054B00031FB3046FDF732FF01204EE00029FBD0E2
:1054C000036AD90741D494F83D30FE2B07D1FFF78A
:1054D00037FE0368C4F83E308388A4F84230236A5C
:1054E00084F82870DA064CBF1C4A1D4AE26123F496
:1054F0000043002284F829202362A28CE38C9B1AAB
:10550000E26840F2712707FB03232361FDF702FFE6
:10551000054605F00FF8A3680A33184460604EB1E1
:10552000E28C236AC2EB061207FB020043F400433D
:10553000E06223620B4B1B68DB782376204611F078
:10554000A1FA11F0E7FA2846B4E7836B002BBAD131
:1055500001F09EF9A0630028B5D1F8BD15570000F1
:105560005BC3000060490020036A10B513F40074A7
:105570000B7808D043F040030B7050F83E3F1360A7
:105580008388938010BD64F386130B70024B1968F7
:1055900011609B88F5E700BF4C49002070B5284B8F
:1055A0009C68A3790C33E518E25C02F06F026FF39C
:1055B0004512E25406226A700E4690F83C101039EB
:1055C0000D2920D8DFE801F0371F33071F0C1F1FFC
:1055D0001F1F1F1F1F0CE25C6FF30302E25412E057
:1055E000E25C012161F30302E2540C226A7002467C
:1055F00052F84C1FA9609288AA81026AE15C120AE3
:1056000062F3C711E154E25C90F83C1061F345127B
:10561000E2542946AA1CFFF7A7FFA3796978023351
:105620000B44002EE371A4BF8919697070BDE15C61
:1056300062F30301E6E7E25C022161F30302CDE7D6
:1056400064490020F8B50C46072859D8DFE800F077
:1056500004583C44585853440B6A13F0100003D0CC
:1056600013F0030018BF0120FF23054684F82B30F8
:105670002046FFF79FFD234A234B206B234E002D2E
:1056800018BF1346E36107F0AAFF01462046FFF763
:1056900085FFB368226B1A60676804F04BFF381A05
:1056A000FA28B06807D805F057FA217E2846BDE8E9
:1056B000F84005F05DB805F04FFA227E6168284693
:1056C000BDE8F84005F076B811F0E6FA844217D14B
:1056D000BDE8F84004F0D0BE0D4B1B68DA780B7EB5
:1056E000043B9342ACBF0B760A7620460021BDE80E
:1056F000F840FFF7B8BD0846BDE8F840FFF70CBE1C
:10570000F8BD00BF055D000015570000644900208A
:1057100060490020042802D10846FFF7FDBDFFF7CD
:1057200091BF0000042810B50C460FD1086B07F09C
:1057300056FF01462046FFF731FF064B226B9B6860
:1057400020461A60BDE81040FFF7E6BDBDE81040F6
:10575000FFF778BF644900202DE9F8438A79334B7D
:105760000C32D3F808908C1899F8067022790C370F
:10577000D207064609EB070303D44FF0FF30BDE81C
:10578000F88394F80B80B8F1250FF6D8056A991CB8
:1057900015F0100F08BF023104F1120006221FF0AD
:1057A00093F80028E9D119F80730A07AC3F38013E1
:1057B000B3EBD01FE1D115F4405F0FD14FF440554A
:1057C000A77A07F00F00032814D1ED04D5D5336A6A
:1057D0009C07D2D5B8F10C0FD1D0CEE704F10C0163
:1057E000C0F3801011F051FE0028E7D1ED4305F41D
:1057F0004055E5E70528C0D1A904BED5356A05F0B6
:105800001403142B0DD1062206F14C0104F10C00F7
:105810001FF05AF80028B0D12B0A83EA9713DA0751
:10582000ABD4EB07A9D50520A9E700BF6449002048
:105830000B68C0F83E308B88A0F8423070470000FB
:10584000F7B50446FDF766FD1D4B009303F10133E8
:10585000019394F82A3002AA1344064613F8085C10
:1058600094F83C30DA0614D42946204606F028FA8B
:10587000E58CA38C00F5FA70ED1A40F27121E0601E
:1058800001FB05002061304603B0BDE8F040FDF7A4
:1058900045BD206B07F0A3FE94F83C300A309B070F
:1058A0004FEAC00705D0606B07F099FE00F50C7059
:1058B0000744691EE820484307FB0500D8E700BFFE
:1058C000000101022DE9F84304461746E2699DF8FC
:1058D00024800A9D9DF830C09DF838E09DF8400076
:1058E0009DF848900E469DF82010002A40F08980CF
:1058F000DA0679D403F00302032A08BF03F0FD039C
:1059000003F0F7039A0648BF03F0FC03BDF8342008
:10591000A4F844201EF0020F69D11EF0040F0CBF42
:105920000122032210F0020F84F85A2061D110F0F6
:10593000040F0CBF01220322206A84F85B2020F4AC
:10594000954020F07F00B9F1000F54D11A07206272
:1059500005D5226A062742F4804222623E46226A28
:10596000580722F4405222620CD41CF0010F1CBFD5
:1059700042F4805222621CF0020F1EBF226A42F4DF
:1059800000522262226A84F83C301343B1BB236286
:1059900004F0CEFDB4F858309DF84420A68460F39E
:1059A0000B03A4F85830C3F3072362F3071384F8FA
:1059B00059309DF82C3084F82A3094F83C30E78434
:1059C0005B070BD52B68E364AB88A4F85030B8F1C3
:1059D000000F03D0236A43F4807323622046FFF74D
:1059E0002FFF0020BDE8F883012086468AE70222C7
:1059F00098E70222A0E740F40060A7E743F40073B1
:105A0000C5E70120EEE7F7B50D46164601930446BB
:105A100028B901A807F004FD422003B0F0BDC36916
:105A20003BB1D31E012B04D901A807F0F9FC0C20CF
:105A3000F3E7236A03F01203022B05D125B901A86D
:105A400007F0EEFC1220E8E7019807F0C8FD236A92
:105A5000DB064CBFA0F11F01A0F1BF01002902DD50
:105A600001A807F0A5FE012D13D007D3022DDBD12D
:105A7000606D00F065F9054610B9D5E704F1300511
:105A8000FDF748FC0746032E0ED8DFE806F0051C9C
:105A9000051C04F13405F3E701994B796FF34103D9
:105AA0004B71284607F01DFE2046FFF7C9FEB4F8EB
:105AB00058305A1C62F30B033846A4F85830FDF7EF
:105AC0002DFC0020A9E7284607F0AAFC019807F062
:105AD00086FD10B901A807F0A3FC019B2B60E3E74A
:105AE000F8B51A4D1A4F002464262B79A34206DC20
:105AF000022007F0FDFBA86006F0D2F8F8BD286888
:105B000006FB04000023F0228260C0E90333022276
:105B100042613A68C361D27802764FF0082242624D
:105B2000072280F82A20132280F83C20026A03858D
:105B300042F013020262FF22C0E90C3380F83D20DC
:105B40008364FFF77DFE0134CFE700BF6449002086
:105B5000604900202DE9F04F8C79D0F838A0076A11
:105B60000C340C440023836394F807B02668054680
:105B700087B088465846218904F006FD2D4B1B68E6
:105B800007F010075B792B76064404F10C094FB33C
:105B900006F2E246A27A95F83DC004F11803C2F37A
:105BA0008010002F41D0C2F34012012194F905402A
:105BB000CDE902C2CDE90414CDE9009032460021BE
:105BC000504601F027FC3FB104F056FC0121284665
:105BD000FFF738FB10F09EFF404607B0BDE8F04FDE
:105BE00007F094BBABF1030BBBF1010FA27ADFF816
:105BF0004CB04B46DBF80810C2F3801228468CBF2D
:105C000006F6C41606F6A66606F0B4F9DBF8080038
:105C1000094B4FF0000BC0F800B0EB6104F09CFFA3
:105C2000297E584604F0FEFCB4E795F85B1001228B
:105C3000BCE700BF60490020C5BF000064490020E8
:105C40002DE9F34102AE002546F8045D4FF0FF3127
:105C50000446304604F066FB019949B12046FFF73F
:105C60007BFD032806D0052840D0304607F0D8FB3E
:105C7000012034E0236A1B0534D5019904F1480062
:105C800007F02FFD4FF400112046FFF787FA1B4D58
:105C9000606BAF6807F0A3FCBB790C330421FA5C9E
:105CA00002F04F0207EB030861F303020646FA54C1
:105CB000414608F102022046FFF756FC002EA86874
:105CC000636BA4BF063688F80160036004F044FFEC
:105CD000217E002004F0A6FC094BE361002002B005
:105CE000BDE8F081304607F09BFBD0E7019804F057
:105CF00099FB01992046FFF72DFFEFE7644900204B
:105D000025570000042810B50C4605D0052809D0F9
:105D1000BDE81040FFF796BC097E0120BDE81040A9
:105D200004F000BF0846FFF78BFF20B12046BDE816
:105D30001040FFF7F1BA10BD704770470020704760
:105D400000207047002070470020704770474FF0D8
:105D50000000704700207047704700207047002007
:105D600070477047024B02681A6002791A717047D7
:105D7000001A0020034B4FF0FF321A601F221A71E5
:105D8000704700BF001A00207047002070470000D5
:105D9000C308054AD35C00F0070043FA00F0C04393
:105DA00000F00100704700BF001A0020002070477B
:105DB00030B500221346DC1003F00705045D2C41CA
:105DC000E40702D501328A4204DA0133252BF2D1ED
:105DD000002030BD0120FCE710B4044A14680460C0
:105DE000127902715DF8044BFFF7E2BF001A002040
:105DF00070B50C461368C4F8013013796371002341
:105E00008AB011462370252B227806D1A0B16946AD
:105E1000A01D1EF068FD0AB070BDDD1003F007067E
:105E20004D5D3541ED0705D50AAD1544013205F844
:105E3000283C22700133E6E7002AECD0C31000F0C2
:105E40000705CB5C2B4113F0010F02BF0AAE90FB9C
:105E5000F2F302FB130304EB000509BF9B19A871C1
:105E600013F8283CAB7101302528E7D1D3E7022194
:105E7000FFF79EBF014488797047000082EA124212
:105E800010B494B2614091FAA1F109BA89B201EB60
:105E90000111214489B291FAA1F109BA89B201EB49
:105EA000011323449BB293FAA3F31BBA9BB203EBF7
:105EB000031323446340104A9BB2A2FB0312991AB6
:105EC00002EB5102520902EBC20102EB81029A1A63
:105ED00092B200EBD20102F0070449782141C907D0
:105EE0005DBF0478634300EB1343D0B258BF987989
:105EF0005DF8044B704700BF4D91CFBA012303FA00
:105F000001F1C94350E8003F0B4040E80032002A4D
:105F1000F8D1704750E8003F0B4340E80032002AB8
:105F2000F8D17047C94350E8003F0B4040E80032C9
:105F3000002AF8D17047000070B50F4B428E1B68E5
:105F4000048E1D795E79B0F88E10120392FBF4F284
:105F5000AC1B92FBF4F4D0F898204B1E12B1022235
:105F600093FBF2F31A0292FBF4F29319AB42A8BF2F
:105F70002B46037670BD00BF604900200123074A0D
:105F800003FA00F002F1140353E8003F034302F167
:105F9000140C4CE800310029F4D170479C490020D2
:105FA000F8B5124E056A327F022A0C4605F0080544
:105FB00006D91DB121B901242046F8BD0029FAD126
:105FC000B0F87A700DB904B17F0010F051FDB842FD
:105FD000F1DB766916F01C0606D1002DECD0002C02
:105FE000E9D00820FFF7CAFF0024E5E79C4900201C
:105FF00010B101F1A400704701F1C8007047EC3006
:106000007047006A70472030FFF784BF2030FFF7E9
:1060100089BF90F9730070470229C38E12D00329FB
:106020000AD0012906D1428E008E120192FBF0F0B7
:1060300003449BB218467047028E4FF47A4090FB9F
:10604000F2F0F5E7808E073303EB4003F1E770B51C
:10605000054628300C46164605F0B6FD6B6840F242
:10606000712101FB04342B6A01FB06F21B07A4EB30
:106070001021696045BF00EBC211D5F8900001EB1B
:10608000520100EB41004CBFC5F89000696070BD43
:10609000D0F8983013B15B795A0708D4D0F89C0037
:1060A00000B9704743795B0701D40068F8E7012025
:1060B000704780F872107047084B9A7E82420AD966
:1060C0001B684FF4967202FB0030036A13F0100F46
:1060D00008BF002070470020704700BF9C49002087
:1060E0000849094B0A68821A9010002A03FB00F045
:1060F00005DB8B7E8342D8BF4FF0FF3070474FF0F7
:10610000FF3070479C49002063C92F9610B50446A4
:106110002430FFF7FFFE2046FFF7E2FF012303FADA
:1061200000F0BDE81040FEF7E9BD000037B50023E0
:106130000193036A0446D80314D5D4F89830019328
:1061400004F19C0007F0AFF9C4F8980068B194F826
:106150007430013B84F874304FF4803104F1200036
:10616000FFF7E0FED4F898500DB92F4B9D6894F9D5
:106170007430012B0ADCD4F8A0303BB1236A190536
:1061800004D44FF480512046FFF7C0FFAA79216A5A
:10619000D4F89C000C320028AB5C61F38203C1F39D
:1061A000400161F3C30314BF0121002161F3041313
:1061B000AB5434D00320FFF7E1FE284604F0CCFCBA
:1061C000019BDBB15B7903F01403102B13D1B4F8FE
:1061D0008C300133A4F88C300420FEF797FF50B1C7
:1061E000114A537F0133DBB2042B537703D14FF0B5
:1061F0008060FEF783FD01A807F012F96B795A075A
:106200000BD5236A1B0108D50820FFF7B7FE4FF016
:10621000006104F12000FFF785FE03B030BD0321CB
:106220000248FFF76BFEC8E79C490020B0490020F8
:10623000074B5A69510609D5026A120706D51B6930
:10624000143B43604FF42053C0F89030704700BFB8
:106250009C49002070B5056A15F00805044611D068
:10626000B0F86830D0F894505D43D0F8903005F124
:10627000800203EB4203C0F890301B0A03F5487319
:106280002D0AC360268E731E40F271265E43FFF70F
:106290007CFD20B149F640439E4228BF1E46204661
:1062A0002661012110F01EFC228EB4F868305343A1
:1062B000626840F2712101FB03235D1B656020468B
:1062C00010F0E0FBBDE8704010F024BCF8B50446C7
:1062D0000F46E1B1458E038E554E2D0195FBF3F52A
:1062E00004F0CAF82046FFF7A3FFA18EB4F88E2071
:1062F000ABB25B1A9A4217DC7369F07F9B074CBF05
:1063000000210221FFF740FD73699B0712D4B4F806
:106310008E50002D70D1236A13F4807F0CBF3E2372
:10632000082384F8723008E0337F002BECD003217F
:10633000F07FE7E7A4F88E503D46236AD8055DD488
:106340003C4B1B685B792376002F60D0236A1907CA
:106350005DD5A28E002A58D013F4C02F55D1344BEE
:106360005B6913F00C0F50D19A074ED5D4F89C30CE
:10637000002B4AD1E18E204603F06CFB002841DD62
:10638000A38E98423EDC80B2A4F86800B4F868207E
:10639000B4F88E3094F86A00E18E9B1AA4F88E301F
:1063A00094F86B30114402FB0303252089B293FB60
:1063B000F0F200FB1233E18684F86A305DB32046C8
:1063C000FFF7C4FCE18E204602F0A3FB18B3204681
:1063D000FFF740FF0420FEF799FE38B3144B5A7FB5
:1063E00022B39A7F511C032A99771FD14FF0806006
:1063F000BDE8F840FEF782BC01259EE72046FFF786
:106400009BFDA1E7A08E0130BDE70120BCE7012381
:10641000A4F86830BAE720460221FFF777FE012191
:10642000204610F05FFB10F075FBD3E7F8BD00BF0E
:106430009C490020604900202DE9FF470DF110081C
:10644000002348F8083D04460221404603F06AFF55
:10645000029F37B901212046FFF738FF04B0BDE89D
:10646000F087BB796C4E0C331F4473693D7915F08E
:10647000010965D113F0100504D00720FFF77EFD58
:10648000002502E00420FFF779FD7369990640F1C9
:1064900098807069217E80F48070C0F3002004F041
:1064A000C1F82046FFF742FE4FF00009029803F0C2
:1064B000B9FFDDF808A073699AF806705A0607F16B
:1064C0000C0757440AD43B6833610620FFF756FD9A
:1064D0004FF4807104F12000FFF71CFD3B79DB07CE
:1064E0000ED57B7984F873302046FFF7F9FDE38EF3
:1064F000CDF800A082B204F58F710220FFF72AFCCC
:10650000002D00F085804FF0FF31404603F00AFF78
:10651000029B03939A790C321344DA7A002A5ED1F3
:1065200003A806F07DFFB9F1000F97D001212046A6
:10653000FFF7CCFE002D91D1404606F071FF8DE7AC
:1065400023F010037361BB7A9D0799D00120FFF7F8
:1065500015FDBB7AD8062BD50220FFF70FFD236A65
:10656000BA7A83F00203C2F38002C3F340039A4273
:1065700024D104F120054FF400312846FFF7D2FC66
:106580004FF48031FFF7C6FC236A83F002032362D5
:1065900000233377BA7A236AC2F3C00203F0010101
:1065A0008A427FF46DAF83F00103236201256CE71B
:1065B000022106F11400FFF7A1FCD0E7337F01337D
:1065C000E7E713F4C07F02D04FF001096EE7012125
:1065D0002046FFF7E5FC00283FF45BAFF4E79B7A29
:1065E00003F00303032B09D104F1200640213046B8
:1065F000FFF790FC4FF40031FFF78CFC039907483C
:106600008C6007F06EF84FF00050FEF777FB8AE7DA
:10661000B9F1000F8AD18FE79C490020A8490020DA
:1066200038B500F120054FF4803104462846104D5E
:10663000FFF778FC4021FFF775FC69698B060DD4E4
:1066400011F4C07105D020460121BDE83840FFF7A4
:106650003DBE2046FFF7A4FC0028F4D16869217EE6
:1066600080F48070C0F30020BDE8384004F05ABACE
:106670009C4900202DE9F341194DC18E04460023A9
:106680002B7720236B61236A1B0200F13C0021D58C
:10669000A26AFFF7F3FBE877E97F94F83C00FFF785
:1066A00085FBEE7F94F81D51D4E90A8704F080FA47
:1066B0002D0900904246394630462B4604F082F9B7
:1066C00004F5947204F58F71022002B0BDE8F04128
:1066D00004F052B994F86A10FFF7CCFBDBE700BF77
:1066E0009C49002010B50C46072836D8DFE800F09A
:1066F000043511331E192D270846FFF7BBFF20462E
:10670000FFF714FD227E61680120BDE8104004F00F
:1067100051B810F0C1FA84421FD1BDE8104003F017
:10672000ABBE0846BDE81040FFF786BE0846FFF73F
:1067300077FF05210948BDE81040FFF7DFBB4FF4A4
:10674000803104F12000FFF7EDFB01212046BDE878
:106750001040FFF7BBBD0021F8E710BDB049002095
:1067600010B50C46072831D8DFE800F00430122EAF
:10677000231A28280846FFF77DFF6168D4F8902087
:10678000237E01EB12221120BDE8104004F080B9F5
:1067900010F082FA844219D1BDE8104003F06CBEBB
:1067A0000846FFF749FE05210948BDE81040FFF7FC
:1067B000A5BB0846BDE81040FFF732BF01212046C7
:1067C000BDE81040FFF782BD0021F8E710BD00BF13
:1067D000B049002000EB8001C1EB0111890070B5C8
:1067E0000023044689B20122104D052006F0A8FCC2
:1067F0000520AC7606F0EAFC4FF4967606FB04F230
:10680000002128601EF093F8296800230A46013C05
:106810009C42104602F5967203DC00230360696017
:1068200070BD06FB03F001330A50F1E79C490020DC
:1068300038B5154CA568B5B9022006F059FDA06021
:1068400082790223C37102F10C032946C2F10202CC
:1068500018441EF06CF8A3689A79134401211A7B3E
:1068600061F301021A73094806F0DAFD1B23E3768F
:1068700011232376637E012262F3071363760023DC
:106880006377A37738BD00BF9C490020A84900204A
:1068900038B5144DFCF73EFD6C680CB123686B6095
:1068A000FCF73CFDE4B14FF49672002120461EF047
:1068B0003EF84FF4A473A4F87630A4F87830A4F826
:1068C0007A3041F61B33A4F87C301B2384F87E30E9
:1068D0007F2384F87330032363612B8BA4F81C316E
:1068E000204638BD9C49002010B5044603F0A6F9A7
:1068F00004F19C0006F094FD04F1A00006F090FD68
:1069000004F1980006F08CFDFCF704FD044B5A6876
:1069100022605C60FCF702FD0023236210BD00BF13
:106920009C490020036A0A4600F13C01C3F3C050B1
:10693000FFF75EBA2DE9F04F85B0FCF7EBFC474B53
:106940000DF11009DA6849F8082D0022DA60FCF729
:10695000E5FC029B13B905B0BDE8F08F484606F090
:10696000A2FD83798568039003F10C0404440A3383
:10697000A27A12F0200F14BF032202221344837163
:106980002B6A1A0401460FD5A37AE27A284643EA15
:10699000022200F039FF38B903A806F041FD3D217D
:1069A000284602F031FDD4E72A6AA07A039912F44E
:1069B000805800F0030313D0032BEDD18B790B44E7
:1069C0001B7B1E2BE8D8264A42FA03F3DB07E3D5EC
:1069D0004B7943F004034B71284603F011F8B8E7F4
:1069E000032BF5D04B7968F382034B7194F90520A2
:1069F00094F806A0019200F003030846009306F005
:106A0000EEFD039EB479063CE4B28346B471284699
:106A1000FFF766FB0C343719C0F30321B870F87820
:106A2000009B20F00F00084363F3051068F3871004
:106A3000F8705FFA8BFB019AA7F804B03346325521
:106A400087F801A05A796FF382025A711B68002BF4
:106A5000F8D1304601F0E6FE7BE700BF9C490020FC
:106A60007C2C0200014BD876704700BF9C49002067
:106A700000487047B449002010B50446084619B3D1
:106A8000218E40F271234B43A3F28A23B4F876108F
:106A90005B089942A8BF194603F086FD811F94F850
:106AA0007C0089B28142A8BF01461B290B46B8BFB2
:106AB0001B2394F81D0184F87E300631000903F091
:106AC00063FDA4F87A0010BD1B210B46F1E770B5F9
:106AD0004900058E044689B28D421FBF6668218633
:106AE00040F2712000FB056518BF00FB1150A18E1C
:106AF0001ABF606001250025914218BFA286628EF0
:106B000018BF01259A4218BF6386236A18BF012562
:106B10001B0712D4638E94F81D11228E204609099A
:106B20001B0193FBF2F3A4F88E30FFF7A5FF20467C
:106B30000421BDE87040FFF7E9BA218E04F1280076
:106B400005F042F8C4F89400002DE3D170BD38B5CB
:106B50000446BDF8100094F87C508D420BD1B4F877
:106B60007650954207D194F87D509D4203D1B4F8F8
:106B70007850854213D084F87C1094F81D11A4F845
:106B80007800A4F87620204684F87D300909FFF7C4
:106B900073FF20468021BDE83840FFF7B7BA38BD03
:106BA00038B50446154649B190F81D31B1EB131FB5
:106BB0001EBF61F3071380F81D31012594F81D11E4
:106BC00020460909FFF758FF35B120464FF4007100
:106BD000BDE83840FFF79ABA38BD38B5036A1B03E1
:106BE00004460D460CD44FF400212030FFF792F9F3
:106BF000C4F8885020464021BDE83840FFF786BAE7
:106C000038BDF8B51D46036A5B0204460F461646BA
:106C100011D44FF480012030FFF77CF984F88170A3
:106C2000A4F88260A4F8845020464FF40061BDE8C7
:106C3000F840FFF76BBAF8BDCB0704D54FF48021BD
:106C40002030FFF767B97047CB0704D54FF4802198
:106C50002030FFF767B970474FF000612030FFF731
:106C600059B900F58E70704770B50646FCF752FBB7
:106C70007468054603F05EFC201AB0F5FA7004D57E
:106C80002846BDE87040FCF749BB338EF28E40F2D7
:106C900071245C43B0FBF4F4A1B2521A96F86B3045
:106CA000F28696F86A20252001FB132292FBF0F36E
:106CB00000FB1323002BB8BF1B1886F86A30B6F808
:106CC0008E305B1AA6F88E3030460C4600210FF04D
:106CD00009FF338E72685C4340F2712303FB142476
:106CE000304674600FF0CEFE0FF014FFC8E72DE9B8
:106CF000F3470023ADF804304B79044658070D469E
:106D000063D413F0020F0CBF4FF001084FF00208DC
:106D10002846FFF71CF8064606F01F03002B236ADF
:106D200015BF012700274FF003094FF0020959044E
:106D30000CD59DF8043068F3010367F345138DF813
:106D40000430019A2946204600F02AFD284606F024
:106D500046FC49468246284606F0B8FB9DF80430BA
:106D6000AA798DF805A068F3010367F345130C3287
:106D70008DF80430BDF80430AB529DF80430A918EA
:106D80009A066B7948BF8E7043F002036B71FCF773
:106D9000C1FA06462046294650F89C7F06F0A1FC21
:106DA00094F87430013384F87430236A1B070FD5CC
:106DB000B4F86830012B02D92046FFF755FF304662
:106DC00002B0BDE8F047FCF7A9BA4FF003089FE70F
:106DD000656803F0AFFB80460FF05EFF8442EED1A2
:106DE000A5EB0805B5F57A7FE9DD1FB1D4F8983039
:106DF000002BE4D12046FFF799F9E0E72DE9F74FA2
:106E000004460D4681B1FCF785FA6B795F070646AB
:106E100027D543F002036B71D4F8A0302B60C4F87F
:106E2000A0503046FCF77AFADFF8A081002794F9E9
:106E30007430022B12DCD4F8A0307BB15979226A6D
:106E4000480702F4006212D59AB19A7913441B7B69
:106E50001E2B03D848FA03F3D9070AD403B0BDE8C0
:106E6000F08F294604F1A00006F03BFCD9E7002A88
:106E7000F4D1FCF74FFAD4F8A05001956E7916F0D2
:106E8000040681460AD02B68C4F8A0302F60FCF7B6
:106E900045FA29462046FFF72AFFC8E7EB79AA7989
:106EA0009B1AC3F14503012B12D8304606F020FA95
:106EB0000028D3D06B794279C3F3400363F34102D6
:106EC00042716B7966F341036B710560C4F8A000F1
:106ED00094F87E600DF1040BD4F8A050EB79AA79F8
:106EE0009B1AB3422BDC2A68C4F8A020F61A6B79EF
:106EF0006FF304136B71CBF800502F60D4F8A030FF
:106F0000AB462BB15B7913F0060F01D1002EE3DC09
:106F1000236A019E5A0449D533461868002842D195
:106F2000DB79C3F14503032B40DC06F0E1F90028CF
:106F30003BD1D4F8A0302B60C4F8A0600BE0012056
:106F400006F0D6F9824660B9D4F8A030CBF800300C
:106F5000019BC4F8A030484603B0BDE8F04FFCF7F1
:106F6000DDB9A97980790C310C303246294450447E
:106F70001DF0B9FC9AF80730F6B233448AF80730AE
:106F8000AB791E44AE716B799AF80520C3F34003C8
:106F900063F341028AF805206B796FF341036B714B
:106FA00000265546A3E70346B7E72860D4F8A0308B
:106FB00013B15B799B0703D5737943F010037371A9
:106FC0004846FCF7ABF9314664E700BF7C2C020071
:106FD00030B5436ADD0787B0044636D5FFF780F841
:106FE0000023049394F838300393638E0293A38EA6
:106FF0000193238E216A5B080093C1F3800204F1A0
:107000006C03C1F3C00180B201F037F918B9002553
:10701000284607B030BD04F1240528460121FEF7BB
:1070200081FF4FF40051FEF775FF236A13F0080F3C
:107030000CBF02200120FEF769F830B906F058F9BC
:10704000014610B1204602F07DFD636A980410D518
:107050002046FFF745F8216AC0B2C1F3C05101F0E4
:107060003EFA0028D3D04FF4005104F12400FEF77B
:1070700059FF636AD90409D500212046FFF7BEFEF7
:107080004FF4805104F12400FEF74CFF636A5A0567
:1070900011D52046FFF724F80023C2B2194694F810
:1070A000800001F0E3F90028B1D04FF4806104F1D1
:1070B0002400FEF737FF636A5B0710D52046FFF711
:1070C0000FF8218E638EA28E490880B201F0B8F8C5
:1070D00000289CD0042104F12400FEF723FF636AFA
:1070E0001D0709D5204601F0F3FD00288FD00821A7
:1070F00004F12400FEF716FF636AD80619D520466E
:10710000FEF7EEFF216A11F0807180B200F0C180BD
:10711000002101F02BF900283FF479AF4FF0807186
:1071200004F12000FEF7FEFE102104F12400FEF71A
:10713000F9FE636A590624D52046FEF7D1FF94F87C
:107140007220D4F8881080B201F0F6F800283FF4DD
:107150005EAF002584F87250402104F12400FEF750
:10716000E1FE4E4BDB7E1B2B0BD9D4F888309A0600
:1071700007D5284606F0BCF8014610B1204602F0BB
:107180002BFD636A1B0516D52046FEF7A9FF0025D7
:10719000B4F88430B4F8822094F88110009580B25D
:1071A00001F0A5F800283FF432AF4FF4006104F17C
:1071B0002400FEF7B7FE636A1D0616D52046FEF7CB
:1071C0008FFFB4F8785094F87D30B4F8762094F8B6
:1071D0007C10009580B201F0FDF800283FF417AF55
:1071E000802104F12400FEF79DFE636A980516D500
:1071F0002046FEF775FF94F81D1194F872200909D6
:1072000080B201F0AFFB00283FF401AF002384F807
:1072100072304FF4007104F12400FEF783FE636ABC
:10722000990612D52046FEF75BFF94F8721080B2E3
:1072300001F0B4F800283FF4EAAE002384F872307D
:10724000202104F12400FEF76DFE636ADA0508D5FB
:1072500004F124004FF48071FEF764FE204602F032
:1072600007FD636A9B0717D52046FEF739FF94F8A0
:10727000721080B201F062FA054600283FF4C7AEF2
:1072800004F124000221FEF74DFE2046FFF72CFBFF
:10729000BEE601F083F83EE70125B9E69C490020EF
:1072A00008B5022006F024F810B101F02FF90120F2
:1072B00008BD0000F8B50546FCF72CF81D4A002370
:1072C0001C4611464FF496779C46967E9E4213DCF0
:1072D0006FF0010605EB4403664305EB84054FF4AC
:1072E000967E4FF0000CAB4215D100234B778B7785
:1072F000FCF714F8E0B2F8BD166807FB0366366ABF
:10730000F60641BF05EB440605F8143086F801C0C7
:1073100001340133D9E79A5D0F680EFB0272023324
:10732000B2F88C7003F8027C03F801CCA2F88CC090
:10733000D9E700BF9C49002010B54FF4C051044666
:107340002030FEF7EFFD20460021BDE81040FFF79A
:1073500055BDD0F8882022F4DA6222F0020201231F
:107360005204520C03FA01F10A4214BF18460020DD
:1073700070470000F7B5FEF708FD002814BF0F2185
:1073800002216846FEF728FD124E00254FF496773D
:10739000B37EAB4201DC03B0F0BD346807FB0544AB
:1073A000236A03F01803102B12D10522694604F159
:1073B0003D001DF089FA58B1D4F8A4309B0507D4DC
:1073C000012005F095FF014610B1204602F0B4FB04
:1073D0000135DDE79C490020884210B517D8052803
:1073E00015D9B1F5486F12D8B3F5FA7F0FD2A2F1D3
:1073F0000A0080B240F67644A04208D803FB01118F
:10740000D200B2EB410F2CBF0120002010BD0020A4
:10741000FCE700002DE9F74F1D4600929DF944203E
:107420009DF8383001922A4680F880309DF83C70F3
:1074300052F8103B83620446894600F13C01381C37
:1074400018BF01200C9E9DF834A09DF84080FEF7E7
:10745000CFFC2B4633F8042FA2859B7884F82E307E
:107460003368E366B388A4F8703004F12006BAF1FB
:10747000000F03D004213046FEF74CFD27B14FF436
:1074800000013046FEF746FD30461021FEF742FD72
:107490004FF48031FEF73EFDB9F1000F40F201419B
:1074A000204618BF0121FEF731FE6F89B5F80EA006
:1074B000B5F80CB01FFA8AF21FFA8BF3394638463A
:1074C000FFF78AFF48B93E230221204684F8723034
:1074D00003B0BDE8F04FFEF719BE6B7DA4F834B0E1
:1074E000C3F3040384F86B306A7D84F86A300523A3
:1074F000A4F88E309DF8043084F8733047F62D13CD
:10750000C2F34212C4F88830236A84F8382000227B
:107510007F00E286DB054FF001022786A4F832A047
:10752000A4F8682042D4384B1B685B792376B9F104
:10753000000F40F2E51308BF4FF4BE73A360298922
:10754000009B4FEA410140F2712202FB013363606C
:1075500030D02E49E161E97949004A4303EB5203F7
:1075600063604FF44873B8F1010FE3600AD094F8F8
:107570001D3168F3071384F81D3108F00F01204610
:10758000FFF77AFA6D896B1E40F271255D43FEF7B5
:10759000FCFB20B149F640439D4228BF1D462046D2
:1075A000256103B0BDE8F04F0FF06CBA2046FEF73E
:1075B000C3FCBCE704F128070231384604F004FBA1
:1075C0006268134BE36100F5A059A2EB19226260D7
:1075D00030460821FEF79EFC4FF40031FEF79AFC7E
:1075E000EB790C4A218E5B0002FB03935B00C4F82D
:1075F0009030384604F0E8FAD4F89030C4F894009B
:107600001B0A03F54873AEE760490020E5660000F9
:10761000616700008038010003F0E4BB70B58AB0F8
:107620000D4610321030002302AE06AC12F8011DD8
:10763000995510F8011D19550133102BF6D10094FE
:10764000234680223146012016F044FC0028F6D162
:107650000AAB691E13F8012D01F8012FA342F9D1DD
:107660000AB070BD70B515460E461C46FEF7C7FC45
:107670002B684EB103606B6843602368C0F8253007
:107680002368C0F8153070BD83606B68C3602368E1
:10769000C0F829302368C0F81930F4E738B505463A
:1076A000FEF7ADFC4FF4205104462846FEF7ABFC34
:1076B000002323612375236284F824302846FEF7D3
:1076C000A0FC802310F0080F14BF237584F8243029
:1076D00038BD10B50446FFF72FFE20461021BDE847
:1076E0001040FEF713BD10B54FF460410446FEF79D
:1076F0008DFC2046BDE81040FFF71EBEF0B585B0FA
:107700000F460546FEF77BFC0446FBF703FE4FF4ED
:10771000404106462846FEF776FC4FF400512846C5
:10772000FEF774FC20463A466946FFF777FF0F34B0
:1077300000231DF8032004F801290133102BF8D190
:107740003046FBF7EBFD05B0F0BD0000F8B5094F82
:10775000044600260CB90748F8BDA179E5796D1AF1
:107760000C312144B8192A461DF0BDF82E44246876
:10777000F0E700BF081A0020F8B5084F04460026BD
:1077800004B9F8BDA079E5792D1A0C30B919204457
:107790002A461DF0A8F82E442468F1E7081A0020B4
:1077A000F0B587B00D46ADF80C20FEF728FC044676
:1077B000284605F014FF074620B32B461B68002B14
:1077C000FCD12846FFF7C2FF9DF80C3005AE03F050
:1077D0002303224639460093019604F1200316F054
:1077E0002DFA2846FFF7C8FF04223146284605F047
:1077F00082FF236A0133236223B994F824300133D2
:1078000084F8243007B0F0BD30B585B00391ADF8F1
:107810000820FEF7F4FB0446039805F0E0FE051F80
:10782000002D02DC002005B030BD0398FFF78EFF6D
:10783000431901939DF8083003F023030093224677
:1078400004F11003294616F099FA0028EAD104AD94
:1078500055F8040DFFF790FF0421284605F0A8FF16
:1078600023690133236113B9237D0133237501207B
:10787000D9E730B5DD1D043383734379C571012425
:107880000E2543F00603847145734371C47301826E
:10789000827430BD01238371D31CC3713E234373B3
:1078A0004379827343F006034371C173704740F21A
:1078B0000173C3800F234373042383734379A0F8B8
:1078C000111043F00603437101230374C273704720
:1078D000054A9268824205D0427942F0060242711E
:1078E000FDF790BA704700BFBC49002010B50023D7
:1078F000FFF7BFFFBDE81040FFF7EABF10B50B4C24
:10790000204605F08DFD201D05F08AFD04F10800DC
:1079100005F086FD00230220E36005F0E9FC6060CD
:10792000022005F0E5FCA06010BD00BFBC490020AE
:10793000014B5868704700BFBC490020014B986854
:10794000704700BFBC49002010B5064CE0604FF006
:107950000040FDF7D3F9E3681BB1E36898470023C3
:10796000E36010BDBC49002038B5437943F00403FF
:1079700043710446FBF7CEFC21460546054805F059
:10798000B0FE4FF00040FDF7B9F92846BDE8384099
:10799000FBF7C4BCBC49002038B582794379024466
:1079A00003F0FB03527B12F0300F0CBF01220022C8
:1079B00062F3410343710446FBF7ACFC21460546E4
:1079C000054805F08EFE4FF00040FDF797F9284678
:1079D000BDE83840FBF7A2BCBC490020F8B583796C
:1079E0000C3303440446B3F803005F79FEF764FBED
:1079F0000546A0B1FBF78EFC39460646284601F045
:107A0000C3FC85B23046FBF789FCEAB2204640F25F
:107A10000641FFF74CFFBDE8F840FFF759BF0225CC
:107A2000F3E78379034401229989FFF75FBF10B51B
:107A3000044602F095FE2046002240F60341BDE8D0
:107A40001040FFF753BF000010B50623002241F29B
:107A50000901FFF70EFFC379054A03441168C3F813
:107A6000061092885A81BDE81040FFF731BF00BF71
:107A70004C49002038B583790C330344DD1CDA7996
:107A800002F01F020446DA712846FEF7F0F970B1E1
:107A90002846FEF767F9FFF76DFC04F001F90022B4
:107AA000204642F21401BDE83840FFF71FBF122202
:107AB000F6E710B583790C3303440446B3F9051097
:107AC000B3F9030003F01CF92046002242F24D01F5
:107AD000BDE81040FFF70ABF70B583790344044640
:107AE0000220B3F80F6005F003FC054648B90722F1
:107AF00042F213012046FFF7DAFEBDE87040FFF7BF
:107B0000E7BE3046FEF7D8FA48B1214602F07EF8CB
:107B1000024642F219012846FFF7C9FEEDE720466A
:107B200005F0F4FB0222F4E738B5837903440446F8
:107B3000B3F80F50A8B2FEF7BFFA80B1002101F0F0
:107B4000EAFB02460223204642F21B01FFF791FEA8
:107B5000A37923445D82BDE83840FFF7B9BE022215
:107B6000F0E770B585790C3505440446B5F8036037
:107B70003046FEF7A1FAA0B1691D01F0CCFB024628
:107B80000223204642F21A01FFF773FEE3792344F1
:107B90009E72E3792344360ADE72BDE87040FFF737
:107BA00097BE0222ECE738B584790C3404440546CC
:107BB000B4F80300FEF780FA58B1D4F80510FFF7C7
:107BC0003BF8002228464FF60541BDE83840FFF754
:107BD0008DBE0222F6E738B584790C34044405469C
:107BE000B4F80300FEF768FA58B1D4F80510FFF7AF
:107BF0002BF8002228464FF60641BDE83840FFF733
:107C000075BE0222F6E738B584790C340444054683
:107C1000D4F8030008B1FDF761FAD4F8070008B101
:107C2000FDF768FAD4F80B00FDF770FA0423044658
:107C3000002228464FF61141FFF71BFEAB792B447B
:107C4000C3F81240BDE83840FFF742BE2DE9F041CD
:107C50008379034400224FF6124193F80F800823E2
:107C60000546FFF706FE84790C34044402F0F6FC66
:107C70000646FBF74FFB3388E38073882381B38884
:107C80006381F388A3810746B8F1000F01D002F0A9
:107C9000E9FC3846FBF742FB2846BDE8F041FFF718
:107CA00017BE10B5012311224FF60841FFF7E1FD81
:107CB000C37903440022DA72BDE81040FFF708BE22
:107CC00013B581790C31014400230193CB78013B3A
:107CD0000446062B3CD8DFE803F0041620242D3B95
:107CE00036004879003018BF012002F0F7FA00286A
:107CF00014BF002212224FF60741204602B0BDE811
:107D00001040FFF7F3BD134BB1F805201B685A7202
:107D1000B1F807209A720022EDE7487903F018FFC6
:107D2000F9E70A7901A805311CF0DDFD0198FDF79E
:107D3000D5F9F0E70A7901A805311CF0D4FD0198C6
:107D4000FDF7D8F9E7E7034B4A791B689A73E2E736
:107D50001222D0E76049002070B50546867903F00D
:107D6000DDF938B10C22284642F20501BDE8704029
:107D7000FFF7BCBD03F0F2F904460028F2D1A819C0
:107D80000F30FDF7D3F92246EDE700002DE9F0436F
:107D9000404D6C68A3790C331C448FB00121E0780E
:107DA000FDF7D8F901228DF83520022200238DF845
:107DB000362004228DF834308DF83720074600280D
:107DC00062D0E27994F8068094F8099048EA022893
:107DD000A27A49EA0229A288D20653D4FDF7D5FF38
:107DE00002F0E6FE94F9163003EB8302B0EB420F8B
:107DF000C8BF1346E27E0646C8BF5E00003218BF09
:107E00000122A3880A92A27E0992627E0EA90A44E8
:107E1000DBB212F8042C0892227E0792E27D0A441B
:107E2000384612F8042C0692B2B20592627D049292
:107E3000227B039204F10F020292A27B0192627BE9
:107E4000009241464A46FDF73DFD002814BF0C2430
:107E500000240123224642F23601A868FFF709FDFB
:107E6000B3B2002ECCBF0533053B1BB27CB90A224E
:107E700093FBF2F3DBB2AA68D1790A44D3720FB054
:107E8000BDE8F0831846ABE706460724E1E7002388
:107E9000F1E700BFBC49002073B584790C34044479
:107EA00005466679B4F80920E378B4F80710A0799C
:107EB00001962479009403F0F1F800280CBF0C22FD
:107EC000002242F24101284602B0BDE87040FFF7AF
:107ED0000DBD73B584790C3404440546E078E2881E
:107EE000A188237A647A10F0800F14BF042601263B
:107EF000CDE9004603F0D2F800280CBF0C22002286
:107F000042F20B01284602B0BDE87040FFF7EEBC1C
:107F100010B582790C32024404461179D078B2F857
:107F20000730B2F80520003118BF0121003018BF1A
:107F3000012003F01BF92046002242F24201BDE875
:107F40001040FFF7D3BCF8B5837903440446B3F877
:107F50000F00FEF7B1F8064648B9022242F21301BB
:107F60002046FFF7A4FCBDE8F840FFF7B1BC0220B3
:107F700005F0BEF9054608B90722EFE7A3790333F8
:107F8000A371FBF7C7F921460746304601F0BCFD57
:107F900004463846FBF7C2F9224642F2130128464E
:107FA000FFF785FCDFE738B50546FBF7B3F9044674
:107FB00003F0B4F8002808BF0C22284618BF00229E
:107FC00042F20E01FFF792FC03F0B0F82046BDE844
:107FD0003840FBF7A3B930B587B004468579FEF782
:107FE00057FC014648B9072242F20D012046FFF72F
:107FF0005EFCFFF76DFC07B030BD05F10C032344B8
:1080000000228DF8042001228DF81620DA798DF8EF
:1080100005201A7A8DF806201A4652F8090FCDF875
:1080200007009288ADF80B20DA7B8DF80D20587C84
:108030001A7C42EA0022ADF80E20D87C9A7C42EAF3
:108040000022ADF81020587D1A7D42EA0022ADF8DA
:1080500012209A7DDB7D01A842EA0323ADF814309B
:1080600003F0C6FC0246BFE730B587B00446857909
:10807000FEF70EFC014648B9072242F20D012046E8
:10808000FFF715FCFFF724FC07B030BD05F10C032A
:10809000234400228DF804201A7B8DF81620DA780C
:1080A0008DF805205A798DF806201A4652F8060FE9
:1080B000CDF807009288ADF80B201A798DF80D20C5
:1080C000987C5A7C42EA0022ADF80E20187DDA7CBA
:1080D00042EA0022ADF81020987D5A7D42EA002243
:1080E000ADF81220DA7D1B7E01A842EA0323ADF829
:1080F000143003F07DFC42F243010246BFE710B5A5
:10810000837903440446B3F80F00C0B2FEF7AAFC1B
:10811000002320461A4642F22401FFF7AAFBBDE8DD
:108120001040FFF7D5BBF8B5837903440446B3F894
:108130000F60B0B2FDF7C0FF0746B8B1012005F0EF
:10814000D7F80546A0B12146384601F045FD2C463A
:1081500002460223204642F22201FFF78AFBA3795E
:1081600023445E82BDE8F840FFF7B2BB0222F0E78D
:108170000223072242F22201FFF77BFB8379FFDE15
:1081800038B5837903440446B3F80F00FDF794FF34
:108190000546012005F0ACF8014668B175B12846E6
:1081A00001F0D0FC0246204642F21601FFF77FFBA9
:1081B000BDE83840FFF78CBB0722F4E70222F2E764
:1081C00038B5837903440446B3F80F00FDF774FF14
:1081D0000546012005F08CF8014668B175B12846C6
:1081E00001F0D6FC0246204640F21D41FFF75FFB3E
:1081F000BDE83840FFF76CBB0722F4E70222F2E744
:1082000070B5837903440446B3F80F60B0B2FDF74C
:1082100053FF90B1FDF7FDFE002245B20323204637
:1082200041F20541FFF725FBA3790C332344DE809F
:108230001D72BDE87040FFF74BBB7F250222EDE7C2
:108240002DE9F041804602200F4616461D4605F0F6
:108250004FF880B10A220321FFF71CFB83790C330E
:1082600003440022DA70A3F80480DF801E815D8160
:10827000FFF72EFB0120BDE8F0812DE9F04180469B
:1082800002200F4615461E4605F032F868B31F223D
:108290000A21FFF7FFFA83790C3303440022C3F865
:1082A0000E205A825A611A83391C9DF82820DA70F0
:1082B00018BF01212A1C18BF0122A3F8048099715C
:1082C000DA7132689A60B2889A81BDF818205A83B0
:1082D000BDF81C209A83BDF82020DA839DF8242065
:1082E00083F82020FFF7F4FA0120BDE8F0812DE9A2
:1082F000F84381460220884617461E4604F0F8FFE0
:10830000C0B140F601334579C3800C234373082381
:10831000837345F006059DF820304571A0F8109054
:1083200080F81280A0F81370A0F81560C373FFF7EF
:10833000CFFA0120BDE8F883F8B5074602200E46C3
:10834000154604F0D5FF80B10C220421FFF7A2FAF4
:1083500083790C33034400229F80C3F80A20C3F8BA
:108360000660DD70FFF7B4FA0120F8BD38B50546A8
:1083700002200C4604F0BCFF78B140F20162C280DA
:1083800030224273032282734279058242F0060250
:108390004271C473FFF79CFA012038BD38B5054619
:1083A00002200C4604F0A4FF98B140F20172C28092
:1083B00008224273042282734279058242F0060247
:1083C0004271B4FA84F252098274C473FFF780FADE
:1083D000012038BD2DE9F041804602200F461646A7
:1083E0001D4604F085FFA8B10B220721FFF752FAC2
:1083F0008379BDF818200C330344A3F80380A3F855
:108400000570A3F80760A3F80950A3F80B20FFF745
:108410005FFA0120BDE8F081F8B5074602200E465C
:10842000154604F065FF98B10D220521FFF732FAD9
:1084300083790C330344A3F80370A3F80D602A6812
:10844000C3F805206A68C3F80920FFF741FA012044
:10845000F8BD10B5022004F04BFF30B1012211210C
:10846000FFF718FAFFF734FA012010BDFE282DE9B6
:10847000F0410546884617461E4614D0022004F0F7
:1084800037FF88B106221221FFF704FA83790C33F3
:10849000034412229A7083F803801D71A3F80570BB
:1084A000DE71FFF715FA0120BDE8F081F8B50F463F
:1084B0001646132109221D46FFF7ECF982790C328A
:1084C00002441323D770167193702B68C2F80530DD
:1084D000AB88A2F80930BDE8F840FFF7F9B970B5EC
:1084E000064602200D4604F003FF70B10422142159
:1084F000FFF7D0F983790C33034414229A70A3F860
:1085000003605D71FFF7E4F9012070BD4FF4007363
:1085100010B5C3801323044603730F30FEF7CAFE61
:10852000A0738000E3790130C0B260731844E07139
:108530002046BDE81040FFF7CBB910B5837903445E
:1085400042F21A029B899342044600F0CA8056D830
:1085500042F20B02934200F0AC802DD840F6034269
:10856000934200F09A8015D840F20642934200F000
:10857000908040F21D42934200F0938000212046FB
:10858000FDF7EDFB002840F0D8802046BDE8104004
:10859000FFF747BA41F20542934200F0AA8042F247
:1085A0000502934200F0818041F209029342E5D135
:1085B000BDE81040FFF748BA42F21302934200F0C0
:1085C00088800BD842F20D0293427AD042F20E021A
:1085D0009342D3D1BDE81040FFF7E5BC42F216024A
:1085E000934200F08A8042F21902934275D042F21F
:1085F00014029342C2D1BDE81040FFF73BBA42F2E9
:108600004D02934200F0818020D842F2240293422E
:1086100077D00BD842F21B02934266D042F222027C
:108620009342ABD1BDE81040FFF77DBD42F242025C
:10863000934242D042F24302934246D042F2410278
:1086400093429BD1BDE81040FFF726BC4FF607428E
:10865000934266D00CD84FF60542934259D05CD86D
:108660004FF60342934289D1BDE81040FFF74EBF59
:108670004FF61142934258D04FF61242934258D0CF
:108680004FF6084293427FF479AFBDE81040FFF700
:1086900008BBBDE81040FFF7A1B9BDE81040FFF7E7
:1086A000C6B9BDE81040FFF78BBDBDE81040FFF72D
:1086B00053BBBDE81040FFF70CBCBDE81040FFF70E
:1086C00027BCBDE81040FFF786BCBDE81040FFF7AF
:1086D000CBBCBDE81040FFF736BCBDE81040FFF74B
:1086E000FBB9BDE81040FFF73CBABDE81040FFF70A
:1086F0001BBABDE81040FFF783BDBDE81040FFF78F
:108700003FBDBDE81040FFF7FABCBDE81040FFF7E1
:10871000D0B9BDE81040FFF746BABDE81040FFF7FA
:108720005ABABDE81040FFF7CBBABDE81040FFF7DA
:108730006ABABDE81040FFF789BA10BD38B50546E2
:1087400002200C4604F0D4FD88B140F20172C280D0
:1087500005224273042282734279058242F00602A6
:10876000427100228474C273FFF7B2F8012038BD51
:1087700010B5044604F033FFA3790C33E218C0B2FD
:108780003E21E154831E53701C380D23D076937024
:108790002046BDE81040FFF79BB813B583790190E0
:1087A0000C33C418C05CFDF787FC20B901A804F0A5
:1087B00037FE02B010BD6378019913F0300F8B794A
:1087C00003F104038B714B790CBF0122002262F389
:1087D00041034B71FEF712FBEBE7000038B5104C7C
:1087E000E3681BB1E36898470023E3602368B3B1F3
:1087F0000B4804F058FE054688B123681BB14FF0C2
:108800000040FCF77BFA6B795B07284603D5BDE88F
:108810003840FFF792BEBDE83840FFF7BEBF38BD15
:10882000BC490020FCF70ABB70B50E4D6A6893790D
:10883000166813440024D87B1460A0F1FE0359424B
:108840005941FCF787FC334621460322FDF7DBF84C
:108850002346024642F23701A868BDE87040FFF7A0
:1088600008B800BFBC49002070B50E4C626893790F
:10887000166813440025D87B1560A0F1FE03594209
:108880005941FCF767FC334603220121FDF7BBF891
:108890002B46024642F23801A068BDE87040FEF760
:1088A000E8BF00BFBC4900202DE9F0471D4D6C68B2
:1088B000A3790C331C4494F8039094F80480B9F124
:1088C000010F0CD00934002646450DDB0022A868B4
:1088D000002342F23901BDE8F047FEF7CABFB8F104
:1088E000000FEFD11222F2E714F8040C14F8022C56
:1088F00014F8037C14F801ACA0F1FE03594259416D
:1089000047EA0227FCF726FC40B153463A4649465F
:10891000FCF7BEFD043418B10136D5E74222D6E794
:108920000722D4E7BC49002070B50C4D6C68A379D0
:108930000C331C440021E078FCF70CFC58B1211DDD
:10894000FCF776FF0022A868002342F23501BDE85B
:108950007040FEF78EBF4222F5E700BFBC49002001
:1089600070470000F8B5074601200D46164604F092
:10897000BFFC0446C0B106220C21FEF78BFF691E26
:10898000A379C9B2032998BF084A03F10C03234411
:1089900098BF525C9F8088BF00222046DE70DA714B
:1089A0009A71FEF795FF0120F8BD00BF444C02000C
:1089B000F8B5FEF7BDFF83791844B0F80F50A8B2A0
:1089C000FDF77AFB0446D8B1FEF74BF94378C3F3C1
:1089D0000313013BDBB2032B14D80C4AD45C0027F1
:1089E000FEF7ACFF064604233A4642F23001FEF79A
:1089F00040FFB0790C303044C58004724472F8BD39
:108A00000227EDE700242746EAE700BF444C0200B6
:108A100010B5FEF78DFF84790C340444FEF728F876
:108A2000E278037812F0010F0CBF2179072161F37E
:108A30000713037012F0020F08BF6279037818BFA2
:108A4000072262F303030370FEF778FF00231A4640
:108A500042F23101BDE81040FEF70BBF38B5FEF71A
:108A600067FF83790C33C418B4F80300FDF724FBC7
:108A7000054600282FD06379A27943BBE37993425E
:108A80002BD1072B29D82846FEF7EBF86379DA07B4
:108A90005FBF0278A17961F3071202709B075FBF85
:108AA000E279037862F303030370227A437862F376
:108AB00003034370284601F061FA0446FEF73EFFC7
:108AC000224642F23201BDE83840FEF7F0BE072AE6
:108AD00003D8E379D5E70224F0E71124EEE700207C
:108AE000704708B5FDF78DFAC0F3C00008BD08B5A2
:108AF000FDF787FAC0F3801008BD012908B503D03F
:108B0000BDE80840FDF7C4BA2221FDF7D2FA0020E3
:108B100008BDF8B506460F4600250124314685F00C
:108B20000100FDF765FA83684BB1028ABA420BD1A6
:108B30000022012130469847002808BF00240DB1CB
:108B40002046F8BD0125E9E70268D205F7D50022E5
:108B50001146EFE710B4541C8A792244CA714A794D
:108B60005DF8044B42F004024A71FEF747B938B58C
:108B70000C4603238B714FF400710546FDF743FA51
:108B8000A2790C32A3180C21A1544FF0FF329A7035
:108B90000222DA7009225A7001221A7100225A71D7
:108BA000214628460522BDE83840FFF7D3BF70B5FF
:108BB0008B790B440C46D3F80D5029460646FEF738
:108BC0000CF80323A37105F02D050923E37345F485
:108BD000F2450023256123756375A375E37521466E
:108BE00030460822BDE87040FFF7B4BF2DE9F843D6
:108BF0008D790C3507460C46904699464E19FDF77F
:108C000000FA10F4002003D002213846FEF7A1FB41
:108C10004FF0886343FA09F3DB0700D460B11123F6
:108C20006355022286F8019086F802802146384674
:108C3000BDE8F843FFF78EBF0D236355012286F888
:108C40000180F3E7F0B51C4B8BB00546019103AAF8
:108C500003F1180618685968144603C40833B34270
:108C60002246F7D1186820602846FDF7CAF9830626
:108C700002D401990C682CB101A804F0D1FB0020AA
:108C80000BB0F0BD8F7907F10C000E180A5C1B2A9F
:108C900007D907230B54727028460122FFF75AFFA9
:108CA000EDE7CB79DB1B0AAF1744013B17F81C7CBF
:108CB000BB42EED10120E3E7484C020040F203330F
:108CC000C380437943F00403437100F80F1F7047DA
:108CD00038B5014605460020FDF78AF904462846C6
:108CE000FDF7FEF904F11202618B80B2BDE8384055
:108CF000FFF792BBF8B515461F469DF81860FDF7C3
:108D000077F90446FAF706FB012E25D154E8003F17
:108D100043F4807344E80032002AF7D12DB354E8BD
:108D2000003F43F4007344E80032002AF7D154E8CE
:108D3000001F21F0FF0144E80013002BF7D154E895
:108D4000001F314344E80013002BF8D1A5602782AF
:108D5000BDE8F840FAF7E2BA54E8003F23F4807324
:108D600044E80032002AF7D1D8E754E8001F21F484
:108D7000007144E80013002BF7D1D8E72DE9F74341
:108D8000064602200F4604F0B3FA0446002850D0ED
:108D9000BB790C333B4402219D88B3F80690B3F8AD
:108DA000088040F20333C380437943F004034371E6
:108DB0000023C3733046FDF72FF9A4F81350A4F82D
:108DC0001900A4F81590A4F8178001F0B1FB013543
:108DD00090FBF5F303FB150502232374A4F811504F
:108DE00004F10C0307F10C0204F1200153F8040B09
:108DF00042F8040B8B42F9D1198811809B7893704B
:108E0000A379BB7131460120FDF7F2F81022C7604B
:108E1000B4F8193000923146074A0120FFF76AFF83
:108E200030460B222146FFF795FE002003B0BDE837
:108E3000F0830720FAE700BFFB9000002DE9F34123
:108E40000C46054601460120FDF7D2F840F20333F7
:108E5000E3806379012743F0040304F110068046A0
:108E60006371E77302213046FCF7B6FF2369C8F847
:108E70001230237D88F8163002212846FDF7CCF801
:108E800021460646A4F8150007222846FFF762FE91
:108E90002023009338463346034A2946FFF72AFF2A
:108EA000002002B0BDE8F081F991000073B50C46D6
:108EB000064601460120FDF79BF8036843F48063F2
:108EC00003603046FFF70DFE40F20333E380637921
:108ED00043F00403002863714FF02D034FF00005A9
:108EE00014BF0E220822237479236374E27321468F
:108EF0000822304625756575A575E575A574E57478
:108F0000FFF728FE03213046FDF786F8009503465B
:108F1000034A31460120FFF7EDFE284602B070BD3E
:108F20007B92000037B50546FFF721FE0321284656
:108F3000FDF772F8002403460094044A29460120F4
:108F4000FFF7D8FE204603B030BD00BFA19200005D
:108F500040F2033373B5CB804B7943F004034B717C
:108F600014230C46CB730B210646FEF7F2F90025BD
:108F700044F2902340F64801A84214BF1846084620
:108F80006FF00402227460822275E082082221467A
:108F9000304665746575FFF7DDFD03213046FDF74A
:108FA0003BF830230093044A034631460120FFF783
:108FB000A1FE284602B070BD779200002DE9F04373
:108FC00087B006460D46FDF71CF800F44040B0F5AA
:108FD000404F06D1022004F08BF9044610B9072057
:108FE00052E0002431460120FDF702F8AB790C3342
:108FF0002B4403F10F02074600F112011F3352F810
:10900000040B41F8040B9A42F9D1AB791A1DD2B284
:10901000AA710E330C32EB710C210323AB540DEB10
:10902000010005EB020801F0EDFE0DF10C0CBCE8AF
:10903000030008F10B09059BC8F80B00C9F80410E0
:10904000C8F813301CB340F20333E380637943F074
:10905000040363710A2321463046E3730022FFF7BD
:1090600079FDFD604FF400613046FCF7CCFF032131
:109070003046FCF7D1FF00240346009401200E4A3D
:109080003146FFF737FE204607B0BDE8F0832046A3
:1090900004F03CF908F113034A4630460121FEF77B
:1090A000E1FA304616222946FFF754FDFC603046AF
:1090B000FEF7F4FADBE700BFA592000073B50646A1
:1090C0000D46FCF795FF0023044600931A462946F7
:1090D0003046FFF70FFE76B1636863B14FF48071DD
:1090E0002846FDF713F854E8003F43F4007344E8C2
:1090F0000032002AF7D102B070BDF8B50C46074621
:10910000FFF7EFFC80F00100C6B239463046FCF7AD
:109110006FFF012C0546C06803D0022C1CD0012033
:10912000F8BD84790C34044438462389E288A18848
:10913000FDF7CDFC61886278490089B2520038465B
:10914000FCF785FFE86804F0E1F80023EB6039469E
:109150003046FFF7B3FFE2E704F0D8F80023EB60F6
:10916000DDE7000073B50C4605461646FFF7B9FC6F
:1091700080F001002946C0B2FCF73AFF012C07D06D
:1091800032462146284602B0BDE87040FFF7B5BF21
:10919000C3689A7913441022DB8A00922946034A55
:1091A0000020FFF7A7FD204602B070BDFB90000035
:1091B00070B50E46054601460020FCF719FF012E4A
:1091C000044603D0022E11D0012070BDC1688B79F6
:1091D00019440D312846FDF7A5FBE06804F096F828
:1091E0000020E0602946FFF769FFEDE7C06804F062
:1091F0008DF80023E360E7E738B50D4604460146E5
:109200000120FCF7F5FE012D08D100F112012046E6
:10921000FDF788FB21462846FFF750FF012038BDA7
:1092200038B505460C46FCF7E3FE83684BB10221D6
:1092300020460022984721462846BDE83840FFF7DF
:109240003DBF38BD012938B505460C4605D002D3CF
:10925000CC1E012C0AD9012007E02221FCF729FFAE
:1092600020462946FFF7DCFF002038BD01460120DB
:10927000FFF7D6FFEFE7FFF7E5BF38B5CB1E012BB1
:1092800004460D4606D81A21FCF713FF402120465C
:10929000FCF73CFF29462046BDE83840FFF7D2BF27
:1092A000FFF7D0BF2DE9F0410F4604469046FFF787
:1092B00018FC80F00100C5B221462846FCF798FE54
:1092C000012F064603D0032F0FD001200BE02046CC
:1092D000FEF709FA22212046FCF7EBFE284621463C
:1092E000FFF79EFF0020BDE8F081C06804F00EF893
:1092F0000023F3602046FEF7F6F95FFA88F1204676
:10930000FCF7D7FE20462021FCF700FF2146284627
:10931000FFF786FFD9E7F8B505460E46FCF771FE64
:1093200083042DD5022003F0E3FF044650B3F9F780
:10933000F1FF0746B6B140F20333E380637943F0AF
:1093400004036371052321462846E3730022FFF7D7
:1093500001FC31462846FEF7D1F93846F9F7DEFF21
:109360000020F8BD2146032306222846FFF73EFCD5
:109370002846FEF7B8F929463046FFF751FFECE7DB
:109380000C20EEE70720ECE737B504460D46FCF766
:1093900038FE00F0300010284FF002002ED103F00C
:1093A000A7FF014660B3437943F004034371837917
:1093B0000C33C2180220C854557020460122FFF712
:1093C000C9FB16212046FCF774FE20212046FCF73D
:1093D0001AFE21460120FFF723FF21460020FFF758
:1093E0001FFF01212046FCF717FE012503460095CB
:1093F0002846044A2146FFF77DFC002003B030BD1B
:109400000720FBE7FB8A000037B504460D46202104
:10941000FCF7F9FD29462046FCF74BFE21460120CA
:10942000FFF7FEFE21460020FFF7FAFE0120009024
:109430000023034A2146FFF75DFC03B030BD00BFA7
:10944000DF8A000038B50C4600210546FCF7E4FD34
:10945000201A030405D528462821FFF7D5FF002050
:1094600038BD0120FCE700002DE9F3418F790C376E
:109470000446CB5D023B0D46CE19132B00F21E8134
:10948000DFE813F014001C011C011C011C01770013
:109490001C010D011C011C0131006C001C011C0190
:1094A0001C014F001C011C018600D1007178FCF7E3
:1094B00000FE20212046FCF7A6FD21460120FFF7F3
:1094C000AFFE21460020FFF7ABFE012300930023EF
:1094D000814A21461846FFF70DFC284602B0BDE838
:1094E000F04103F013BFB38872887178FDF789FBF0
:1094F0002046FCF786FD830506D42946204602B0A7
:10950000BDE8F041FFF733BB21460120FCF770FDB9
:10951000724B82689A42E0D121460120FFF7CEFDCE
:10952000DBE77778B678084603F0F0FE162F07D110
:1095300032460321204600F0FEFB02B0BDE8F08178
:1095400021460120FCF754FD8368002BF5D03246FC
:109550000321204602B0BDE8F04118470146012032
:10956000FCF746FD07462846767803F0CFFEBB6839
:10957000EBE701460120FCF73BFD074628467678DD
:1095800003F0C4FEBB68002BD7D032460421E0E7CD
:109590008021FCF738FD0B212046FDF7DAFEB6F8F6
:1095A0000530B6F80110B6F80320B6F8076044F2AB
:1095B000902740F64808002814BF38464046FB2B49
:1095C000A8BFFB23FB29A8BFFB218642D4BF00967E
:1095D00000908242A8BF0246DBB2C9B22046FDF726
:1095E000B6FA40F20333EB806B7943F004036B71FE
:1095F0001523EB730B212046FDF7ABFE00236FF024
:109600000402984214BF384640462A742A756B7487
:1096100068826B75E88208222946204602B0BDE8C0
:10962000F041FFF797BA01460120FCF7E1FC2C4B13
:1096300082689A427FF451AFAE790B212046FDF744
:1096400088FE0C362E4444F2902240F6480300284F
:1096500014BF10461846B6F80530B6F80110B6F833
:109660000320B6F80760FB2BA8BFFB23FB29A8BF8C
:10967000FB218642D4BF009600908242A8BF0246DA
:10968000DBB2C9B22046FDF762FA284603F03EFE7F
:109690002146012002B0BDE8F041FFF70FBD0146B1
:1096A0000120FCF7A5FC0F4B82689A427FF415AFAE
:1096B000D6F801102046FDF790FAE6E7FCF74DFBDF
:1096C00000287FF43AAFAB79E95D0C33EA18072044
:1096D000E854517001229FE7EF8A0000A192000038
:1096E000779200007B92000038B58B790B440446DA
:1096F0001B7B043B0D460A2B6CD8DFE803F00A1DE8
:10970000366B6B6B6B426B6B0600BDE83840FFF746
:109710004EBA4FF48051FCF776FCAA790C322A44F9
:1097200002F10903204601320021FDF79BFF284684
:10973000BDE8384003F0EABD01460120FCF758FCC3
:1097400000F112012046FDF7D9FF40F20333EB8010
:109750006B7943F004036B710623EB7329462046B3
:109760000022BDE83840FFF7F5B9084603F0CEFD0A
:1097700021460120FFF754FD2046BDE83840FDF7A3
:10978000A8BF1949FCF73FFC4FF440412046FCF7C5
:109790003DFC002229462046FFF7DCF92146012046
:1097A000FCF726FCC26805468AB193790C331A444B
:1097B00002F1130301210B322046FDF753FF20462F
:1097C000FDF76CFF1622E9682046FFF7C3F9002376
:1097D000EB6038BD00F090FC0028FAD12946204605
:1097E000BDE83840FFF740BE00100001F0B58B79AE
:1097F0000C3389B0CA5C04460D46CE180B2A00F221
:10980000EC80DFE812F00C004F00EA007000EA0084
:10981000EA00D200EA004B00EA00BC00CC0001469E
:1098200000207789FCF7E4FB0368B3F5007F21D0C3
:1098300039462046FFF706FE07467388B1887278DE
:109840008B4288BF0027092986BF01F1FF339BB2F5
:1098500008239A4288BF00270846002AF3883289E5
:1098600008BF0027FDF7B8FD30B9284603F04EFDCC
:1098700009B0F0BD0027E0E7002FF6D02146002018
:10988000FCF7B6FBC56073891022013B0092584A71
:109890009BB221460020FFF72DFAE9E72946FFF7A2
:1098A00086F9E5E701460020F788FCF7A1FB03688D
:1098B000B3F5007F15D039462046FFF7C3FD0746B4
:1098C000701CFCF7D4FA0028CFD0002FCDD0214651
:1098D0000020FCF78DFB2022C560F3880092454AEA
:1098E000D7E70027ECE7324603AB52F8010FB6F892
:1098F0000970516806F10B0203C306F1130301213D
:109900002046FDF7AFFE03260423EB73AE710C2156
:1099100005A801F077FA05AB03CB05F110022B4641
:1099200028615160079943F8181F20460021FDF770
:1099300099FE21460020FCF75BFB03AB0246478300
:1099400003CBC2F81200C2F8161020460821FCF71B
:10995000DDFB4FF480512046FCF755FB2046FDF718
:109960009DFE0C2229462046FFF7F4F8314620469A
:10997000FCF752FB0025009503461F4A89E70B229E
:10998000EA5429460022FFF7E5F81C492046FCF777
:109990003AFB4FF400412046FCF738FB68E72846C5
:1099A00003F0B4FC4FF48041F5E740F20333EB8061
:1099B0006B7943F004036B710623EB73FDF74CF9ED
:1099C000294600222046FFF7C5F82046FDF781FE14
:1099D00021460020FFF772FB4AE7294600F09DFB75
:1099E00000287FF445AF29462046FFF73DFD3FE7BD
:1099F00065910000B1910000A592000000180001DF
:109A000038B504460D46FFF71DF970B12046FFF743
:109A100068F8294620B12046BDE83840FFF7E6BE89
:109A20002046BDE83840FFF75FBE38BD38B5014677
:109A300004460120FCF7DCFA054621460020FCF72D
:109A4000D7FA2B6813F0F0030ABF0068D8B200F011
:109A5000F00038BD70B506460C4601460120FCF703
:109A6000C7FA314605460020FCF7C2FA2B680268A7
:109A700043EA0201CE0517D4990543BF2B8A1B1B6D
:109A80009BB24FF6FF73920543BF008A001B80B262
:109A90004FF6FF709842A8BF18464FF6FF739842E2
:109AA00008BF4FF0FF3070BD0120FCE72DE9F34106
:109AB00005460191014601201646FCF799FA074632
:109AC0002846FCF79EFA10F0200406D001A803F007
:109AD000A7FC0C2002B0BDE8F081F9F71BFC3B6845
:109AE0009B05804609D50199381D8E6003F0F9FD6C
:109AF0004046F9F713FC2046ECE7F9F70FFC019913
:109B00002846B047E6E7000038B505460C46FCF7A6
:109B100078FA00F01800102806D121462846054A98
:109B2000BDE83840FFF7C2BF204603F0EFFB0C2032
:109B300038BD00BF7D8D0000014AFFF7B7BF00BFF1
:109B40003D8E000070B504460D4601460120FCF72D
:109B50004FFA06462046FCF754FA020308D5284679
:109B600003F0D4FB40212046FCF7D0FA002070BD62
:109B700033685B0503D5284603F0C8FBF6E72946A2
:109B80002046024ABDE87040FFF790BFAD8E00004E
:109B900038B504460D46FCF734FA420209D528468A
:109BA00003F0B4FB4FF400612046FCF7AFFA00204D
:109BB00038BD2046FCF725FA830503D5284603F077
:109BC000A5FBF4E729462046024ABDE83840FFF7E6
:109BD0006DBF00BF258F000038B504460D46FCF769
:109BE00010FA03060AD420468021FCF70CFA294615
:109BF0002046054ABDE83840FFF758BF284603F025
:109C000085FB002038BD00BF518F000038B50546E8
:109C10000C46FCF7F6F900F01800102806D1214692
:109C20002846054ABDE83840FFF740BF204603F00C
:109C30006DFB0C2038BD00BFBD8F000038B501465C
:109C400004460120FCF7D4F905460C3003F0E8FB8C
:109C5000281D03F0E5FB21460020FCF7C9F9044666
:109C60000C3003F0DDFB201DBDE8384003F0D8BB0D
:109C700070B5014606460120FCF7BAF905460430E6
:109C800003F0A5FC044690B155E8003F23F40073AF
:109C900045E80032002AF7D1A368214630469847AC
:109CA000072804D12046BDE8704003F02FBB70BDEB
:109CB00038B508210546FDF74CFB0B210028284646
:109CC0000CBF01240324FDF744FB08B144F0040455
:109CD000204638BD2DE9F0410C4690460546FCF77C
:109CE00090F9C0F300562846FCF7BBFF41460746F3
:109CF0002846FCF7DEF9022C13D0042C13D0631E87
:109D00005942594132462846FCF74AFF2946304617
:109D1000FFF7D4F928464FF48011BDE8F041FCF775
:109D200075B92146EEE77B7803F00F03012B0CBFDA
:109D300004210321E6E7F8B50E4604461546FCF774
:109D400060F9032EC0F300570DD0042E16D0012E5B
:109D500012D122212046FCF7ACF938462146FFF704
:109D60005FFA0020F8BDEAB200212046FFF7B2FFFB
:109D700021463846FFF754FA0120F3E70C22F3E7B7
:109D80002DE9F04106460C461D46BDF81870904678
:109D900032B92BB920461946BDE8F041FFF79ABF0A
:109DA00039462046FFF74EFB80B121463046FCF78E
:109DB0001FF9402380F81280C5742146069330466F
:109DC0003B46034ABDE8F041FEF794BFBDE8F08191
:109DD000D59D0000012910B504460BD1FCF711F9FF
:109DE0002146C0F30050FCF703F90022817C204695
:109DF000FFF770FF012010BD2DE9F7430F4606461F
:109E0000FCF7FFF800F48019C0F300583046FCF767
:109E100028FFBB7902780C333B445D789B781D406A
:109E2000C2F3030303EA12132B4009D093FAA3F3FE
:109E30000124B3FA83F304FA03F313F0FF0403D10C
:109E4000B9F1000F31D000243046FCF70AFF437807
:109E5000C3F30313013BDBB2032B9ABF1B4AD35C52
:109E60000023A3422ED074B302213046FCF7D4F86D
:109E7000002105463046FCF7FFFD18213846FEF765
:109E80001DFFADB244708470A0F8035039463046CF
:109E90000422FEF75FFE00952346224631464046E7
:109EA000FFF76EFF03B0BDE8F0833046FFF700FF19
:109EB0002840C8D090FAA0F00124B0FA80F0844085
:109EC000E4B2C1E700242546D7E700BF644C020096
:109ED000F7B505460E46FCF7C4FE4FF48011074661
:109EE0002846FCF790F82846FFF7E2FE3C7800EAA7
:109EF0001410C4F30304044014D094FAA4F4012011
:109F0000B4FA84F400FA04F414F0FF040AD07B7865
:109F1000C3F30313013BDBB2032B0ED8154AD35C0A
:109F20009C420AD1304603F0F1F90022214628462E
:109F3000FFF7D0FE002003B0F0BD28460021FCF75B
:109F40009BFD16213046FEF7B9FE02224470847054
:109F500031462846FEF7FEFD03212846FCF75CF853
:109F600040230093044A034629460120FEF7C2FE1F
:109F7000E0E700BF644C0200379D000010B50446C6
:109F8000FFF754FD48B903F0B3F9014638B1204654
:109F9000044ABDE81040FFF789BD0C2010BD072022
:109FA000FCE700BFD19E000070B504460D46FFF7E8
:109FB0003DFD28B929462046BDE87040FFF71CBF8B
:109FC0004028294620464FF016030CBF23222A22A0
:109FD000BDE87040FEF70ABE38B505460C46FCF7F2
:109FE00010F8C30204D42046BDE8384003F08EB90F
:109FF00021462846BDE83840FFF7FEBE2DE9F34173
:10A0000006460F4601460120FBF7F2FF036813F0F6
:10A01000F00F03D031460120FFF702F93046FCF77C
:10A0200020FEBB790C333B4480465D78987898F8E5
:10A030000030C3F30304054004EA13142C4008D095
:10A0400094FAA4F4B4FA84F301249C4014F0FF04BD
:10A0500018D13046FFF72CFE284008D090FAA0F423
:10A06000B4FA84F00124844014F0FF040AD198F873
:10A070000130C3F30313013BDBB2032B9ABF104A39
:10A08000D45C002430460021FCF7F6FC172138464A
:10A09000FEF714FE02224470847039463046FEF703
:10A0A00059FD03213046FBF7B7FF40230093054AD3
:10A0B000034631460020FEF71DFE02B0BDE8F081E8
:10A0C000644C0200379D000073B58C790C340C444D
:10A0D0000D460646FBF795FFB4F803106378A278A7
:10A0E0000091C0F300503146FFF74AFE284602B007
:10A0F000BDE8704003F00AB908B58B790B441B7BAF
:10A10000162B03D0172B05D0002002E0FFF74CFFE1
:10A11000012008BDFFF760FFFAE708B58B790B4413
:10A120001B7B162B03D0182B05D0002002E0FFF775
:10A1300065FF012008BDFFF7C7FFFAE70CF0B2BDCD
:10A140002DE9F04383B00DF10809002349F8043DDF
:10A15000154E054698464C460AE0236033681B6856
:10A1600033602368C3F800802768002D3C4611DD6A
:10A170003368453D002BF0D1012003F0B9F80746C4
:10A1800020600028F1D1484603F04AF9384603B070
:10A19000BDE8F083019F7B79384643F002037B7171
:10A1A00003B0BDE8F08300BFD04900200A2802D8E0
:10A1B0000130C0B27047242802D80230C0B27047C4
:10A1C000252805D0262805D0272818BFFF2070474E
:10A1D000002070470C20704710B4084A131D53E844
:10A1E000003F0343141D44E800310029F6D14FF02D
:10A1F00000605DF8044BFAF781BD00BFD049002034
:10A200000420FFF7E9BF000037B5194B19491B8837
:10A21000ADF804300A460B1D53E8003F23F001035C
:10A220000D1D45E80034002CF5D100F00F00012889
:10A230000CD007D3022817D001A9906A15F010F9A5
:10A2400003B030BD01238DF80430F5E704238DF809
:10A250000430131D53E8003F43F00103101D40E894
:10A2600000310029F5D1E7E78DF80400E4E700BFED
:10A27000684C0200D049002007B5124B1B88ADF88E
:10A280000430114B98B11A1D52E8002F42F002021F
:10A29000181D40E800210029F5D102228DF8042084
:10A2A00001A9986A15F0BCF803B05DF804FB1A1D0B
:10A2B00052E8002F22F00202181D40E80021002978
:10A2C000F5D1EDE76A4C0200D0490020012070472B
:10A2D000014B986A704700BFD049002070B50E4C02
:10A2E00022788242054615D00C4E60B101200CF058
:10A2F000B5FC0B4BB06A01224FF0004114F0E3FEB5
:10A300002570012070BDB06A14F0EBFE28460CF0F9
:10A31000A5FCF5E70020F5E7181D0020D049002036
:10A320003DA100002DE9F04F05683D4C85B0074682
:10A330000E46002D2FD16A460221A06A15F02EF993
:10A34000E062BDF802000A30FFF7FAFE386000282C
:10A3500055D0029B2363039B6363BDF804302387BE
:10A360008379BDF802200C3303440A211D711A8140
:10A37000227A9A719DF80020DD71072A1FBFA38CF5
:10A380000133A384638C0BBF012203F1FF331A71E5
:10A39000638402F0F9FF386885790C35054403F0D1
:10A3A0001EF92D890A38731CA5EB000502D0B542B1
:10A3B000A8BF3546268F861B10D5C6F10008A845D4
:10A3C000236BD7F800B0A8BFA84603EB0009C2462C
:10A3D000BAF1000F16D1A5EB08054644002D0EDD9D
:10A3E000636B3F681E44FF2D2A463146A8BFFF22FB
:10A3F000384602F0D4FF2D1A06443F68F3D105B069
:10A40000BDE8F08F5246FF2A49465846A8BFFF22B2
:10A4100002F0C5FFDBF800B08144AAEB000AD7E7E1
:10A42000D0490020F0B58679124D0C3687B08419DA
:10A4300001AA0746D5E90A0115F0B4F82389A86AEC
:10A44000033301A9029315F0B1F8019BBB519DF9AB
:10A45000120000F067FC6071AB7A022B02D8E37146
:10A4600007B0F0BD9DF81530002B14BF0323042363
:10A47000F5E700BFD049002038B50A4D0024A86A8E
:10A48000EC720122032114F015FE2246A86A012174
:10A4900015F090F82046FFF7EFFE2046BDE8384063
:10A4A000FFF7B2BED049002070B5174C63685A0759
:10A4B00011D5231D53E8003F23F00403211D41E87B
:10A4C0000032002AF5D1E38C0133E384FFF7D4FF97
:10A4D00007200CF0BBFB63681B0714D5F8F71AFFC5
:10A4E000094C0646052523681BB9012002F000FF30
:10A4F0002060246824B93046BDE87040F8F70EBFEC
:10A50000013DF0D1F7E770BDD049002070B5074E8E
:10A5100005460C4604B970BD22462946304614F063
:10A52000CEFD241A0544E4B2F4E700BFF849002048
:10A5300001F0A6BB15F05EB8084B10B59C6A40B19F
:10A54000074B0022204614F0BEFDB0FA80F040090F
:10A5500010BD204614F0C5FD0120F9E7D0490020C8
:10A560003DA1000010B50022064C104611460CF02B
:10A57000FFFFA06A14F0A2FD2046BDE8104002F0E3
:10A580004FBF00BFD049002010B50C4630B9054B75
:10A5900058690279408804FB020010BD01F076FB87
:10A5A000F7E700BFD049002010B50C4638B9054B7D
:10A5B000586941880079641AB4FBF0F010BD01F0CD
:10A5C00065FBF6E7D0490020F0B50E4685B0124C89
:10A5D0000546174615F00EF830462672FFF7E6FDE1
:10A5E0000023CDE902630D4A0D4B6072691ECDE96F
:10A5F0000032C9B23B460246A06A15F073F806461F
:10A600002846A57201F042FB6061B6FA86F001238C
:10A610004009E37205B0F0BDD0490020D6BE898E56
:10A6200055555500084B10B502220C46DA72FFF75B
:10A6300023FE08B1FFF7E4FD224600210120BDE81A
:10A6400010400CF095BF00BFD0490020FFF75EBF5F
:10A65000014B187B704700BFD0490020004870476D
:10A66000F0490020024B0022C3E90022704700BFDE
:10A67000F04900207047000037B5044698B10188C2
:10A6800059B12F4B1D461A4652F8040B00284AD1E7
:10A690005B1B2C4A9B10137302E02A4B01221A7396
:10A6A000284B00221A60284D284814F046FD284BFC
:10A6B0002B602846274B6B6000F044FB00212846A6
:10A6C00014F0C8FC1CA3D3E900231E4DC5E90623E2
:10A6D000A862CDE900234FF0FF334FF0FF3214F0B2
:10A6E000C3FE02224FF0FF31A86A14F0C7FE4FF4F8
:10A6F000007300221849A86A14F030FF1749A86AAD
:10A7000014F04EFDA86A14F081FF84B16068217CCA
:10A71000C0F3001000F09CFA044608B9FEF720F9D7
:10A72000204603B030BD8842B2D91346ABE721467C
:10A730002046EFE7AFF30080093B50050000000022
:10A740006C4C0200D0490020281D00209BA7E93155
:10A7500015A800001C1D0020181B0020904C0200B2
:10A7600008B5FFF789FE0020BDE80840FFF784BF69
:10A7700070B50F4D02230E46EB72FFF77DFD0446C8
:10A7800018B1BDE87040FFF73BBD304600F0E0FA7D
:10A79000697A03462246A86A14F0AAFC32460546A6
:10A7A000214601200CF0E4FE002DEAD170BD00BF6F
:10A7B000D0490020F0B5054685B0144C0F4616462A
:10A7C00014F018FF02232846E372FFF755FD0546F3
:10A7D00018B1FFF715FD05B0F0BD02463346012163
:10A7E00038460CF0C6FEA06A14F068FC30460297AA
:10A7F0008DF80C5000F0ACFA617A009002AB2A465A
:10A80000A06A14F079FC0028E5D0E2E7D0490020E6
:10A8100070470000F8B5194614461D460746104615
:10A8200000F0B6FA394E204629460CF0A0FE20462C
:10A830002946FFF7EDFFD6E9062304EA020005EA00
:10A84000030150EA010333D0002908BF082830D0A3
:10A85000002908BFB0F5801F40D0002343F6010255
:10A8600000EA020401EA030554EA050306D0F37A7C
:10A87000012B44D0BDE8F840FFF7C2BC0024B06A09
:10A88000F4720122032114F015FC22460121B06A62
:10A8900014F090FE2046FFF7EFFC2046FFF7B4FCD3
:10A8A000F38C0133F3840720BDE8F8400CF0CEB9F7
:10A8B000F8BD3846FFF70AFD0028DFD0F37A012BF8
:10A8C000D8D17368DB0744BF0323F372738C013361
:10A8D00073840520BDE8F8400CF0B8B9F37A022B78
:10A8E000C8D1736813F0020318BF0423F372338CCA
:10A8F000013333840420BDE8F8400CF0A7B90023ED
:10A90000F3720620BDE8F8400CF0A0B9D049002051
:10A910000020704738B5174CA37A8342054627D0EC
:10A92000FFF7AAFD2846A57201F0B0F9606128463C
:10A93000FFF7EEFFE0B9013D032D19D8DFE805F080
:10A9400002070C12A06ABDE8384014F072BEA06A7B
:10A95000BDE8384014F080BEA06A0121BDE838404F
:10A9600014F08FBEA06A0321BDE8384014F089BE00
:10A9700038BD00BFD0490020704700002DE9F341E9
:10A980000546012098460E4617460D4C00F010F97A
:10A9900000F09CF9404625726572FFF7BBFF01236A
:10A9A00000933A462B463146A06A14F092FE0022EC
:10A9B00011461046FFF7E0FF02B0BDE8F08100BF8E
:10A9C000D04900202DE9F3410546104CBDF9200087
:10A9D0001E460F46904600F079F928462572FFF78B
:10A9E000E5FB607230460026FFF794FF2B46424697
:10A9F00039460096A06A14F06CFE32463146304665
:10AA0000FFF7BAFF02B0BDE8F08100BFD0490020D7
:10AA1000704700002DE9F043044685B01B4E89467F
:10AA200090460125FFF728FD2046F572FFF7ECFB65
:10AA3000074620B1FFF7E4FB05B0BDE8F08308202E
:10AA4000FFF7CAFBC4F300138DF80D30404604F045
:10AA500020038DF80E3000978DF80450CDF8089043
:10AA60008DF80C7000F074F9717A03466A46B06A8A
:10AA700014F04FFB42460646C4F3801128460CF002
:10AA800077FDFFF7C5FF002ED6D0D3E7D0490020D1
:10AA90002DE9FF470446224D884692461F464FF057
:10AAA000010914F0A7FDFFF7E7FC204685F80B909D
:10AAB000FFF7AAFB064620B1FFF7A2FB04B0BDE8F2
:10AAC000F087C4F3801249463B4640460CF051FDE6
:10AAD000A86A14F0F3FA0820FFF77EFB6B698DF883
:10AAE00004601A88CDF80080C4F30013524404F0C7
:10AAF0002004384602928DF80D308DF80E408DF806
:10AB00000C6000F025F96A460346697AA86A14F0D9
:10AB100000FB0446FFF77CFF002CCFD0CCE700BF42
:10AB2000D04900200A4B10B501220C46DA72FFF71B
:10AB30006BFB08B1FFF764FB2246012000210CF0FB
:10AB400017FDFFF765FF0820BDE81040FFF744BB85
:10AB5000D049002000207047F8B50446FFF7FAFFFF
:10AB6000A179E279104E521A0C310746012392B2B4
:10AB70002144B06A14F0EEFCE579A379ED1A3D4466
:10AB8000246814B935612046F8BDA179E279B06A2C
:10AB9000521A0C31002392B2214414F0DBFCE37909
:10ABA000A2799B1A1D44EBE7D049002070477047FB
:10ABB000044BB3F9023010B9642BA8BF64231846C4
:10ABC000704700BF8C1E00202DE9F0411D4D2C88E0
:10ABD000041BA4B2F8F79EFB26B27D34A4B27D2CF0
:10ABE00007462C462CD9EB79003318BF0123164DAC
:10ABF000DFF858802A789A4208D028462B70FFF751
:10AC0000D6FF2946D8F8280014F071FC3846F8F72A
:10AC100085FB3146D8F8280014F081FCD8F82800CC
:10AC200014F061FC29780246D8F8280014F0A4F941
:10AC30002388184440F6FF736080A380BDE8F0814C
:10AC40000123D4E78C1E002098100020D04900205A
:10AC50002DE9F8430C46184EC0B14FF4E163174D8F
:10AC600073800022AA712A807288DFF84C80DFF896
:10AC70005890B2F5E16F94BF1148124814F00CF9E6
:10AC80000127012C05D93846BDE8F88340F6E44396
:10AC9000E5E740463470EC71FFF789FF4146D9F88B
:10ACA000280014F024FC0134E4B207460028E8D15F
:10ACB0005020FFF789FFE6E7981000208C1E002047
:10ACC0002454020044540200D04900200A4BB3F936
:10ACD000042082420ED0B3F9022019889880074BD5
:10ACE0008242D4BFC1EB0201C1EB000109B2986AF4
:10ACF00014F015BC704700BF8C1E0020D049002006
:10AD00008BB2074A0029B4BF053B053310801BB244
:10AD10000A21B2F9020093FBF1F39371FFF754BFDC
:10AD20008C1E0020024B9B79C01A40B2704700BFB6
:10AD30008C1E0020024B1B88184400B2704700BFD5
:10AD40008C1E0020014B8360704700BF941E0020C2
:10AD500010B504460BF0A0FF0B4B19688A7A497AAC
:10AD600012FB04F2FF23B2FBF3F2084B0A441A7001
:10AD70004269D20756BFD0E903120022521A5A6024
:10AD8000C2689A60014810BD60490020F81E00208A
:10AD900008B5002201F0040313430BD0064B986A58
:10ADA00014F06EF930B1FFF767FB0320BDE80840EF
:10ADB0000BF04CBF08BD00BFD049002073B5084D53
:10ADC0000446A5F11006CDE90054054B224680212A
:10ADD000304613F0B4F80028F5D102B070BD00BFC2
:10ADE000141F002010B5064C10212046FFF78EFBE3
:10ADF00010216018FFF78AFB012384F8203010BD72
:10AE0000041F00202DE9F041DFF8748088B005466A
:10AE10000C4604AE14B908B0BDE8F08198F82030B3
:10AE2000102C274628BF10270BB9FFF7DBFF684619
:10AE3000FFF7C4FF3A466946284619F054FD6846B4
:10AE4000FFF7BCFF3046FFF7B9FF0D4AEC466346FB
:10AE500003CBB342106051609C4602F10802F6D168
:10AE6000084AB4460DF1200E634603CB73451060CB
:10AE700051609C4602F10802F6D13D44E41BC9E74B
:10AE8000041F0020141F0020F0B5164CA06B87B0E3
:10AE9000F8B1E76BC7B1BE790C36FBF721F9BD19E4
:10AEA0000223BA5D049395F823305B090393AB8BBF
:10AEB00002936B8B01932B8B0093D20905F108034E
:10AEC000002180B2FDF7D9F9A06BFBF70DFD00233F
:10AED000A363E06B18B102F019FA0023E36307B033
:10AEE000F0BD00BF104A002038B5114C0546206C5B
:10AEF00018B102F00BFA00232364D4F898306BB138
:10AF00000BF0CAFE0B4B834201D1FFF7B5FA0021CB
:10AF100008480BF0E7FD0023C4F89830FFF7B4FFB2
:10AF2000294603480BF0DEFDBDE838400BF0F2BDCA
:10AF3000104A00208C4A0020034B586A10F005008C
:10AF400001D1FFF7D1BF7047104A0020F8B5044681
:10AF50000020A0719DF81850207B003263F303009D
:10AF600005F10C030E46637318BF012200F0CF03F6
:10AF70009DF81C1062F3C713237304F10E07DBB2B4
:10AF800089B961F3861323730C4B1A689B88C4F844
:10AF90000E20BB8033686361B3882383A3790E35A9
:10AFA0001D44E571F8BD43F040032373FAF7C8F878
:10AFB0000368C4F80E308388EBE700BF4C490020DB
:10AFC000104B93F85420052A1A460AD193F85510CD
:10AFD000012903D1032283F855207047012382F809
:10AFE000553092F8313092F832000133DBB2032B46
:10AFF00028BF002340FA03F1C907F6D582F83130A3
:10B00000704700BF104A00200123074A03FA00F0EE
:10B0100002F1240353E8003F034302F1240C4CE8FF
:10B0200000310029F4D17047104A0020012303FAAF
:10B0300000F0074AC04302F1240353E8003F0340F5
:10B0400002F1240C4CE800310029F4D1704700BF14
:10B05000104A00200E4B072283F832204FF01012C6
:10B06000DA625A63002283F830205A62012283F8A0
:10B070005520084ADA6102225A61F5229A60064A8E
:10B0800011680A7849780A4452101A76704700BF4E
:10B09000104A0020A9B70000604900202DE9F041C6
:10B0A0001D4C9DF81C609846636ADB070F461546E9
:10B0B0002FD428B30120FFF7A7FF9DF81830D90738
:10B0C0004FF0070020D5FFF79FFF06F00503052B83
:10B0D00004D16D00ADB2BD4228BF3D46B207A78581
:10B0E000E58584F8308084F8546010D416F0040F9D
:10B0F00014BF0323012384F855300120BDE8F081FB
:10B100000120FFF793FFD8E7FFF790FFDDE7022369
:10B11000F1E70020F2E700BF104A0020024B586A16
:10B12000C0F38000704700BF104A002010B5F8F748
:10B13000F1F80446FFF7F2FF40B1074A536A23F0E3
:10B1400004035362FFF7F8FEFFF79EFE2046BDE8BA
:10B150001040F8F7E3B800BF104A0020024B586ACD
:10B1600000F00100704700BF104A0020F8B5374DCD
:10B170006B6A164603F001072C4678B9002F63D09E
:10B18000F8F7C8F86B6A23F0010304466B62FFF717
:10B19000D3FE2046BDE8F840F8F7C0B8002F53D1E1
:10B1A0009B0713D5022002F0A3F8286400284BD097
:10B1B0000320FFF73BFF0420FFF738FF1020FFF7C5
:10B1C00035FF012385F84970A5F84A30F8F7A2F851
:10B1D00005460E2076BBFFF729FF0020FFF714FF7E
:10B1E000636A13F0040323D1E28DE364023A40F270
:10B1F0007123E36053432361FFF79AF90323B0FB04
:10B20000F3F303EB4303C31A84F83130FFF7D8FE9E
:10B21000FFF790F90E4B60601A682065137852783A
:10B220000A4813445B1023760BF02CFC0BF072FCE5
:10B230002846AFE7FFF7E8FEFFF77CF942F210730C
:10B2400003FB0600A062C8E7F8BD00BF104A00205B
:10B2500060490020F8B5394D0646012128460BF01B
:10B2600041FC374BEB616B6A13F4804F2C4616D0D0
:10B27000AA6A6968521A002A11DA23F0010343F41A
:10B2800000436B62FFF758FE4FF08040F9F736FD40
:10B29000FFF744FF18B9BDE8F8400BF03BBCFFF7DF
:10B2A00049F90EB9E3681844B4F82EC0E66CACF165
:10B2B000040540F271235D43AE4217D2216DA28D89
:10B2C000A1F5967103FB0212D4E90217121A394450
:10B2D00091420BDA03FB0CF39B1B6060934294BF1B
:10B2E0002361226115480BF0CDFBD4E705F2E24360
:10B2F0002361FFF765FE236DA28D40F2712101FBF2
:10B3000002320023E3640F4B6260AE4222651B6889
:10B31000626A09D351074CBF9A791A78237E0433A5
:10B32000934209DC2376DDE752074CBFDA795A787D
:10B33000237E043B9342F5DA2276D3E7104A0020BD
:10B34000A9B7000060490020022873B53BD003284C
:10B3500043D0002847D1254C94F8315094F85560DB
:10B36000253529462820FAF721FDFFF721FC334631
:10B3700000901F4A1F49E8B2FFF724FB6568FFF7FA
:10B38000D9F8636A281A13F0060F14BF71256225D5
:10B39000B0F5FA6F0ADC0BF065FB227EA0F1FA0132
:10B3A000284602B0BDE87040FFF734BB66680BF07A
:10B3B00059FB237EA0F1FA023146284602B0BDE8CF
:10B3C0007040FFF765BB0BF067FC084B83420AD166
:10B3D00002B0BDE87040FFF74FB8002002B0BDE8F2
:10B3E0007040FFF737BF02B070BD00BF104A0020A9
:10B3F000D6BE898E5555550037B5124C02ADF7F7BC
:10B4000089FF236A45F8043D00232362F7F786FF8E
:10B41000019B5BB9636A1B0406D5FDF71AF858B1A6
:10B42000636A23F40043636203B030BD284602F030
:10B430003AF8FDF79DF9EBE74FF08040F9F75EFC35
:10B44000F2E700BF104A00202DE9F74F394C019177
:10B45000E76B9DF830A0BD790C3516467A5D60F338
:10B4600045127A55626A99465306804607EB050BEA
:10B4700042D5494650460CF008F818B9002003B0F0
:10B48000BDE8F08FD9F80020CBF80820B9F80420E7
:10B49000ABF80C207A5D6AF3C7127A55019A636A99
:10B4A000002A36D043F40073E06B6362FFF754FB6D
:10B4B000214B1B68B8F1000F2ED159780120FFF7FE
:10B4C000B1F894F8B6700BF0E7FB1C4BC3613189FF
:10B4D00035683846FFF758F82844B8F1000F21D0F6
:10B4E00000F2E2406064737984F84830636A43F0A4
:10B4F000200363620120C2E77A5DBAEBD21FBDD19F
:10B50000062249460BF1080019F0DEF90028C5D0E3
:10B51000B4E723F40073C7E7D9790020FFF782F876
:10B520000127D4E7033F012F8CBF00F6C41000F6BB
:10B53000A660D7E7104A002060490020ADCB00008C
:10B5400013B50F4C94F849300A462BB1013B84F8EF
:10B550004930002002B010BD94F83010CDE9003120
:10B5600001460323206CFFF7F1FC206CFFF7F4FA8F
:10B57000044B1B6801205978FFF754F80120E9E7D4
:10B58000104A00206049002010B51D4C636A19075D
:10B5900034D508B3DA061BD5B4F84A30012B17D9D5
:10B5A0005B080420A4F84A30FFF740FD1020FFF7A5
:10B5B0003DFDFEF7BDFFB4F84A30B0FBF3F202FBED
:10B5C000130084F849000320BDE81040FFF72EBDAA
:10B5D0000420FFF719FDE9E7DB030BD5B4F84A3087
:10B5E000FF2B07D85B001020A4F84A30FFF71EFDA0
:10B5F0000420DCE71020FFF707FDF9E710BD00BFCE
:10B60000104A00202DE9F04F244CD4E90E7687B083
:10B6100000238B46222196F80690656CC4E90E3310
:10B620008246FEF7B1FF96350544FEF725FF616AB5
:10B63000CDE904AB09F10C09C1F34021FF230293CA
:10B64000039116F8091006EB0908C90908F1080367
:10B650002A4601910093012108F10E033846FBF7B9
:10B66000D9FE304601F052FE636A23F02402DB0764
:10B67000626205D4012007B0BDE8F04FFFF734BC8B
:10B68000074B1A681378527813445B100120237615
:10B6900007B0BDE8F04FFFF7DDBD00BF104A002046
:10B6A0006049002008B50B4B5A6A920606D593F9FB
:10B6B00048100120BDE80840FFF7A4BF0320FFF7B2
:10B6C000A3FC054B1B6801205978BDE80840FFF733
:10B6D00029BA00BF104A00206049002038B5134C39
:10B6E000FEF7CAFE124BE3610BF0C2F9B0F5967F8C
:10B6F0000FDD636A13F0060F0CBF622571250BF096
:10B70000B1F9227EA0F1FA012846BDE83840FFF7E2
:10B7100081B9FEF70FFFE36C62689B1A0344E36490
:10B720000120BDE83840FFF795BD00BF104A00205A
:10B73000A9B7000038B583790C3303441A79D207CE
:10B7400002D44FF0FF3038BD9A7AD97A02F00F0553
:10B75000082DF6D8062D02D8881F1F28F1D8012DF4
:10B7600017D10C29EDD10E4991F83010D2098A4237
:10B77000E7D103F1120452B1F9F7E2FC01460622C7
:10B78000204619F0A1F80028DBD12846DBE705495F
:10B79000F5E7042DF9D1024B5B6A1B07F5D4D0E71E
:10B7A000104A00204C4900202DE9F047031F8EB0BD
:10B7B000032B00F20D81DFE813F0F7000400FA001C
:10B7C000FA000EAC002544F82C5D4FF0FF31204606
:10B7D000FEF7A8FD0398FEF725FE039868B1FFF772
:10B7E000A9FF0828064605D87D4B13F8008018F0FD
:10B7F000080F0AD1204601F013FE7A4B5B6A13F062
:10B80000060F0DD0FFF76AFF0AE00728039C0DD151
:10B810002A462146734800F097FF0546002DECD0DC
:10B820000120FFF7B1FE0EB0BDE8F0876D4F7D6AD5
:10B8300015F0040511D018F002050ED0A2790C32D3
:10B8400022440120917AC1F380130093C1F3401187
:10B8500002F10C03FFF7F8FD05467B6ADA0740F1B9
:10B860009580180600F185808DB97B6A990740F1B3
:10B87000B28018F0010F0AD0A0790C3020440C30AF
:10B8800010F8021CC1F38011FFF75AFE0546042E82
:10B8900002D17B6A9A0779D518F0040F76D0524A04
:10B8A000A67910685168127A04AB03C30C360820DD
:10B8B0001A702644F9F72AFC20B10122B11D204656
:10B8C00001F06DFDB37A96F8069003F00F030EAA0F
:10B8D0001A44042B12F8282C1FFA82F85ED0062B8B
:10B8E00058D013B90D20FFF78FFB334696F80AA006
:10B8F00053F80C2F97F855709B88ADF82730A37933
:10B9000096F90560CDF823201233A3711C2120463F
:10B9100001F0DCFD4FF47F42A379ADF82A207F22AD
:10B92000CAF3801A0C338DF82C2000228DF8297070
:10B930008DF82D608DF81F90ADF820808DF822A035
:10B94000ADF82E2007AE23440DAF324603CABA42EB
:10B9500018605960164603F10803F6D110681860A4
:10B960002146224801F0BDFE4FF08040F9F7C6F9AC
:10B9700054E7A1790C3121440C3111F8020CC0F3C9
:10B9800080100BF082FD00287FF46EAF204601F09E
:10B99000BDFC43E70D20FFF749FBA6E77B6A9B044C
:10B9A00048BF42F00108A0E7FFF77CFE3BE70638FE
:10B9B00018BF0120FFF7E8FDFEF7BCFD094AD36C74
:10B9C00051685B1A03440120D364FFF743FC2AE764
:10B9D000FFF7BAFC27E7042E7FF45EAFD6E700BF7F
:10B9E000A54C0200104A00209C4C0200304A002066
:10B9F0002DE9F341064601200C4601F079FC804612
:10BA0000002800F09F80504D6B6A5B0706D52046EA
:10BA1000FAF76AFF0C2002B0BDE8F081AC63737ADC
:10BA2000B27801931623009302F001020523F11C62
:10BA3000FFF78CFA98F8064073780C34DF0744441B
:10BA40004FF006007BD5FFF7DFFA00F0C3F80227BE
:10BA5000C4F80E00032104F11200FEF757FD6775CC
:10BA6000B3892383FEF764FD238B013390FBF3F24C
:10BA700002FB1300F3896383338AE082A383394690
:10BA800004F11E00FAF7A8F9A17C0C22B1FBF2F335
:10BA900002FB131394F82320053363F3040284F8A4
:10BAA0002320FEF7D5FD94F8233060F3471384F884
:10BAB0002330C5F83C80F7F72DFC6A6A42F0040396
:10BAC0006B62224B19688B79C9790B445B10D107E3
:10BAD00004462B762ED4B37C85F854309A0704D4D0
:10BAE00013F0040F14BF0327012785F8557096F94A
:10BAF0000230EA8E002BBCBF042385F85430023A92
:10BB000040F27123EB6053432B61FEF711FD0323D9
:10BB1000B0FBF3F303EB4303C31A85F83130FFF7AF
:10BB20004FFAFEF707FD6860286507480AF0AAFF8C
:10BB30000AF0F0FF2046F7F7F1FB00206BE7FFF774
:10BB400075FA82E7072066E7104A00206049002066
:10BB500010B500F00704204601F07EF8034B0028E2
:10BB600008BF072483F8324010BD00BF104A0020F0
:10BB70007047002070477047704700002DE930483B
:10BB800005460C46FEF764FD2B7C0C4A52F8233028
:10BB900052F8202020021344220E094CA3FB00BCC3
:10BBA00003FB02CC00251BEB0400064A4FF0000308
:10BBB0004CEB050118F0B8FCBDE830886C4C020075
:10BBC0003F420F0040420F0040F271235943FFF7FC
:10BBD000D5BF000073B5294C04210DEB0100FEF721
:10BBE00095FC01981B23024602F03F013F29F3D048
:10BBF0000029F1D0013B4FEA5202F5D180EA040559
:10BC00001A46012101FA02F62E4202F1010218BF82
:10BC10000133202A2ED0022BF4D19DF804309DF858
:10BC200005209A4207D19DF80630934203D19DF832
:10BC300007209A42D0D001461F23002201F00305BD
:10BC4000013D012D98BF0132013B4FEA5101F5D171
:10BC5000182AC1DC810E052201F00305013D012DEA
:10BC600098BF0133013A4FEA5101F5D1012BB3DD01
:10BC700002B070BD022BAFD1CFE700BFD6BE898E18
:10BC8000014B986D80B2704700500840024B06226D
:10BC9000013802FB00307047AE4C020070470000D4
:10BCA00007B50C216846FAF797F86A460349002061
:10BCB000FAF79EF803B05DF804FB00BF704900205E
:10BCC000F8B50C460546092190F85A00FEF75CFCD1
:10BCD000621E4FF4FA73534303F5487300FB0434B8
:10BCE00095F83C3003F00303012B04D012D3022B50
:10BCF0001CD02046F8BD242195F85B00FEF744FCDB
:10BD00001021064695F85B00FEF73EFC04F598749A
:10BD100034440444286B95F85B6001F060FC00F14A
:10BD20000E013046FEF730FC0444E2E70E2195F8A0
:10BD30005B00FEF729FC0646686B95F85B7001F026
:10BD40004EFC04F5987400F10E013846FEF71CFC19
:10BD50003444E9E737B583798DF807100C334FF495
:10BD60004074C4800024C452C45CC118072565F324
:10BD70000304C45402F0010392078A7848BF43F0D9
:10BD8000020363F387128A7001220DF1070101F0AB
:10BD900006FB03B030BD10B504460846A37903F195
:10BDA0000C012144CA78D2070AD5E279D21A0A4492
:10BDB000F9F7DAFB20460621BDE8104001F0E4BAAD
:10BDC00010BDF0B4857905F10C040619F2789207DC
:10BDD00013D5C279521B0D46B71855F84CCF46F80B
:10BDE00002C0AA88BA800A6A015D120A62F3C7110A
:10BDF00001550621F0BC01F0C7BAF0BC704710B580
:10BE0000837903440446DB7B5B0709D50846F9F7D1
:10BE10009BFF012201462046BDE8104001F0BFBA59
:10BE200010BD83790344DB7B1B0703D50222583105
:10BE300001F0B5BA704700001FB583790344DB7B7E
:10BE4000DB061DD5104B91F85C20029302238DF880
:10BE50000C300023ADF8043062F305038DF8043094
:10BE600091F85B3004AA13444FF0000213F8083C29
:10BE700063F347128DF8062001A9032201F08FFA1F
:10BE800005B05DF804FB00BF0000010270B50A4D6B
:10BE9000002464262B79A34200DC70BD2B6806FBCE
:10BEA000043393F83D20FF2A03D0586D08B1F9F709
:10BEB00043FF0134EEE700BF6449002013B58379E6
:10BEC00003440446DB7B5B060DD5B1F94400FEF765
:10BED00031FF02A90A23012290FBF3F001F8010DC2
:10BEE000204601F05CFA02B010BD10B5C379847928
:10BEF00004F10C021B1B0244DBB2023919445170DD
:10BF00009178033B63F30501917010BD82790C3287
:10BF10008318825C02F00F02072A27D19A789206D2
:10BF200024D0DA78D00621D5D0074CBF0A330433A9
:10BF3000900748BF0633120748BF02330C4A9142AC
:10BF40001A7895BF6FF3C71242F080021A701A7008
:10BF500094BF1E224FF49672B1FBF2F19A78597099
:10BF600022F01F02C1F3042111439970704700BFF2
:10BF7000C3BF030038B50C46097B01F0EF011D4635
:10BF800062F3C7114FF440736FF34511E38003234D
:10BF90002173E37304F1100204F10C01F9F7E4FAE0
:10BFA0002B68C4F81630AB88E27963830D231A44FA
:10BFB000A37301336373237BE271082262F30303EB
:10BFC000237338BD10B50C46FEF756FA2046012102
:10BFD000F9F738F9BDE810400AF09CBD08B5092111
:10BFE00090F85A00FEF7D0FA00EB400000F5E1604F
:10BFF00008BDF8B5837903440446DB7B9B060D46F8
:10C0000013D508464E6D4F68FFF7E8FFE27995F8C3
:10C010005B300C32391822443046F9F78FFE014666
:10C020002046BDE8F84001F0AFB9F8BD2DE9F04178
:10C030009846D30605460C4616469DF818700CD552
:10C04000FEF776FA2521B0FBF1F303FB1101C9B22B
:10C050001748F9F70FFF85F85C00F1B20FB195F8BA
:10C060003C703A462046FFF775FE29462046FFF70A
:10C0700092FE29462046FFF7A4FE696D2046FFF791
:10C08000BEFE29462046FFF7CCFE29462046FFF794
:10C09000D3FE29462046FFF7ACFF29462046FFF78E
:10C0A0000DFF41462046BDE8F041FFF71EBF00BF2F
:10C0B00070490020F7B50446FEF7DEF9F9F765FE92
:10C0C00030B194F85C00F9F763FE80F00100C0B273
:10C0D00000F00100FEF76CFDB4F9442094F85C50C8
:10C0E00094F85B302D499042A8BF104600B20090F2
:10C0F0002B4A2846FEF766FCF9F726F8236A13F068
:10C10000200F064614BF082509255806606D48BF54
:10C1100045F0400538B1F9F715FE20B1236A9907BB
:10C1200008BF45F02005236A9A0735D4206B01F03B
:10C1300056FA0746236A5B0748BF45F0020501230C
:10C140002A463146009320463B46FFF76FFF002FFB
:10C15000CCBF236B002333603046FEF7FDFC236A1F
:10C16000104A666803F00303002B0F4B18BF1346F9
:10C17000E361204614BF01250025FFF72FFF227E33
:10C1800031182846FEF716FB94F85C00002103B036
:10C19000BDE8F040F9F7F8BD0027CBE7555555004D
:10C1A000D6BE898E61C4000049C30000F8B50446BC
:10C1B000FEF762F9254BE3612046F8F7FBFF20B359
:10C1C000234D94F85A60A86801F009FA01463046F8
:10C1D000FEF7DAF900F5FA762046AF68FFF7FEFEC3
:10C1E00094F82B1006FB11013846FFF78FFEA86864
:10C1F000FEF7B2FC94F82B106368227E06FB013137
:10C200000020BDE8F840FEF7D5BA236BC3B9606DD6
:10C2100090B994F83C309B0712D10E4B1B689A786A
:10C22000237E04339342D4BF237622762046012115
:10C23000BDE8F840F9F717B8F9F784FD0028E8D011
:10C240002046BDE8F840FFF735BF00BF5BC30000E4
:10C250006449002060490020FF23F7B5044680F8B8
:10C260002B30F8F7A7FF1F4BE361236B002B36D170
:10C27000606D80BB94F83C2012F003022FD1D506EC
:10C280000CD4236A980609D459064CBF42F04102E7
:10C2900042F001025B0748BF42F00202124D012347
:10C2A000A968009320460023FFF7C0FEAF68002670
:10C2B0003E602046FFF792FE01463846FFF726FE15
:10C2C000A868FEF749FC227E6168304603B0BDE8ED
:10C2D000F040FEF76FBAF9F735FD0028CAD01822F2
:10C2E000CDE700BF5BC300006449002010B50C46D9
:10C2F000072826D8DFE800F004250911252520119C
:10C300000846BDE81040FFF7A7BF0AF0C5FC84420D
:10C3100017D1BDE81040FEF7AFB80A4B1B68DA78BA
:10C320000B7E043B9342ACBF0B760A76204600217D
:10C33000BDE81040F8F797BF0846BDE81040FFF78A
:10C3400035BF10BD6049002004280B4603D10121F0
:10C350001846F8F788BFFFF7C9BF042802D108467E
:10C36000FFF724BFFFF7C2BF0428F7B50C4616D16C
:10C370000D4E086BB76801F032F9012503463946C6
:10C38000204600951822FFF751FEB368226B1A6011
:10C390002946204603B0BDE8F040F8F764BF03B07B
:10C3A000BDE8F040FFF7A2BF644900207FB504AEAE
:10C3B000002446F8044D4FF0FF3105463046FDF7A6
:10C3C000B1FF0398FEF72EF8039949B12846F9F713
:10C3D000C3F9032806D0052839D0304601F020F8EB
:10C3E00001202EE02B6A1B052DD5039905F148008D
:10C3F00001F077F94FF400112846F8F7CFFEF8F76F
:10C40000A3FE0646686B01F0EAF8002403463146B5
:10C41000092228460094FFF709FEB3796A6B1E448F
:10C420002046B37B64F38713B3730B4EB3681A6073
:10C43000297EFEF7F7F8B068FEF78EFB074BEB613D
:10C44000204604B070BD304600F0EAFFD7E70399FC
:10C450002846F9F77FFBF3E76449002069C3000031
:10C46000052810B50C4609D006280DD0042811D196
:10C47000097E0120BDE81040FEF754BB0846FFF7D7
:10C4800095FF58B1FDF7F8FF20460121BDE81040A7
:10C49000F8F7E9BEBDE81040FFF728BF10BD000067
:10C4A000094B0221C3F8901042F210710022C3E937
:10C4B0002211F521C3F8A420C3F89820C3F88410F2
:10C4C00083F89420704700BF104A00202DE9F04106
:10C4D000374C94F87B6005460F466EB3A04214BFFC
:10C4E00004F1A80800F15608666FFEF723F8301A29
:10C4F000B0F5FA7F23D2EF61626F94F8781098F864
:10C500000E00FEF761F8A54206460ED1D4F8983029
:10C510005BB104F17C0001210AF0E4FA002304F18C
:10C52000A400C4F8983000F07BFF636FC4F8A0301B
:10C5300094F8783084F89C303046BDE8F081A5420C
:10C540001C4E0DD1D5F8983053B1304601210AF078
:10C55000C9FA002305F1A400C5F8983000F060FF87
:10C56000636FC4F8A030002194F8783084F89C30D0
:10C5700028460AF0B7FA636FC4F89870B542C4F859
:10C5800080300ED00C4B03F1520203F118051868ED
:10C590005968144603C40833AB422246F7D11868E1
:10C5A000206004480AF06EFA01260AF0B3FAC3E7E5
:10C5B000104A00208C4A0020664A002073B51A4CAD
:10C5C0000646FDF759FFA64294F89C5014BF04F1AB
:10C5D000A80304F15603294625209E7BF9F7E6FBC4
:10C5E000FEF7E6FA334611490090114A2846FEF755
:10C5F000E9F9D4F8A050FDF79DFF281A8C28D4F84B
:10C60000A01094F8943008DC1A4601F5FA61112064
:10C61000FEF700FA012002B070BD01F5FA621120A8
:10C62000FEF736FAF6E700BF104A002055555500D0
:10C63000D6BE898E37B51A4D0446D5F8A4000190B0
:10C6400070B10022C5F8A420437962F341031C2194
:10C65000437100F05CFF014620B901A800F0E0FE44
:10C6600003B030BD4379827943F00203AC42437199
:10C6700002F10C0214BF05F1A80304F156030244B1
:10C6800003F11C0053F8044B42F8044B8342F9D1E8
:10C69000044801F026F84FF08040F8F72FFBDFE761
:10C6A000104A0020304A002010B504460AF0F4FA7F
:10C6B000844201D1FDF7E0FE094B0022C3F8982027
:10C6C0007C339C4203D1012120460AF00BFA012061
:10C6D000FEF7C0FD2046BDE81040FFF7ABBF00BF2E
:10C6E000104A0020F0B511F010014FF00004DC7189
:10C6F00002D199710846F0BD01269E718178447877
:10C7000001F01F0144EA012490F90010002901788A
:10C710004FF0250C01F03F01B1FBFCF50CFB1511AE
:10C7200019718178C1F342113144597101F1FF311E
:10C73000B4BF4FF496771E2702299EBF07FB042241
:10C74000DE711A600320D6E72DE9F04F8B790C33A8
:10C7500089B0CE180DF1200B0392F27A4BF8041D2C
:10C7600081463AB9584600F05BFE0023184609B0EE
:10C77000BDE8F08F0399AF4B002966D1D3F898102C
:10C780000029EFD1317B98424FEA911801F03F0127
:10C7900002915CD100F15604FF20A071002060825C
:10C7A0004FF47F401FFA88F1E0817F20A180207440
:10C7B00093F8550060730329D4D018F0020F01D00C
:10C7C0000A21A180029901328A42CBDB002965D07F
:10C7D000777BF80764D53246072552F80E1FC4F858
:10C7E00007109288A4F80B20B27A12F0400217BF0B
:10C7F0005A6A596A42F480525A620ABF21F480513F
:10C8000001225962A271039A012A0AD15A6A1106B9
:10C8100007D5E11DA07904930AF037FE049B002898
:10C82000A0D0BA0706F10D0A50D593F83010B37AAC
:10C83000B1FA81F2DB435209C3F3C0139A4231D0FB
:10C84000584600F0EDFD7C488DE7984202D003F198
:10C85000A80401E000F1560496F80C8008F03F01AE
:10C86000029103994FEA981804293FF67BAF01A083
:10C8700050F821F099C7000089C8000065C7000082
:10C8800095C8000095C80000A18801F0030141454A
:10C8900098D067E7B8F1000F94D063E7029F98E75C
:10C8A0000125B0E70AEB0503002959D00493F8F7F6
:10C8B00047FC049B01460622184618F005F800289C
:10C8C000BED1A38843F00403A38006357B0748BF8D
:10C8D0000135380706D50AEB050302355B78C3F34B
:10C8E0000313E373554B326839460AEB0500FFF733
:10C8F000F9FE2B184F4DA28895F87A10002931D0F7
:10C9000042F04002A28095F87920A273B90618D5AA
:10C910000AEB030204925288A07991B2052998BFCC
:10C92000002212336282E11DE27BCDE90533FFF77D
:10C9300020F9059B28B1049A3168A07BFFF71BF909
:10C94000059B7A064CBF1AF803307F232374039BA0
:10C95000042B00F29580DFE803F08209937B7B00D3
:10C960003749A8E722F06002A280CFE7696A48074A
:10C9700048D518F0010F3AD10023B8F1020718BFCB
:10C9800001276A6AD2077ED5002F7CD04FF0FF3195
:10C9900058460493FDF7C6FCB279E27072790799A4
:10C9A00062748A79029B24480D3213444A798B7150
:10C9B0006FF341024A7100F094FEDDE90323002A7F
:10C9C0007FF4D4AE1F4A94420BD004F118062068BD
:10C9D0006168154603C50834B4422A46F7D1206879
:10C9E000286048460293FFF725FE029BBEE6C1F38E
:10C9F00000310091E31D324601210020FEF724FDA5
:10CA00000346BAE718F0020F0FD001F00303032B1F
:10CA10000BD1C1F30031E01DFEF792FD0346002863
:10CA2000AAD0094AC9F81C20A7E708494846FFF7D9
:10CA30004DFDE5E7104A0020B44A0020844A00205A
:10CA40004C490020B84A002067CB000043CB0000CF
:10CA50000F494846FFF73AFD0127034691E7B8F131
:10CA6000020F03D16B6A13F0020304D00949484650
:10CA7000FFF72CFD034687F01007C7F3001780E788
:10CA8000012700237DE75846029300F0C9FCACE77C
:10CA900043CB00000DCB0000F7B502AC002544F8F5
:10CAA000045D07460E4620464121FDF73BFC0198F8
:10CAB000FDF7B8FC019838B1FEF73CFE072805D019
:10CAC000204600F0ADFC284603B0F0BD3A4601997F
:10CAD0003046FFF739FEF7E7022810B50C4607D0BD
:10CAE00003280DD088B90846BDE81040FFF766BDA1
:10CAF0000AF0D2F8844208D1BDE81040FDF7BCBC72
:10CB00000846BDE81040FFF7CFBD10BD031F10B5AC
:10CB10000C46032B10D8DFE803F00B0206060120B9
:10CB2000FFF7BAFF60B92046BDE81040FFF7BCBD73
:10CB3000BDE81040FEF7B6BDBDE81040FFF7CCBF22
:10CB400010BD052810B50C4608D10320FFF7A4FF3F
:10CB500040B92046BDE81040FFF7A6BDBDE8104033
:10CB6000FFF7D4BF10BD042838B504460D460CD0DD
:10CB700005280ED0063818BF0120FEF705FD29460E
:10CB80002046BDE83840FFF7C1BFBDE83840FEF79A
:10CB900089BD0420FFF780FF10B92846FFF784FD08
:10CBA0000120BDE83840FEF7EFBC0000031F73B55D
:10CBB0000C46032B47D8DFE803F03B02424202ADAC
:10CBC000002345F8043D4FF0FF312846FDF7AAFB4E
:10CBD00001981E4EFDF726FC019830B1FEF7AAFD24
:10CBE000082814D0284600F01BFC0AF055F88442AF
:10CBF00001D1FDF741FC0023C6F89830144B9C424C
:10CC000003D10121204609F06DFF02B070BD019BE8
:10CC10009A79B44202F10C02134414BF06F1A8023F
:10CC200004F1560293F90510907BFEF7EBFCD9E76F
:10CC3000084B1B6811205978FDF774FFE5E708469B
:10CC4000FFF732FDE1E7FFF747FFDEE7104A00207C
:10CC50008C4A002060490020430803F05533C01A75
:10CC600000F03333800800F03330184400EB10102C
:10CC70004FF0013300F00F305843000E70470000B2
:10CC8000034B04480021C3E90011282217F04FBECE
:10CC9000281F0020D44A0020084A5168C84390FA4F
:10CCA000A0F0B0FA80F00428DFBF012383400B43DB
:10CCB00040B2D4BF53604FF0FF307047281F0020B0
:10CCC00070B50E460546FFF7E7FF054B044600B278
:10CCD0003246294603EBC00000F087F9204670BDBC
:10CCE000D44A002010B5C4B2042C15D8042303EB99
:10CCF000C0000A4B184450E8003F0B4340E80032A4
:10CD0000002AF8D101220649A24051E8003F13430E
:10CD100041E800300028F8D110BD00BFD44A0020FF
:10CD2000281F00202DE9F3411D4C1E4B1E4D2146AE
:10CD3000012608274FF0040C206828B31A7806FA59
:10CD400002F2024223D0D24351E800EF02EA0E0E73
:10CD500041E800E00028F7D11A7817FB02C22A4404
:10CD600052E800EF42E80008B8F1000FF8D1CDF822
:10CD700004E0BEF1000F0AD018780C4901AA05EBB7
:10CD8000C00000F079F9012002B0BDE8F081187808
:10CD90004A6890422BBF002201301A701870CBE70E
:10CDA000281F0020301F0020D44A0020785634125B
:10CDB000024B1868003018BF01207047281F002060
:10CDC0002DE9F0479DF824900A9F82464846884600
:10CDD00016461D4600F0FAF9044678B92FB13146DF
:10CDE0004046B8474FF4C17027E0002EFAD0B8F1A2
:10CDF000000FF7DB304600F075FDF3E7089B036199
:10CE0000134B46611B68C0F80880C0F800A080F88A
:10CE10001890C0E9075798470E490E682B18E36031
:10CE20003246002032B1D568ED1A002D07DBD568F7
:10CE3000AB4204D038B966600C60BDE8F087556835
:10CE400010462A46EEE74368636044600020F4E73A
:10CE5000401F0020381F0020054B1B6833B1DB68E2
:10CE6000181A0028CCBF00200120704718467047D0
:10CE7000381F002010B5094B1A684FF0FF310AB96E
:10CE8000084610BDD2E9033423441B1A23F00043A3
:10CE9000994228BF19465268F1E700BF381F0020A9
:10CEA00010B5044670B1036A416963B18068984760
:10CEB000207E00231428636104D8214600F09CF9E9
:10CEC0001523237610BD0029F2D08368002BEFDBF9
:10CED000084600F007FDEBE7044A00231360044A0C
:10CEE0001160024624210A2000F02AB9381F0020D0
:10CEF000401F00202DE9F84F134D2C6880468946CD
:10CF000092461F4600260CB9BDE8F88F23684345BA
:10CF10000ED1A36823F000434B4509D11FB96368C4
:10CF20004EB92B6008E051466069B8470028F6D03A
:10CF300026466468E7E77360D4F804B02046FFF73C
:10CF4000AFFF5C46DFE700BF381F002000231A4612
:10CF5000FFF7D0BF7FB50D46144608B1066846B945
:10CF600024B1002D02DB204600F0BCFC4FF4C6705B
:10CF700008E0002402949DF824400194089C009449
:10CF8000FFF71EFF04B070BD13B50A240194049C82
:10CF90000094FFF7DFFF02B010BDF0B585B00E467C
:10CFA00015460B9C08B1076877B92CB12946304665
:10CFB000A0474FF4C6700EE0002DFAD0002EF8DB2B
:10CFC000284600F08FFCF4E702940A2401940A9C9E
:10CFD0000094FFF7F5FE05B0F0BD07B50023009300
:10CFE000FFF7D2FF03B05DF804FB70B504460C20D8
:10CFF0000E46154600F065FC30B123680360C0E9B9
:10D0000001652060002070BD4FF4C170FBE72DE981
:10D01000F041064600680F469046002408B9BDE876
:10D02000F081D0E90053BB4207D18368434504D166
:10D0300034B9356000F056FC204604462846EDE73A
:10D040002560F7E738B50B4B04461B68006813B939
:10D0500050B9206038BD1A68944202BF9A6802F045
:10D0600000429A605B68F2E7056800F03BFC2846E6
:10D07000EEE700BF381F00202DE9F8430E461746A3
:10D08000054610B90020BDE8F8830468002CF9D0EB
:10D09000D4E90089A0683B4632462946C847444641
:10D0A0000028F3D0EFE700002DE9F0471A4D1B4FA1
:10D0B0001B4E2860B8462A683C6801E054B93460C9
:10D0C0001046FFF7C9FE0028F8D11046BDE8F0472A
:10D0D000FFF7D0BE6368C8F80030A368346033F04F
:10D0E000004305D13068FFF7DBFE00233360E2E741
:10D0F0002368002BF6D018680028F3D0A26832F01D
:10D100000043EFD0D0E9009A636921688068D04776
:10D110000028E7D14846EFE73C1F0020381F0020D9
:10D12000341F002024207047044B1B6823B1DA69A8
:10D1300002601B690B6070470360FBE7341F00202F
:10D140002DE9F047194E1A4B4FEA001906EB090575
:10D1500003314FF6FC770F4000241FFA82F81B685A
:10D1600026F8097002FB07F0A5F80280EC609246F1
:10D17000984718FB07F292B22A812146686017F09F
:10D18000D6FB21462246B446924501EB070405DC56
:10D190000CEB0906A6F80280BDE8F0876868EE6827
:10D1A00046504318EB6001322146EDE7FC47002072
:10D1B000441F0020034B0201C3E900100021024874
:10D1C00017F0B5BB441F0020FC470020054B03EBC4
:10D1D0000013D86820B10268DA605A88013A5A8090
:10D1E000704700BFFC470020024B03EB0010807823
:10D1F000704700BFFC470020044B03EB0010C368DE
:10D200000B604388C160013343807047FC470020B6
:10D21000044B00011A18185A10B11389B3FBF0F02F
:10D22000704700BFFC4700202DE9F04105460E463F
:10D230009046F6F76FF8012D07460ED12846FFF706
:10D24000E7FF1C4B0C381B6898420DDC3846F6F79C
:10D2500065F800242046BDE8F0812DB90120FFF7D4
:10D26000D7FF154B0638EEE70120FFF7AFFF044666
:10D27000E0B1002383804279867142F0080246447F
:10D2800063F30002012DC671036005714271836072
:10D2900007D1084A1368013313603846F6F73EF8A1
:10D2A000D8E70DB9044AF5E7044AF3E7044B012235
:10D2B0001A70F2E74C1F0020541F0020501F00205E
:10D2C0005C1F0020054A00231370054A1360054ABD
:10D2D0001360054A1360054A136070475C1F002005
:10D2E000581F0020501F0020541F00204C1F0020FA
:10D2F00008B500221146FFF797FF08BD5318452BCC
:10D3000002DCC9B2FFF790BF0020704738B5044671
:10D3100000282DD0F5F7FEFF63796FF3C303637127
:10D320002379012B054613D1124A1368013B136080
:10D330006379DB0721464CBF03200120FFF75CFF28
:10D340000D4B1A784AB92846BDE83840F5F7E6BFD4
:10D350000BB90A4AE9E70A4AE7E700221A70094BC3
:10D360001C68002CEFD06368204698472468F8E7D3
:10D3700038BD00BF4C1F00205C1F0020541F002040
:10D38000501F0020581F0020C279C2F14503994266
:10D39000A8BF1946C9B20A44C2710846704738B5D9
:10D3A0000546C079C0F14504944228BF14460C30AC
:10D3B0002246284417F097FAEB792344EB71204674
:10D3C00038BD2DE9F0410C46064628B334B3A179A7
:10D3D000E5796D1A9D4207D30C3119442144ED1AA9
:10D3E00006EB0208374614E05B1B2468EEE77B1966
:10D3F000984538BFA8EB070538462A4617F073FA58
:10D4000024682F443CB1A379E57903F10C01214450
:10D41000ED1AB845EBD8B81BBDE8F0812046FBE714
:10D4200038B50446206800B938BD0568FFF76EFFBF
:10D430002560F7E7F7B5002605460F4601960DB9BA
:10D44000019C09E0002211463846FFF7EDFE044634
:10D4500028B901A8FFF7E4FF204603B0F0BDA87982
:10D46000A071EB79E3716B796279C3F3400363F3E5
:10D47000410262716B79D2B2C3F3800363F382021B
:10D480006271AB79EA7903F10C010C30D21A2944AC
:10D49000204417F028FA019B03B9019406B13460C7
:10D4A0002D682646CBE710B5034660B100681968C1
:10D4B00009B10A680AB9002204E05479A40703D527
:10D4C00000240C601A6010BD1A60F0E770B50D46BC
:10D4D0000446D0B186798E4203D3751A8571012036
:10D4E00070BDC279921BC2F1450399420DDC06F171
:10D4F0000C010144A81B084417F000FA0023A37193
:10D50000E3791D44AD1BE571E9E70020E8E738B594
:10D5100004460D46FFF7DAFF60B94CB12079FFF7FA
:10D52000E7FE20B145235D1B0460C371857138BDE2
:10D530000120F4E72046FAE7F8B5C4798379E41AC4
:10D540008C4205460F4601DC0020F8BD0079FFF74C
:10D55000CFFE06460028F7D0AB7980790C33E41B68
:10D56000D919A4B20C3022462944304417F0BBF933
:10D57000F379E4B22344F371EB791C1B2B68EC7153
:10D58000012033602E60E0E7F8B5066807460D46D7
:10D590003446002305B12CB90BB100221A603C605F
:10D5A0003046F8BDE379A2799B1AAB4207DCA37938
:10D5B000E2799B1A1D44EDB223462468EAE7294626
:10D5C0002046FFF7B9FF0028F1D10646E8E70368D7
:10D5D0001BB11A68026000221A60184670470346A1
:10D5E000002003B97047DA7999791B68521A104400
:10D5F000F7E7F8B5164604460F46FFF7F0FFB042CE
:10D6000012D24FF0FF3013E0A079E5792D1AB54220
:10D6100028BF35460C302A463946204417F054F9C5
:10D6200030B924682F44761B1CB1002EECD1304653
:10D63000F8BD2046FCE72DE9F84F8946174682469B
:10D64000FFF7CDFF04464846FFF7C9FFA74206DCB7
:10D65000874207DC0024A346A046264639E08442E0
:10D6600002D03BDB012037E0E7B2F3E75EB99AF87E
:10D6700006809AF80760A6EB080608F10C08D0446B
:10D68000DAF800A0F6B2BBF1000F0AD199F8064013
:10D6900099F807502D1B0C344C44D9F800905FFAD0
:10D6A00085FB5E45354628BF5D46BD4228BF3D46E9
:10D6B0002A462146404617F007F968B9A8442C4489
:10D6C000EDB27F1B761BABEB0505FFB2F6B25FFA3E
:10D6D00085FB002FCAD13846BDE8F88F4FF0FF30E8
:10D6E000FAE7036813B90160704713461A68002A05
:10D6F000FBD1196070472DE9F8430E4615460746E1
:10D7000038B341B3F2B104462368F3B9A146A84641
:10D7100034B92246B9793879FFF786FD044678B1E5
:10D72000424631462046FFF73AFE4C45A8EB00083A
:10D7300018BFC9F800400644A146B8F1000F06D151
:10D74000A5EB08052846BDE8F8831C46DCE7002465
:10D75000DFE70546F6E70D46F4E737B51546C9B2EB
:10D7600000221C46FFF760FD019040B12246294689
:10D77000FFF7C1FF844202D901A8FFF751FE0198CB
:10D7800003B030BD38B505460C4684B1286870B189
:10D79000C1798379C91A8AB2944206D303682B608F
:10D7A000641AE4B2FFF7B2FDEFE71C44847138BDA0
:10D7B000F8B5036806460C4693B9F8BD05463846E9
:10D7C0000768002FFAD1C1798379CB1AA34202D915
:10D7D000091BC171F1E7E41AFFF798FD3DB12F6015
:10D7E000002CEAD030680028E7D00025E8E7356053
:10D7F000F6E7F8B50446002704B9F8BDA179E57944
:10D8000001F14506761BB6B20EB92468F4E749B1BA
:10D810006D1A0C312A46214404F10C0017F06EF801
:10D82000E571A7712368002BEFD05A799207ECD4E9
:10D830009979DD79A079E2796D1AADB2B54200F13E
:10D840000C0028BF354610440C312A4619442044A8
:10D8500017F049F8E3792068761BEDB22B44E371A9
:10D8600083791D44C379EDB2AB42B6B2857103D161
:10D8700003682360FFF74AFD002ED3D1C5E70000FF
:10D88000054B064A1868064B1B681B0443EA002335
:10D8900010681843704700BF541F00204C1F002021
:10D8A000501F002010B50446F5F734FD034B1A68ED
:10D8B00022601C60BDE81040F5F730BD581F002005
:10D8C0007047033038B520F00304204609F0F6F91C
:10D8D000054618B12246002117F029F8284638BD20
:10D8E000FFF7EFBF09F008BA012A10B50C461FD1A7
:10D8F0008B68190613D5DA0511D443F48073A3603D
:10D900000420FFF7DEFF024648B194F84E30037062
:10D91000A389438040F20B210648FFF75EFB2046B7
:10D92000FFF790FB02202146FFF766FC012010BDA7
:10D930000020FCE7B81F00202DE9F0410646022038
:10D94000884615461F46FFF741FC044638B3582267
:10D95000002116F0ECFF84F852803368C4F83E30A2
:10D96000B388A4F8423084F851702B68A363FF2277
:10D97000AB8884F8552084F856200D4AA387106898
:10D980000023236163610133DBB2014651B984F89E
:10D990004E3040F6FF73A4F84C30606014602046AF
:10D9A000BDE8F08191F84E509D42ECD04968EDE71A
:10D9B000FC4A002008B1A0F84C10704730B1012398
:10D9C0008B4090F84F10194380F84F1070470000BB
:10D9D00038B5044600283AD001238B4090F84F1008
:10D9E00021EA030149B280F84F1081BB10211830A1
:10D9F00009F060FE204604F063F904F12800FFF707
:10DA00000FFD204605F09EF8114A13681BB1A34292
:10DA100015D163681360A36813F4806517D143F4CC
:10DA200080632A46A3600B492046FFF7DEFA2A46A8
:10DA300020460121BDE83840FFF7CFBA13465A68A7
:10DA4000002AE8D0A242F9D162685A60E3E738BD03
:10DA5000FC4A0020E9D80000054B1B680BB91846AA
:10DA60007047B3F84C208242F9D05B68F6E700BFFC
:10DA7000FC4A0020054B1B680BB91846704793F809
:10DA80004E208242F9D05B68F6E700BFFC4A0020D6
:10DA90000A4B70B51C6805460E460CB9204670BD91
:10DAA00094F85130B34207D10622294604F13800D8
:10DAB00016F00AFF0028F1D06468EEE7FC4A002067
:10DAC00038B50B4B1C6805460CB9204638BD94F898
:10DAD0005030042B09D1002DF7D00322294604F140
:10DAE0003B0016F0F1FE0028EFD06468ECE700BFC1
:10DAF000FC4A002010B9024B186870474068704714
:10DB0000FC4A0020014B00221A607047FC4A0020AA
:10DB10000246002358210220FFF712BB0220FFF724
:10DB200063BB0000074A1379834208D9012303FA33
:10DB300000F01368184214BF012000207047002035
:10DB4000704700BF801F0020044B1B68002003B9F2
:10DB50007047DA0748BF01305B08F8E7801F0020F4
:10DB6000014B1879704700BF801F0020034A0C2129
:10DB7000507143F6FF70F7F783B900BF801F002094
:10DB8000014B1868704700BF801F002070B5064623
:10DB900015461C46FFF7C6FF60B16FEA41406FEAC9
:10DBA000504040EA06202A46214680B2BDE8704037
:10DBB000F7F766B940F2122070BD0000102A2DE977
:10DBC000FF410F46164621D86FEA4045DFF84480F2
:10DBD00000246FEA55450123D8F80020A3401342E2
:10DBE00011D045EA04206A46F1B280B2F7F756F93F
:10DBF00048B932463946684616F066FE18B960B232
:10DC000004B0BDE8F0810134202CE4D14FF0FF30A6
:10DC1000F6E700BF801F002070B5064615461C467B
:10DC2000FFF780FF10B90024204670BD6FEA414124
:10DC30006FEA514141EA06202A46214680B2F7F7B1
:10DC40002DF90028F0D0EEE7431C73B504461BD134
:10DC500008F0CAFC4FF400410846F7F75BF92C4B7B
:10DC60002C4800221A602146202216F060FE284A25
:10DC70000C2143F6FF70F7F703F9264A20213820DC
:10DC8000F7F7FEF8002004E0FFF74CFF18B94FF457
:10DC9000C97002B070BD06236A4600212046FFF716
:10DCA000BBFFF8B16946002008F0A4FC1A484FF405
:10DCB0007F4140EA04200840F7F72CF9144B012279
:10DCC000E1B202FA01F11A6822EA01021A601B7934
:10DCD000104A0020013B0546C1B299420DDBFF21ED
:10DCE000D154C4E706236A4601212046FFF794FF7A
:10DCF0000028DBD069460120D6E75656A64200D060
:10DD000025B1551895F90150555401250130E3E727
:10DD1000801F00205D1F00200080FFFF70B5B8B19C
:10DD2000202828BF20200446032263000D4D93FBCA
:10DD3000F2F30D4A13702B79A34226460ED82C71AC
:10DD4000084A0C2143F6FF70BDE87040F7F798B819
:10DD50000124E9E770B2FFF777FF01362B79B34270
:10DD6000F8DCECE7801F00208C1F00202DE9F34138
:10DD7000344C0646FFF7E8FE227990421EDB6379B9
:10DD8000012B3AD100274FF0FF383D4610E02368C1
:10DD9000EB40D9070BD508236A46194668B2FFF74E
:10DDA0003BFF20B1019B43453CBF2F4698460135C0
:10DDB00023799D42EBD378B2FFF746FF2368002515
:10DDC000012202FA05F73B4238D13B432360A368A6
:10DDD0001C4A0133A3600C21336043F6FF70F7F750
:10DDE0004FF898B1236823EA07032360A368013B37
:10DDF000A36033604FF0FF3517E0022BFAD1124BCE
:10DE0000134413F9010D421CFBD0D5E723790E4AC8
:10DE1000013B52FA83F3114693420AD16DB20D7061
:10DE2000094A20213820F7F72BF8284602B0BDE830
:10DE3000F08113F8010C03F80109EDE70135202DFD
:10DE4000BFD1D7E7801F00205D1F002073B50C4DA8
:10DE500000242B79A34201D802B070BD2B68E340A7
:10DE6000DB070AD566B208236A4619463046FFF733
:10DE7000D3FE10B93046FFF7E7FE0134E9E700BFF3
:10DE8000801F002010B5124C0C21224643F6FF7073
:10DE9000F7F704F820B100230E222360A280A360CC
:10DEA0000C4A20213820F6F7F9FF28B120224FF044
:10DEB000FF31084816F03BFD237903225B0093FBFA
:10DEC000F2F3054A1370BDE81040FFF7BFBF00BF73
:10DED000801F00205D1F00208C1F002070B4114B9C
:10DEE000114C19790023DAB2914204D9E6568642E0
:10DEF00003F101050CD10D490978914210D80A4A65
:10DF000043B910702021084A382070BCF6F7B8BF1A
:10DF10002B46E8E7D11811F9011CD154013BEFE77A
:10DF200070BC7047801F00205D1F00208C1F0020E8
:10DF300002463720F6F7A4BF10B5024637200C463C
:10DF4000F6F7ACFF00280CBF2046002010BD1FB51F
:10DF50000446FFF7E7FD40B110236A46032120463F
:10DF6000FFF75AFE003018BF012004B010BD0000BA
:10DF700010B5094B2C2093F83820596800239342A0
:10DF800001DB002010BD00FB0314E468240701D46A
:10DF90000133F4E70120F5E7004B0020012807D109
:10DFA000487900F0C000A0F1400358425841704742
:10DFB00000207047002202490248FFF716B800BF50
:10DFC000CDE50000B81F0020294B2DE9F04F5A681D
:10DFD00000241C7025464FF0A00C4FF4A07E4FF09B
:10DFE000070801264FF07F094FF0100A4FF4807B9D
:10DFF00093F83870A7421FDC10225A829A82DA8383
:10E000001A8402F520129A604FF4C802DA600122E5
:10E010001A7404221A77174A9A620022C3E90C2262
:10E02000DA6B83F82C0042F40072DA634FF470620A
:10E03000A3F84020BDE8F08F002914BF5F460F46CB
:10E0400015705570C2E901CE82F8258082F82650FD
:10E05000C2E905559583D58382F8226082F8236052
:10E0600082F82790C2F810A0D76001342C32BFE7A5
:10E07000004B0020104B002010B504460C20FFF789
:10E0800020FC024630B394F84E30037094F85430BC
:10E0900003F00B03032B17D00B2B17D0012B17D139
:10E0A0001372B4F844305380B4F84630D380B4F8D7
:10E0B00048309380B4F84A30538140F20311064847
:10E0C000BDE81040FEF789BF0223E9E70323E7E735
:10E0D0000023E5E710BD00BFB81F0020F8B51B23E3
:10E0E000A0F84A3090F85630FF2B044603D190F840
:10E0F0005330012B6DD1A368DB0713D404F1380230
:10E10000114694F85100FFF749FF58B194F9553082
:10E11000013307D1042384F850301046BDE8F8409D
:10E1200001F01CBC022384F8503094F85330294E7F
:10E13000012B24D1F36B23F02003F363204601F07D
:10E140003FFC0420FFF7BDFB024628B1046040F20B
:10E1500006212148FEF741FF0420FFF7B2FB0246EB
:10E1600028B1046040F202212046FEF736FF204627
:10E17000FFF782FF2046BDE8F84004F0B3BA20461E
:10E1800004F0A4FE94F8565077682C2315FB03F591
:10E190007E19F36823F00803F36004F0FFFC98B1E4
:10E1A00094F9553001330FD1A368795D727894F8F2
:10E1B000560043F40073A36001F064F92046052182
:10E1C000BDE8F84003F047BF00212046FFF7F6FB0B
:10E1D000B4E7F8BD004B0020B81F002038B5054655
:10E1E00002200C46FFF76DFB024688B1611EC9B2E2
:10E1F00095F84E3003700A2996BF064B00235B5CEE
:10E20000437040F207210448BDE83840FEF7E5BE00
:10E2100038BD00BFC64C0200B81F002037B5044609
:10E220000D4601F0E5F928B3244AD36B23F002032D
:10E23000D36301F0DDF9024670BB01F0EFF902464D
:10E2400070B184721E4B0193002440F201110094BE
:10E2500023461C48FEF7A1FE2146204601F0CEF9D8
:10E260000020FFF72DFC38B3383003B0BDE8304054
:10E2700001F074BB01F0D2F90028D5D12846FFF790
:10E280001FFC0028ECD0826880F8554042F0010263
:10E290008260FFF723FFE3E70025094B847240F219
:10E2A0000111019300952B460648FEF776FE29469C
:10E2B000284601F08DF9C0E703B030BD004B0020C7
:10E2C00031630100B81F0020F7B591420D46144696
:10E2D0001E46BDF8207003D94FF4C07003B0F0BDE6
:10E2E0008B1F9BB240F67A429342F5D8B4F5486F43
:10E2F000F2D8B6F5FA7FEFD2A7F10A039BB240F647
:10E3000076429342E8D806FB0443B3EB870FE3DA87
:10E31000FF2806D1134B002019815C819E81DF818B
:10E32000DCE7FFF7A7FB0028D6D090F85130102B80
:10E33000D2D090F85330012B0BD1009733462246B0
:10E34000294603F0ADFE002840F2811018BF0020DE
:10E35000C4E7334622462946089703B0BDE8F0409B
:10E3600004F0D6BA004B002010B50C46FFF782FB34
:10E3700030B12146B0F84C00BDE8104003F0EBBFCF
:10E380004FF4C07010BD10B50C46FFF773FB30B1F1
:10E390002146B0F84C00BDE8104003F0F0BF4FF448
:10E3A000C07010BD11F0F00F13B50C4603D04FF440
:10E3B000C07002B010BDFFF75DFB0028F7D014F06D
:10E3C000040204F003031CBF022243F004032107EC
:10E3D00044BF42F0010243F00403009200211A46B8
:10E3E00003F084FFE5E70000064B93F82C3003426E
:10E3F000024604D0984302D1114603F05BBF4FF4AC
:10E40000C0707047004B002058B1074B93F8402074
:10E41000012A06D153F8422F02609B888380002096
:10E42000704740F281107047004B002037B5154C03
:10E43000E36B1B0624D494F840300BB3062104F19F
:10E44000420004F03BFD237813B9FFF791FDB8B10A
:10E450000D4B94F841004FF47A72A0FB03010023A6
:10E4600016F062F80025034600952A464FF48271A3
:10E470000648FEF789FD18B9E36B43F08003E363B8
:10E4800003B030BD004B002000003075B81F0020E5
:10E4900073B52D4E738F354613B1002002B070BD99
:10E4A000F46BA205F9D4630615D514F4826F12D06B
:10E4B00096F8400006F1480306F1420201280CBF1D
:10E4C0001046184603F064FCF36B708723F48863EE
:10E4D000F3630120E2E72007DFD514F0100108D133
:10E4E000084603F04FFDEB6B688743F01003EB63C6
:10E4F000EFE7A86A8368590719D5E20515D495F89E
:10E500004060731E5E425E41C4F34034838842889B
:10E5100081790078CDE9006403F00EFDAA6A68876E
:10E52000936823F004039360D3E70126ECE72B788C
:10E5300024F01804EC63002BAFD00121084603F04F
:10E5400021FD6887C5E700BF004B00200128F8B512
:10E5500005460F4630D81B4C237883BBFFF708FDD8
:10E56000064660BB94F84030AB4223D0012D84F8BE
:10E57000405016D1062104F1420004F09FFC0546EC
:10E5800018B184F840602846F8BDE36B002F08BF3F
:10E590000F2743F0400384F84170E363FFF778FFEF
:10E5A000F1E74FF482710848FEF7D0FCE36B23F0EB
:10E5B0008003E3633546E6E74FF4C075E3E740F2D6
:10E5C0008115E0E7004B0020B81F0020052A70B538
:10E5D00016D003D8032A0BD0002028E0B2F5827FA2
:10E5E00019D040F205139A42F6D101F06DF9F3E724
:10E5F0001D4AD36B23F40073D363FFF749FFEBE7A6
:10E60000194A1B88518F99424FF000000FD1508753
:10E61000FFF73EFF0AE0144CE36B23F08003E36353
:10E62000FFF704FF94F84030012B1AD0012070BD91
:10E6300006FB05F36168CA18CB5C2BB1D36843F0C5
:10E640000603D36000F08AFC013594F838309D420F
:10E65000EEDB2378002BE9D0E36B43F04803E36360
:10E66000D6E700252C26F0E7004B0020094B1A784E
:10E67000013A022A10B509D8DA6B42F008020024E8
:10E68000DA631C70FFF704FF204610BD40F28110D2
:10E69000FBE700BF004B002008B503F0DCFC0020C6
:10E6A00008BD836837B59A05044658BF43F0800318
:10E6B000A1810D4658BF83600021FFF789F994F8C6
:10E6C0005030042B09D002AA40F2032142F8084D31
:10E6D0002046ADF80450FEF7CFFC03B030BD00007B
:10E6E00038B504460D4651B3A18190F85330164A0F
:10E6F000012B19D1D36B23F02003D3630820FFF73C
:10E70000E0F8024630B18580046040F201212046E5
:10E71000FEF763FCA36843F08003A360204600215A
:10E72000BDE83840FFF754B990F8561052682C23D2
:10E7300001FB0323DA6822F00802DA60DEE7BDE8B5
:10E740003840FFF7CBBC00BF004B002070B505463A
:10E750000C200E46FFF7B5F80446F0B1056095F8B9
:10E76000543003F001020271AAB103F002034371B5
:10E7700095F85530A37131462846268104F01AFBDE
:10E78000224628464FF40171FEF727FC2846BDE8D3
:10E790007040FFF771BC4271EAE770BD124A38B5AC
:10E7A000D36B1446D0B143F4A863D3630868906474
:10E7B0008B88A2F84C30FFF76BFE606800232C2595
:10E7C00094F83820591CDBB29A420AD905FB03039E
:10E7D000DA6842F00402DA600B46F1E723F4A06342
:10E7E000D363002038BD00BF004B00200448C36B3A
:10E7F00013F4807F034B00F1480008BF18467047B0
:10E80000004B00207C4B002070B50A4D95F840402D
:10E81000012C02460E4609D0FFF7E8FFE96BC1F371
:10E8200000213346BDE87040FFF786B805F142008D
:10E830002146F6E7004B00202DE9FF470D9E4A4C8C
:10E8400098460023338094F82C30184207468946B6
:10E85000924617D030EA030314D1012810D163681F
:10E8600094F838202C2111FB023100258B420ED167
:10E87000CDB1FFF753F9A84215D840F2092303E0C0
:10E880000428ECD04FF4C073338000251DE05A7883
:10E89000022A01D0042A04D1DA68120744BF0135E4
:10E8A000EDB22C33E2E7E36B980602D540F2811318
:10E8B000EAE71AF1000118BF01214846FFF7A4FF5B
:10E8C000054630B94FF4C1733380284604B0BDE823
:10E8D000F087237813BB3A1F504250410C2303FBAF
:10E8E00000439B69590719D5D4F83CE01EF4807F9A
:10E8F00037D194F840C00CF1FF33D3F1000C4CEB4E
:10E90000030C0C2303FB0040CEF3403E838A428A73
:10E91000817D007CCDE900CE03F00EFB0C9963896C
:10E920002289CDE90281E1890191A18900912846DE
:10E93000394603F041FB074630800028A5D1AB687B
:10E9400043F00203AB60E36B284643F02003E3632C
:10E9500004F0BCFAFFF76AFD39462846FFF72EF8A7
:10E96000B3E74FF0010CCCE7004B0020024BD86B13
:10E97000C0F30020704700BF004B0020052810B5F1
:10E980000ED100200246D31002F00704CB5C2341D5
:10E9900013F0010301D030B918460132252AF2D113
:10E9A0004FF4C07010BD084603F0A6FB0020F9E745
:10E9B000031F58425841704738B504460D46183079
:10E9C000FEF72EFDA5612846FEF709FEE368E08309
:10E9D00043F04003E36038BD07B502AB012203F802
:10E9E000011D1946FEF787FE03B05DF804FB2DE913
:10E9F000FF41022905460E461746ADF8063003D8FA
:10EA0000002004B0BDE8F0810DF10601022007F0FE
:10EA100095FD4FF6FF710246012001F0B9FC8046DA
:10EA200001F046F90028EBD0002441460DF10D031A
:10EA30000DF10E022046ADF80E4001F0EFFABDF8E0
:10EA400028108046BDF80E00884228BF08460146BF
:10EA5000B0429DF80D0028BF3146ADF80E100028D9
:10EA6000CED1A9B10131B142CBDAC9B22846FFF704
:10EA7000B3FF39462846FFF7AFFFBDF80E204146E9
:10EA80002846FEF738FE9DF80E000230C0B2B8E707
:10EA90000846B6E7F7B50C4602A94FF4285321F80B
:10EAA000043D0546022007F049FD4FF6FF7102467E
:10EAB000012001F06DFC074601F0FAF8B0B3022C1A
:10EAC00002D8002003B0F0BD00260DF103030DF1C4
:10EAD000060239463046ADF8066001F09FFABDF8EF
:10EAE0000620631E934207461EDC072C1AD9023CFF
:10EAF000ADF806400824BDF806100029E1D0013128
:10EB0000C9B22846FFF768FF21462846FFF764FF91
:10EB1000BDF8062039462846FEF7EDFDBDF8060093
:10EB20000230CFE7ADF806600924E4E74FF0FF308C
:10EB3000C8E7C368DB055ABF0069C0F300100020B6
:10EB400070470000144B10B55C682C2300FB034099
:10EB5000C3681C0715D51B0504D41F2A8CBF0020D1
:10EB6000012007E0BF2A12D84378042B03D1B1FA61
:10EB700081F0400910BD032B0BD1081C18BF0120E8
:10EB8000F8E7FFF7D6FF0028E7D1BF2AE6E7002025
:10EB9000F0E70120EEE700BF004B002008B5024679
:10EBA000FFF7C7FF20B95078023818BF012008BD11
:10EBB0000020FCE708B5C36813F48063024605D063
:10EBC000FFF7ECFFB0FA80F0400908BD4178042956
:10EBD00013D0006910F01000F7D092F8220001283D
:10EBE0000BD111780429F0D1918B1F2905D8D08B36
:10EBF0001F288CBF00200120E7E71846E5E700004A
:10EC0000F8B50F4E00232C27DCB25D1C96F8383087
:10EC1000A34200D8F8BD2046002103F037F90021B7
:10EC2000204603F04DF970687C4320441430FEF711
:10EC3000F7FB706820441830FEF7F2FB2B46E3E741
:10EC4000004B002010B500EB8001084C00EB4101A7
:10EC500084F838000023012289000720FEF770FAAB
:10EC60000720FEF7B3FA606010BD00BF004B002024
:10EC700038B50D461449044691F83800A04221D910
:10EC800055B91046FEF7E8FEE0B180F85640294637
:10EC9000BDE83840FFF724BD4A682C2004FB002063
:10ECA000C26822F00802C260826A5AB10021816201
:10ECB0001470558093804FF481710448BDE838404A
:10ECC000FEF78BB938BD00BF004B0020B81F0020F5
:10ECD0002DE9FF47044600F11409002548460E4679
:10ECE000FEF79EFB04F11800A583FEF799FBE58370
:10ECF0002046FFF75FFFA842284614BF4FF01F08C9
:10ED00004FF0BF08FEF7F4FA074600286DD0022145
:10ED1000FFF762FE01213846FFF75EFE31463846B6
:10ED2000FFF75AFE3846FEF75AFC86B2A8EB0601FA
:10ED3000012300930A2242F6072389B23846FFF7DF
:10ED400056FE0644B6B2A8EB060104231222009335
:10ED500089B242F604233846FFF749FE0644B6B2AC
:10ED6000A8EB0601384601F09BFB224B93F84020AC
:10ED70009A463AB9A8EB0000861BB1B23846FFF7B5
:10ED800089FE05462046FFF715FF10B96378032B6F
:10ED900022D04846FEF744FB67613846FEF71FFC69
:10EDA000E368A08343F02003E3609DB92046FFF7AA
:10EDB00001FF78B19AF840302846C3B9FEF798FAB7
:10EDC000039038B14146FFF765FE50B103992046E4
:10EDD000FFF7F2FD00200AE039462046FFF7ECFD80
:10EDE000E3E703A8FEF71CFBF4E74FF4C17004B09F
:10EDF000BDE8F087004B00202DE9F0411C4C94F851
:10EE0000383083420546884617462BD901B9E2B10E
:10EE10002C26636815FB06F633449B6A83B90620EB
:10EE2000FEF74FFD08B363681E44B06263682C2090
:10EE300005FB003080F8248007840020BDE8F081C5
:10EE4000B8F1000FF2D1002FF0D163682C2615FB2A
:10EE500006F63344986AFEF745FD63681E440023B6
:10EE6000B362E3E74FF4C070E8E74FF4C170E5E741
:10EE7000004B0020F0B4174C9DF8107094F83850F7
:10EE8000854222D965682C2400FB0454E5682E06CF
:10EE90000BD4A1F1200C4FF6DF76B44515D8A2F1C2
:10EEA000200CB44511D891420FD866688E4202D129
:10EEB000A668964204D0C4E9011245F00105E56058
:10EEC00039461A46F0BCFFF797BF4FF4C070F0BC4C
:10EED000704700BF004B0020064B93F83820824259
:10EEE00081BF5A682C2300FB032090F8240098BFB0
:10EEF00000207047004B0020064B93F838208242D8
:10EF000081BF5A682C2300FB0320008C98BF00208F
:10EF1000704700BF004B0020064B93F83820824218
:10EF200081BF5A682C2300FB032090F8260098BF6D
:10EF300000207047004B0020074B93F83820824296
:10EF400081BF5A682C2300FB0320C0688CBFC0F32C
:10EF500040200020704700BF004B00202DE9F04FFB
:10EF6000DFF8E881DFF8E8A195B04FF000094746E7
:10EF700098F838305FFA89F6B34203D8002015B00C
:10EF8000BDE8F08F2C25D8F8044075432C44E36885
:10EF90009B0705D500231A461946304602F0AAFF02
:10EFA000E368D80768D5DAF80000DAF80410BAF890
:10EFB000082011AB03C31A807B681D4414AA6B7828
:10EFC00002EB4303284633F80CBCFFF7F3FDEB6874
:10EFD000002800F0A08023F400634BF01001EB60E8
:10EFE000FB6BDB0500F1A58095F826B0BBF1010FA6
:10EFF00007D097F840B00BF1FF3CDCF1000B4BEB76
:10F000000C0BD5E901230B9395F825300C9395F95A
:10F0100027300D9395F82230012B5FFA8BFB89B2D4
:10F0200005D0022B03D0042B14BF0023032395F833
:10F030002350012D05D0022D03D0042D14BF00252F
:10F0400003253046CDE90E23FFF776FF0F9B06938D
:10F050000D9B05930023CDE90333CDE901B30C9B50
:10F060000093CDE907500B9B0E9A304602F0A6FEA6
:10F07000E36823F00103E360304600F018FC002849
:10F080007FF47DAFE3681D0742D5580715D594F886
:10F090002630012B50D111A9062008F0C3FA9DF8A3
:10F0A000493003F03F038DF8493011A9304602F092
:10F0B000D1FEE36823F00403E360E368990609D511
:10F0C0006169304602F0E2FE00236361E36823F0E9
:10F0D0002003E360E3685A0609D5A169304602F0CF
:10F0E000EFFE0023A361E36823F04003E360E368DD
:10F0F0009B070DD594F82430228C0121304602F074
:10F10000F9FE00287FF43BAFE36823F00203E360DD
:10F1100009F101092CE743F40063EB602B699906C0
:10F1200048BF4BF0200B5A0654BF59464BF04001E4
:10F1300056E74FF0010B64E7034997F840208B1F17
:10F14000012A08BF1946B1E7484B0020004B0020B8
:10F15000D24C020038B504461546A9B91430FEF762
:10F160005FF965612846FEF73AFAE368A08343F049
:10F170002003E360E3681B070AD52378042B07D13B
:10F18000BDE83840FFF7EABE1146FFF715FCF1E78E
:10F19000002038BD2DE9F041124D904695F83820F9
:10F1A000824206460F461C4618D91A46FFF7CAFC8B
:10F1B000A0B154B10021424623460846FEF7CDFADD
:10F1C000024610B94FF4C1700AE06B682C20394632
:10F1D00006FB0030BDE8F041FFF7BCBF4FF4C07044
:10F1E000BDE8F081004B00200C4B93F838208242A0
:10F1F00011D94A070FD05A682C2300FB032090F83E
:10F2000025308B4205D0C36880F8251043F00103F8
:10F21000C360002070474FF4C0707047004B00205F
:10F2200038B5114D95F838308342044618D9FFF7A8
:10F2300083FE0B1C18BF012383420CD06B682C206B
:10F2400004FB0030C36841B143F40073C360C3687A
:10F2500043F00103C360002004E023F40073F5E7EA
:10F260004FF4C07038BD00BF004B002030B5194BC3
:10F2700093F8384084421D4629D993F82C3019421E
:10F2800025D0DC43214222D11A4220D022421ED175
:10F29000012901D004291AD1531E012B01D9042AB6
:10F2A00015D16C682C2300FB034090F822308B4270
:10F2B00003D190F82330934207D0C36880F822101E
:10F2C00043F0010380F82320C360002001E04FF4E5
:10F2D000C07030BD004B0020214B93F83820824293
:10F2E0003BD95B682C2200FB0233CA070DD5DA68D4
:10F2F000186922F4807210F0100FDA6001BF40F03C
:10F30000100042F001021861DA608A0709D51A6913
:10F31000900606D442F020021A61DA6842F0010237
:10F32000DA600A0709D51A69500606D442F040028D
:10F330001A61DA6842F00102DA6011F004000BD0C1
:10F3400093F82620012A06D0012283F82620DA68C5
:10F3500042F00402DA60002070474FF4C07070473A
:10F36000004B00201E4B93F83820824234D95B6852
:10F370002C2200FB0233CA070DD5DA68186922F483
:10F38000807210F0100FDA601FBF20F0100042F002
:10F3900001021861DA608A0709D51A69900606D554
:10F3A00022F020021A61DA6842F00102DA600A07EC
:10F3B00009D51A69500606D522F040021A61DA68AA
:10F3C00042F00102DA6011F004004FF0000105D0B4
:10F3D00083F82610084670474FF4C070704700BF8E
:10F3E000004B0020F8B51B4D95F838308342064697
:10F3F0000C4617462BD901F2F6439BB240F6EC12AD
:10F40000934224D806F08EFFA04202DA06F08AFF6B
:10F4100004460A20002C94FBF0F10BB23C805AB257
:10F4200005DA00FB114109B209B1013B5AB26B6820
:10F430002C2006FB003090F92730934205D0C3689A
:10F4400080F8272043F00103C360002001E04FF45F
:10F45000C070F8BD004B0020094B93F83820824261
:10F460000BD95A682C2300FB0320C36823F0080340
:10F4700043F00203C360FFF771BD4FF4C0707047E3
:10F48000004B00202DE9F047444F97F83830834275
:10F4900080460E46154603D84FF4C070BDE8F0878D
:10F4A0000429F9D8042AF7D8012AF5D04FF02C09FD
:10F4B000D7F804A010FB09F90AEB090494F82630E8
:10F4C000012B0AD1022AE7D0042AE5D094F8223091
:10F4D000012B04D1022D0CD127E0042AF6D1E368D8
:10F4E000D80520D42369DA06D6D4022DD4D0042D31
:10F4F0002AD0042E37D0012E2DD0022E14BF002189
:10F50000022141F004012046FFF7E2FB28BB0AF884
:10F51000096094F826306570012B30D1E36843F020
:10F520000403E3602FE0022DE1D12369DB06B3D5AC
:10F5300094F82230012BAFD1042E05D1A38B1F2BC1
:10F54000AAD8E38B1F2BA7D8FEF7E8FA0028D0D162
:10F5500040F20920A2E73146D3E74046FFF77CFF9F
:10F560004FF4C1709AE72046FFF7E3FA0028CED0A7
:10F57000A38B1F2B90D8E38B1F2BC8D98CE797F850
:10F580004030012BCAD0E36843F00B03E360FEF781
:10F590004DFFBDE8F047FFF7E1BC00BF004B002086
:10F5A0000A4B024693F82C0010EA02030BD032EA11
:10F5B000000008D112F0050F06D012F0FA0F0CBFB0
:10F5C0000120002070470020704700BF004B002042
:10F5D00038B50546054C39B1206B28B11430FDF71C
:10F5E0001FFF206BFEF77EF9256338BD004B00201E
:10F5F000014B186B704700BF004B002038B5054623
:10F60000054C39B1606B28B11430FDF709FF606B10
:10F61000FEF768F9656338BD004B0020014B586B5D
:10F62000704700BF004B00202DE9FF418578624EF6
:10F63000FF2D04461DD015F008051AD1F36B47695C
:10F6400023F001033846F363FDF7C9FFA0F1020878
:10F65000A84543DA4FF0FF3500239D428DF80F3067
:10F6600056DBAB1C012261690DF10F00FDF7A9FE0D
:10F670004EE0E51C2946607AFEF790FC002874D124
:10F68000607A002840F08C800622E11CFEF796FA92
:10F69000A072F36B23F0020343F00103F363E37AF8
:10F6A000012B05D0022B03D0032B0CBF0423002316
:10F6B000E372237B012B05D0022B03D0032B0CBF5D
:10F6C0000423002323733D4B019300230093224620
:10F6D00040F201113A48FDF760FC31E06B1C012259
:10F6E00039460DF10E00FDF76CFE9DF80E30012B32
:10F6F000B2D02B46012239460DF10F00FDF761FE15
:10F700009DF80F3013B101331D44A1E78DF80F3080
:10F710003378012B17D0022B22D0E51C2946607AC2
:10F72000FEF73CFC0028ABD0284600F017F978B172
:10F73000F36B012143F002032046F363FFF748FF18
:10F7400004B0BDE8F0819DF80F3013F0010FE4D153
:10F7500004F11400FDF764FE2046FEF7C3F8EFE75E
:10F760009DF80F3013F0030FF1E7316B31B1062232
:10F770000331284615F0A8F80028E9D1F36B9B0760
:10F7800004D501212046FFF739FFD9E7284600F0CC
:10F79000E5F80028DCD0F36B43F00203F363F0E7F5
:10F7A000012805D1237A03F0C003C02B3FF46CAFCE
:10F7B000FF23A3726DE700BF004B002031630100FF
:10F7C000B81F002038B504461546FFF7E9FED0B152
:10F7D000032918D9032D16D9A94214D3E30706D556
:10F7E0000A4B9A69598242F004029D829A6114F090
:10F7F000040007D0054B5A6AD98342F004021D84E5
:10F800005A62002038BD4FF4C070FBE7004B002067
:10F8100010B50446FFF7C4FE68B101290BD8E30711
:10F8200044BF064B997514F0040003D0034B00202D
:10F8300083F8221010BD4FF4C070FBE7004B00208E
:10F84000022938B5054626D8FFF7AAFE18B3154C8D
:10F8500023781BBB144B28465B5C2370FFF7A8F88A
:10F860000C23102213FB00202044A062836843F085
:10F8700004038360E36B43F00802E26394F84020E2
:10F88000012A04D143F04803E363FEF7CFFDFEF7FE
:10F89000FFFD002038BD4FF4C070FBE740F281103F
:10F8A000F8E700BF004B0020DC4C0200704700204E
:10F8B00070474FF4CB7070474FF4CB7070474FF4E4
:10F8C000CB70704770470000F0B5214C87B02546DB
:10F8D000012763781F2B2DD8FEF752F9667807FAB7
:10F8E00006F303422FD0102302AA062170B2FEF7BE
:10F8F00093F9102827D1174E002300933388ADF8D1
:10F9000003306946B3788DF8053002A803F0D8FAC1
:10F91000074678B90322F11E684614F0D5FF6378D4
:10F9200048B101333A4640F205110B486370FDF7C8
:10F9300054FB30B1FF23002206492A701846FEF717
:10F940006DFC07B0F0BD6B7801336B70C1E700BF91
:10F95000504B0020554B0020B81F002010B50D4C17
:10F960002278AAB90346627033F8031FA4F8051081
:10F970009B78E3710388638083780748237140F2A2
:10F980000511FDF72AFB08B901232370207810BD6B
:10F990000020FCE7504B0020B81F0020014BF7224D
:10F9A0001A8070479E100020A0F11703E82B9DBF1E
:10F9B000024B188000204FF4C07070479E1000204A
:10F9C00070B506465420FDF78BFF0446D8B10321DD
:10F9D0003046FDF7F3FF0025172374632246A3800A
:10F9E0000A492660257684F8345025653046FDF7AF
:10F9F000FCFA07F0BBFC2A46014604F10C00FDF7B7
:10FA0000F4FA02232375204670BD00BF05FB0000F9
:10FA100038B5054620B3446B14B300234363224634
:10FA20001049FDF7F4FA04F10C00FDF70BFB04F1AB
:10FA30000800FDF707FB04F12C00FDF7F1FC04F1D1
:10FA40003000FDF7EDFC04F15000FDF7E9FC204625
:10FA5000FDF748FF28460321BDE83840FDF7B8BF51
:10FA600038BD00BF05FB000038B5044604200D4634
:10FA7000FDF727FF024660B1204640F2014150F8F1
:10FA80000C3B93F84E3013705580BDE83840FDF7BD
:10FA9000A4BA38BD07B5002200924FF47023006865
:10FAA000FDF772FA03B05DF804FB0068FDF74EBA8B
:10FAB00038B5C36B5B0704460D4603D540F20941D8
:10FAC000FFF7F3FF2576204640F20941BDE83840B4
:10FAD000FFF7E0BF10B5037D012B044611D00120D4
:10FAE0002075FDF7EEFE024658B120464FF48161C5
:10FAF00050F80C3B93F84E301370BDE81040FDF702
:10FB00006CBA10BD40F203239A4210B5044635D0BA
:10FB1000B2F5017F09D240F201239A422ED040F281
:10FB200002239A4209D0002010BD6FF481631A4469
:10FB3000012AF8D8FFF7CEFFF5E707F03DFEB0B198
:10FB4000104B1988172912D9237E83B9E36B23F050
:10FB50000403E363204607F037FE40B92063122117
:10FB60002046FFF7A5FFE36B43F00403E363204661
:10FB700000F008F9204601F053FCD4E70846FFF7EF
:10FB800047FFD0E79E10002008B5FDF773FF00B1D6
:10FB9000406B08BD08B500B10068FDF7ABFF08B9C0
:10FBA000034602E0436B002BF7D0184608BD000067
:10FBB000074B1A6811680C2303FB001030F80C3C4B
:10FBC00019045ABFD26832F813000020704700BFF2
:10FBD000584B002010B50368044693F95500431CA8
:10FBE0000DD0FEF7B4F950B1206804F140021023A3
:10FBF0000B2190F95500BDE81040FDF7C7BF10BDBF
:10FC000078B100290CDB8B100F2B09DC184401F0B4
:10FC1000030190F840004900084100F003007047DC
:10FC200000207047024B428E1860024B1A807047CA
:10FC3000584B0020941F002018B9034B1B68188EE6
:10FC40007047024B18887047584B0020941F0020C3
:10FC5000044B28B9044A1268528E1A80002070475B
:10FC60001880FBE7941F0020584B0020024A1368BD
:10FC700023F0010313607047901F0020054B1B68A1
:10FC80001A680C2303FB002050F8043C5B681970D1
:10FC9000704700BF584B002030B1044B1B685B68B5
:10FCA0009842CCBF00200120704700BF584B002075
:10FCB00008B50246FFF7F0FF68B1074B1B681B68E9
:10FCC0000C2101FB0232054B32F8082C1B881A422A
:10FCD00014BF0120002008BD584B0020941F0020B5
:10FCE00070B5044642F6021542F603060134A4B28A
:10FCF0002046FFF7DDFF78B12046FFF759FFA84205
:10FD000008D1074B1B681B680C2202FB043414F853
:10FD1000020C70BDB042E9D14FF0FF30F9E700BFEF
:10FD2000584B00200F4B1B6870B51D680C2303FB5C
:10FD300000530C3BDA79012A044610D042F6030640
:10FD4000013CA4B2204664B1FFF732FFB042F7D1C4
:10FD50000C2000FB045454F8043C987801E09B68A4
:10FD6000187870BD584B0020054B1B681A680C238F
:10FD700003FB002010F8050CC31F58425841704780
:10FD8000584B002070B50368044693F95500431C96
:10FD900003D10E4B1B88638770BDFEF7D8F800288F
:10FDA000F7D0254604F1400255F8380B10230B21FB
:10FDB00090F95500FDF730FF20682A4604230C21F6
:10FDC00090F95500BDE87040FDF726BF941F002054
:10FDD0002DE9F04106460D460C4642F6021742F662
:10FDE00003080134A4B22046FFF762FF70B1204639
:10FDF000FFF7DEFEB84214D10E4B1B681B680C22C5
:10FE000002FB043414F8053C072B0DD02846FFF7FD
:10FE100067FF431C01460AD03046BDE8F041FFF7BA
:10FE2000EFBE4045DDD1F1E70320BDE8F0810020C1
:10FE3000FBE700BF584B00200D4B1A680C234343CF
:10FE400010680C3B1844C379042B04D8DFE803F096
:10FE500005080B0E0E000020704783681888704755
:10FE600083685888704783685B68F7E702207047AB
:10FE7000584B002070B5054608460E461446FFF75D
:10FE800017FF002871D0404B1B680C2019684643AF
:10FE90000C3EE307314429D54B88DE0767D5DA06E7
:10FEA00008D52A6892F85460F60766D5967C8A7958
:10FEB000964259D39E060AD5286890F8542002F03D
:10FEC0000302032A57D1807C8A79904259D358067D
:10FED0000CD52B6893F85420D2074ED593F95520B2
:10FEE00001324CD09A7C8B799A424AD3A60702D52C
:10FEF0004B8898073DD5620702D54B885B0738D5FC
:10FF000014F0060F27D04B88DE0508D52A6892F832
:10FF10005400C00731D5907C8A79904231D39E0538
:10FF20000AD5286890F8542002F00302032A22D14F
:10FF3000807C8A79904224D358050CD52B6893F89D
:10FF40005420D20719D593F95520013217D09A7C45
:10FF50008B799A4215D314F4006005D04B8813F4C2
:10FF6000006F14BF0020062070BD0120FCE70220B6
:10FF7000FAE70320F8E70520F6E70F20F4E708206A
:10FF8000F2E70C20F0E700BF584B002038B50546DB
:10FF900008460C46FFF78CFE002832D01E4B1B682B
:10FFA0000C20196844430C3C21444B88DA0408D5E2
:10FFB0002A6892F85440E40729D5947C8A799442BF
:10FFC0001ED398040AD5286890F8542002F0030242
:10FFD000032A18D1807C8A79904216D313F480408A
:10FFE0000ED02B6893F85420D20710D593F95520E2
:10FFF00001320ED0987C8B79984234BF0C200020BF
:020000021000EC
:1000000038BD0120FCE70520FAE70C20F8E70F20B7
:10001000F6E70820F4E700BF584B0020F8B51F466C
:10002000064600233B700C4615461380084636B939
:10003000FFF732FE30B901233B70002126E0FFF7C5
:1000400037FEF7E71B4B0C221B686243A2F10C0141
:100050001A680A44D379072BEFD801A151F823F08D
:10006000810001008700010091000100970001005C
:10007000B10001003B0001003B000100AD000100A8
:100080009168023101E09368596851B90846F8BD9A
:1000900093685968F5E7917A3046FFF7B1FD064954
:1000A00008802046FFF7C8FE2880EFE78023C3E7DB
:1000B0000249F6E7584B00208D1F0020DF4C02005C
:1000C0002DE9F0479AB0102280460F4601A8002182
:1000D00014F02DFC02200CF0C5FB01460BA80CF01F
:1000E00007FC802201A90BA82B4E0CF033FD012444
:1000F000B1464FF0000A33685B689C4206DD41461A
:100100000BA80CF0B3FD1AB0BDE8F0872046ADF89F
:1001100002A0FFF74DFD05461FB12046FFF7C8FDC1
:1001200060B3A5F520539BB2032B02D9B5F5245F2C
:1001300027D10DF1020221460DF101030020ADF897
:100140001440ADF81650FFF769FFBDF802200146D4
:1001500006A814F0C8FBBDF8022005A904320BA8BC
:100160000CF01EFD57B9D9F800301B680C2101FBBB
:100170000431022208390BA80CF012FD0134A4B29C
:10018000B9E705F55643FF339BB2042BF6D8ADF81B
:100190001440ADF81650DEE7584B002030B5144D32
:1001A0002B68DB0785B004461FD401216846FFF7A2
:1001B00087FF2B68102143F0010368462B6007F08E
:1001C00069FA0C4B1B681B680C2202FB043404AD5B
:1001D00054F8042C54686B461A4603CAAA4220609D
:1001E0006160134604F10804F6D105B030BD00BFCC
:1001F000901F0020584B00202DE9F04385B00546A4
:100200000E4617460393084655B9FFF745FD50B90A
:1002100003A8FDF705F90124204605B0BDE8F083E9
:10022000FFF746FDF3E7594A0C2411687443A4F123
:100230000C030C681C449046E179042907D0072977
:100240000AD071B903A8FDF7EBF80324E4E703A88B
:10025000FDF7E6F80624DFE703A8FDF7E1F88024C0
:10026000DAE73046FFF7E8FDB842814604D203A83A
:10027000FDF7D6F80724CFE7022908BFA368039843
:1002800008BFB3F8029050B1FDF7A9F982B2D119B5
:10029000494506DD03A8FDF7C3F80D24BCE7024677
:1002A000F5E7E379022B0DD0032B10D0012B06D1FB
:1002B000A3685868039900233844FDF782F8002D9D
:1002C00040D117E0A368586820F8021BF2E7039BAF
:1002D0009A79D979891A481E01284AD81A440229DC
:1002E000137B08BF527B94F808C014BF9BB243EA4B
:1002F000022325B9002403A8FDF792F88CE7D8F86B
:100300000010A27A89698A421FDA90080F281CDC43
:10031000284402F003025100032202FA01FE0CF00D
:10032000030C90F8402003EA0C0322EA0E028B40F3
:10033000134380F840300021284607F0DDFB2846B3
:10034000FFF748FCE379032B15D103A8667AFDF784
:1003500067F8A17A2846FFF753FCD8F80030D9692E
:100360000122034631F81610284600F07BFB0024DA
:1003700052E70D24BFE7039B95F8342000933146E4
:100380003B46284600F048FBF1E700BF584B0020F1
:100390000C4B1B6830B593B15C68A14200DDA1B283
:1003A0000C2508E01C6805FB004434F80C4C944212
:1003B00004D0013080B28842F4D9002030BD184604
:1003C000FCE700BF584B0020104B013070B51D6892
:1003D0000C2483B25C430C3C98B2884202D34FF6A3
:1003E000FF700CE06E68B342F9DC2E68012A365BC0
:1003F00006D9022A06D1022E02D1013880B270BD80
:10040000012EFAD90C340133E6E700BF584B002027
:100410002DE9F74F9A468B880E888DF80430814677
:100420001B0A0C46022001A990468DF8053006F003
:1004300085F883466588B54201D80A251DE05A46ED
:1004400029463046FFF7A4FF07460028F5D0294685
:10045000FFF7BAFF06463846FFF72AFC0028E9D026
:100460000DF103030DF1060239464846FFF7D6FDAC
:100470009DF803502DB1A8F80070284603B0BDE8E0
:10048000F08FA389BDF806209A42D3D1A16814F059
:100490001BFA0028CED1A8F80070AAF80060ECE79B
:1004A0002DE9F04F012987B0074640F3A680DFF819
:1004B000508101230026ADF804308C1E3546C1461C
:1004C0004FF4205AD8F800305A6AB24255DCA5429F
:1004D000C6BF24F0010502260326B5B106A96B1C90
:1004E00001F8163D01223846FDF705F906A901225B
:1004F00001F8176D3846FDF7FEF8D9F800302A46A6
:10050000196A3846FDF7F7F8641B01234FF000081D
:10051000ADF8043046464FF4205A4FF0100BD9F88E
:100520000030DA6A424548DC022CB8BF0224023CA3
:10053000A642CABF24F00F0607240624AEB106A9BE
:10054000731C01F8103D01223846FDF7D4F806A9C6
:10055000012201F8154D3846FDF7CDF8D9F80030E5
:100560003246996A3846FDF7C6F8A81906B1023036
:1005700005B1023007B0BDE8F08FBDF80420ADF83A
:1005800008205A681B6AADF80A2003EB460304935F
:100590000223ADF8143001AA0DF1060302A90020D0
:1005A000ADF80CA0FFF734FF28B9BDF80400FFF741
:1005B0007FFB00B10235013684E7BDF80420ADF8B9
:1005C00008205A689B6AADF80A2003EB08130493CD
:1005D00001AA0DF1060302A90020ADF80CA0ADF8A8
:1005E00014B0FFF715FF28B9BDF80400FFF760FB52
:1005F00000B1103608F1010891E70020BAE700BF0A
:10060000584B002010B50C4660B90846FFF744FB74
:1006100060B1084B1B6819680C2303FB041434F801
:100620000C0C10BD0846FFF743FBF1E74FF6FF70D7
:10063000F7E700BF584B002007B58DF80400000A0B
:100640008DF8050001A9022005F078FF4FF6FF7133
:1006500002460120FFF79CFE03B05DF804FB00009A
:1006600070B5054642F60520FFF7E6FFFFF738FBB9
:10067000014604462846FFF7C3FA10220646002129
:1006800005F1400014F053F93DB3002C25DB134B6A
:100690001B689B699C4220DA042394FBF3F30F2B25
:1006A0001BDC624202F003022B4404F0030458BF37
:1006B00054426400032202FA04F193F8402006F049
:1006C000030606FA04F422EA0102144383F84040C8
:1006D0002846BDE87040FFF77DBA70BD584B00203A
:1006E000024B186800B14068704700BF584B0020AB
:1006F000F7B504460C2016460F461D46FDF7E1F8F7
:10070000024620B908A8FCF78BFE03B0F0BD2046D6
:1007100040F2035150F80C3B93F84E301370089B95
:100720009360054B57801671D58001930023009389
:10073000FCF733FCE9E700BF31630100F8B504467C
:10074000082016460F461D46FDF7BBF8024670B15D
:10075000204640F2025150F80C3B93F84E30137093
:1007600016715780D580BDE8F840FCF736BCF8BD5F
:1007700038B5044604200D46FDF7A3F8024660B1E3
:10078000204640F2055150F80C3B93F84E30137060
:100790005580BDE83840FCF720BC38BD2DE9F34159
:1007A0001D469DF8203000240E46804690F83410F7
:1007B00080F83440174633B1324607F015F820462A
:1007C00002B0BDE8F0810C29ADF8063008D10DF17A
:1007D00006032A46394607F046F8BDF80600EFE75B
:1007E00008291FD10221092006F089FF04460028AC
:1007F000E5D08DF80460022201A9360A8DF8056063
:10080000FCF779FF2A4639462046FCF774FFA379A6
:100810002344AA1C5A732146404606F0ADFFADF8AA
:100820000650DAE70DF106032A46394607F001F8CB
:10083000D3E7F0B585B017460025012206460C46E1
:10084000ADF80E50FFF716FB8DF80D00002840D1D3
:10085000204607F0DDF810B12046FFF79FFC204648
:10086000FFF782FA40B13B4696F8342021463046E5
:10087000FFF764FF05B0F0BD204607F0DEF830B1A9
:10088000304607F0F3F841B22046FFF7F7F90DF1D3
:100890000D030DF10E0221463046FFF7BFFB9DF818
:1008A0000D305BB9BDF80E30BB4235BF0723DB1BF3
:1008B0008DF80D30C01928BFADF80E309DF80D2011
:1008C0000092BDF80E30024621463046FFF766FF23
:1008D000D0E72846F2E72DE9F04385B0002305462E
:1008E0000E460393144600F15007FAB103A8FCF733
:1008F00097FD3846FCF794FD002385F83430002C32
:1009000038D0234618213246284604F5806406F084
:100910006BFFA1B22846FFF72BFF25E04A46314680
:100920002846FFF769FCCDF80C8008BB3846FCF779
:10093000BAFD03900028D9D083790C331844B0F85D
:100940000160B0F803903046FFF70EFA039B9979E7
:100950000531804699710028E0D0009318224B465B
:1009600031462846FFF7C4FE002005B0BDE8F083FD
:100970000446BBE7284606F0DFFF2146CAE72DE91B
:10098000F8430E46C16B41F00801C163054630468D
:1009900090469946FFF7C6F9314607462846FFF7C5
:1009A00017FA17F0300F044610D083070ED03146E7
:1009B0002846FFF7EBFA48B100F5806084B2EB6B94
:1009C00023F00803EB632046BDE8F883F80609D559
:1009D000E10707D54B4642463146284606F0BAFFA6
:1009E0000446ECE7BA0613D5A30711D5EB8E7BB905
:1009F0004B4642463146284606F0C5FF04460028CD
:100A0000DDD1EE8640F20A412846FFF743F8D6E7EB
:100A100040F28114D3E70000F7B504460C201646D7
:100A20000F461D46FCF74DFF024620B908A8FCF70B
:100A3000F7FC03B0F0BD204640F2015150F80C3BEA
:100A400093F84E301370089B9360054B57801671D6
:100A5000D580019300230093FCF79FFAE9E700BFDC
:100A600031630100F8B50446082016460F461D46BE
:100A7000FCF727FF024670B1204640F2045150F8BF
:100A80000C3B93F84E30137016715780D580BDE83B
:100A9000F840FCF7A2BAF8BDF8B50D4E0F46318804
:100AA000054606F0B5FE3488BC4228BF3C46172CEC
:100AB000B8BF1724AC8006F07FFE38B9172C05D9D3
:100AC000A9882846BDE8F840FEF7CEBFF8BD00BFB4
:100AD0009E1000202DE9F04F074689B092468846C7
:100AE00009B1914208D9012342461021384606F047
:100AF0007BFE09B0BDE8F08F1299184605F01EFD87
:100B00000228834601D91023EEE70221112006F0C6
:100B1000F6FDBB8801939E1E063B9BB20690B6B2C3
:100B200045464FF0FF3402935A4651462846FFF798
:100B30002FFC814638B35A465146FFF745FC05461F
:100B40004846FFF7B5F8002848D04FF00003ADF84D
:100B500016300DF116020DF1150349463846FFF720
:100B60005DFA0199BDF81620053991420299D8BF66
:100B70000A46002C0346ADF816200BDBA24202D138
:100B8000E21CB2420ADB631C2BD106A8FCF748FC2E
:100B90000A23A9E7341F9442A8BF14462A0A8DF8F5
:100BA0001C908DF81F2007A904224FEA19290698E6
:100BB00003938DF81D908DF81E50FCF79CFD039B50
:100BC000069819462246FCF796FD043E4FF6FF7341
:100BD000361B9D42B6B2D6D00135ADB2AA45A3D2DE
:100BE000D1E706998B790B4404345C73384606F0E0
:100BF000C3FD7EE72DE9F04F054687B091469A4642
:100C0000884609B1914202D9012342462CE0184698
:100C1000109905F093FC02210190092006F06FFD68
:100C2000AB880590023B9BB200931F4640464FF0B5
:100C3000FF36019A4946FFF7ABFB044600286BD00C
:100C4000FFF736F8002800F0888001222146284668
:100C5000FFF710F983468DF80F0060B105A8FCF787
:100C6000DFFB9DF80F3022460821284606F0BCFD28
:100C700007B0BDE8F08F1099504606F0D3FE90B152
:100C80002046FFF78BFA284606F0ECFE58B12846BE
:100C900006F029FF38B1EB6B23F00203EB635946F2
:100CA000284606F029FF2046FFF75EF868B1002EBF
:100CB00032DC05A8FCF7B4FB082285F834200023B9
:100CC00021462846FFF73AFDD2E71099504606F034
:100CD000BEFE30B1284606F0C9FE41B22046FEF7FE
:100CE000CDFF06AA4FF0000322F8063D21460DF184
:100CF0000F032846FFF792F9BDF81230009A93428D
:100D000028BF1346002E8346ADF812300BDBB342EA
:100D100002D1731CBB420ADB731C24D105A8FCF76B
:100D20007FFB0A2371E7BE1E9E42A8BF1E46230A10
:100D3000022204A905988DF811308DF81040FCF7B7
:100D4000DAFC324659460598FCF7D5FC023F4FF6CF
:100D5000FF73BF1B9C42BFB2DED0601C80B28145D6
:100D6000BFF467AFD8E705998B790B4402365E7301
:100D7000284606F001FD7BE72DE9F04F89B00646D5
:100D80000192884609B1914208D9012342460421C3
:100D9000304606F029FD09B0BDE8F08F022105209C
:100DA00006F0ADFCB4880290023C4FF6FF77A4B287
:100DB0004546BA4629463046FFF724FC5045814651
:100DC00008D14FF6FF739F421CD102A8FCF728FB05
:100DD0000A23DBE74FF4006229463046FFF74AF862
:100DE000A8BB19F4004F14BF4FF0100B4FF0020BCB
:100DF000574515D089EA0702130403D40BF1010209
:100E0000A2420EDB02998B790C33194417F4004F80
:100E100014BF022301234B70304606F0BFFCBAE733
:100E20004F462A0A0DF10E0148468DF80D208DF827
:100E30000C50023C05F0B4FB0BF1020203A902982E
:100E4000FCF759FCA4EB0B045545A4B2DAD00135EC
:100E5000019BADB2AB42ADD2B3E72DE9F04F89B003
:100E60000024064691469A46BDF84CB003940F46BE
:100E700000294CD091424AD80121072006F04BFCB2
:100E8000054600284BD0A0463B460A244B4501931B
:100E900006D22946304606F015FC0328019B09D8E6
:100EA000B8F1000F1ED02946304606F077FC09B095
:100EB000BDE8F08FADF81030129B069302AA0DF139
:100EC0000A0304A93046ADF81290ADF814A0ADF8AD
:100ED0001CB0FFF79DFA0A280446E1D0BDF808309F
:100EE00020B11F46284606F03BFC11E0ADF80C305F
:100EF000BDF80A30ADF80E3003AA04232946304667
:100F000006F0EBFB4FF00108BDF80A30BEE7012404
:100F100023463A460621304606F066FCC7E7112410
:100F2000F6E70A2380F834300022FFF782BC0C2356
:100F300080F83430FFF77DBC2DE9F04F87B0B0F872
:100F400004A000AF0AF1FF33FB600AF10603EB4691
:100F5000DB08ABEBC3039D468046C7F808D012B14F
:100F600012F0010509D004237B7500247B7D224605
:100F70000E21404606F038FC50E08E1CB3187D75FB
:100F8000E9467B6016F8013C16F8024C44EA03245B
:100F9000012221464046FEF76DFF78750028E5D115
:100FA000204606F035FD10B12046FFF7F7F8204641
:100FB000FEF7DAFE10B180237B75D7E7204606F0F6
:100FC0003CFD30B1404606F051FD41B22046FEF7EF
:100FD00055FE07F11503214607F116024046FFF7BB
:100FE0001DF87B7D0146002BC0D1FB68FA8A5B1B94
:100FF0009A42C2BF0AF1FF335B1BFB82FC8A484660
:10100000224613F070FC7B680236B342A1442544AB
:10101000B8D1AAB2B968404606F03FFC1C37DD469D
:10102000BD46BDE8F08FF0B585B01227039280F879
:101030003470022205460E46FEF71CFF044670B1CE
:1010400003A8FCF7EDF9002385F83430002C38D0E4
:10105000234632461221284606F0C6FB0FE0039ACB
:101060009379033393713046FEF77EFE48B1039BBC
:1010700000933A46234631462846FFF739FB05B030
:10108000F0BD42F62930FFF7D7FAB04211D10398EC
:1010900008B90D24D4E7FCF7A2FA80B20128F8D1F0
:1010A000039B9A7913442846197B06F0E3FC044617
:1010B000C6E72246039B31462846FFF79DF80446C3
:1010C000C1E7284606F0FEFBD9E72DE9FF41039270
:1010D000042204460D46FEF7CDFE804628B103A843
:1010E000FCF79EF904B0BDE8F081039B9A79522782
:1010F00003329A71284684F83470FEF735FE0646AE
:1011000040B1039B00933A46434629462046FFF7E9
:10111000EFFAE7E742F62930FFF78EFAA8420FD13F
:1011200004AD204655F8043D9A791344197B06F026
:10113000A1FC2846FCF774F9002384F83430D1E789
:10114000039B324629462046FFF756F8F4E7F7B5E9
:101150008B7901910C3319440546B1F80160B1F85F
:1011600003703046FEF7A4FD002840D0022231462D
:101170002846FEF77FFE044658B90120FCF734F8F4
:10118000019A1346611CCBB9E4B20634A04218DCC4
:10119000092401A8FCF744F905F15000FCF740F9D7
:1011A000234632461621284606F01EFB092C1CD188
:1011B00040F209412846FFF7DBFA16E01B680C46AF
:1011C000E0E701211046FCF735F901460028DFD0A1
:1011D00005F15000FCF785FA019B9A7905329A7166
:1011E00031463A46284606F07BFB03B0F0BD0124A9
:1011F000CFE710B5044639B95030FCF711F9204655
:10120000BDE8104006F098BB182380F83430002267
:101210001146BDE81040FFF75EBB38B5C58E0446E9
:10122000F5B142F60520FFF707FAA84207D10021E1
:10123000204606F061FCE36B23F00203E36340F217
:101240000A412046FEF731FC29462046FEF7C0FD44
:101250000222034629462046FFF704FC0023E386CA
:1012600038BD2DE9F041044608460E46174698461B
:10127000FEF758FD10F0300F24D054B1237D012B20
:1012800023D043463A4631462046BDE8F041FFF7B9
:1012900076BB2046FEF77EFC0546C8B140F28114BD
:1012A00043463A4631462846FFF769FB0028284660
:1012B00008BF0024FEF76EFC05460028F0D120464A
:1012C000BDE8F0814FF4C074F9E740F20314F6E78B
:1012D0000446F4E72DE9F34105469846C06B2B7DA3
:1012E000099C40F00800012B0E461746E8631FD00A
:1012F0000846FEF739FDF0B195F834100C291DD8D9
:101300000120884010F4A85F18D09DF82030009389
:101310003A46434631462846FFF740FA8CB12080D2
:101320000020EB6B23F00803EB6302B0BDE8F08113
:1013300040F20310F5E74FF4C070F2E740F281107D
:10134000EFE72046EDE7F8B5C36B43F00803C3634E
:10135000037D012B05460E46144629D00846FEF7AC
:1013600003FD40B395F8341018291BD0522915D02D
:10137000122923D1002785F8347054B1284623461A
:10138000324606F031FA3846EB6B23F00803EB6384
:10139000F8BD284606F096FA2046F5E7002085F8C5
:1013A0003400F1E7224631462846FFF794FAEBE78E
:1013B00040F20310E8E74FF4C070E5E740F2811017
:1013C000E2E700002DE9F34102AF144B47F8043D7A
:1013D000064688460446002518B92046FEF7DAFB83
:1013E0000446BCB1204606F075FB88B92046FFF7DD
:1013F00037F941462046FEF7EBFC022808D10423CA
:101400003A4641462046FFF7BAFA08B90135EDB22F
:10141000002EE2D0284602B0BDE8F0810100FFFFB7
:101420002DE9F341064642F60520FFF705F9254B65
:1014300007461B88ADF8043001A9022005F07EF8AC
:10144000012480462046FEF727FC10B902B0BDE813
:10145000F0812046FEF72CFC88B3204642464FF62A
:10146000FF71FEF795FF04460028EFD00DF103034E
:1014700001460DF106023046FEF7D0FD9DF803301F
:10148000012B1CD0BDF80630022B18D98378457883
:1014900055EA032513D0AF420BD029463046FEF75C
:1014A00097FC034658B1012229463046FFF7DAFA85
:1014B00005E039463046FFF785FF0028EDD00134BE
:1014C000A4B2BFE7E24C02002DE9F74307460E46FF
:1014D000FCF756FB002480464FF00109D6B109FA0B
:1014E00004F313EA080F15D065B22846FCF72FFD68
:1014F00080B104230DEB03020C212846FCF78CFB82
:101500000023ADF8063004230DEB03020C2128461E
:10151000FCF73CFB0134202CE0D10020FEF73AFB25
:10152000044628B93946FFF74DFF03B0BDE8F08304
:101530001EB10121204606F0DFFA2046EEE72DE934
:10154000F0438B7985B00C3306460846CC5C03919A
:10155000CD18FCF744F80E2C804607D036D8062C60
:1015600004D02DD8022C01D0042C5BD1DDF80C90D6
:1015700099F8067048460C37FCF731F819F807302F
:1015800001380E2B80B262D03AD8062B58D02CD816
:10159000022B58D0042B58D014F001020AD104F0C9
:1015A0007F03522B06D01E2C04D004232146304644
:1015B00006F01AF903A8FBF733FF4FF4C0703CE0C4
:1015C0000A2CD3D00C2CD1D0082CCEE7182CCDD09F
:1015D00005D8122CCAD0162CC8D0102CC5E7522C16
:1015E000C4D0D22CC2D01E2CBFE70A2B2BD00C2B80
:1015F0002BD0082BD0D106282DD014282BD0CBE708
:10160000182B52D005D8122B49D0162B4BD0102BAB
:10161000F0E7522B43D0D22B43D01E2BBCD1002855
:10162000BAD118E0062300222146304606F0DCF845
:1016300003A8FBF7F5FE40F2064005B0BDE8F083D5
:10164000052808D8A8E70228D8E70428D6E7032801
:10165000A2D9C307A0D41E2C76D0022C78D0304655
:101660001FFA88F706F036FA60B9304606F0FAF944
:1016700040B104F07F03522B19D1304606F02AFA0C
:1016800000286AD0102C6CD04CD8082C26D03DD81D
:10169000042C75D0062C7BD00623002231E00128D3
:1016A000CFE70D28CDE70328CBE70128A6E7082CD4
:1016B0000BD0F36B13F002021FD023F00203F3638D
:1016C0000021304606F018FADCE7152F0CBF102079
:1016D0000220691D06F0A6F90028EAD0B5F801102D
:1016E000B5F80320152F05F1050500950CBF102353
:1016F00002233046FFF77EFA2FE043F00203F36344
:1017000012232146304606F06FF826E00C2C4ED00E
:101710000E2C54D00A2CBFD1B5F801103046FFF77B
:1017200000FC1AE0182C61D008D8122C4FD0162CCF
:10173000B2D103993046FFF70AFD4EE0522C4ED04D
:10174000D22C0AD01E2CA7D13046FFF766FD04E04C
:10175000B5F801103046FFF79FF903A8FBF760FECC
:101760003BE0B5F80110B5F80320152F05F105058C
:1017700000950CBF102302233046FFF7ABF9ECE7CE
:10178000B5F80320B5F801103046FFF7F5FAE4E7A5
:10179000073FB5F80530B5F80320B5F80110BFB222
:1017A0000735019700953046FFF757FBD5E7B5F8A9
:1017B0000320B5F801103046FFF7B9FBCDE71FFA5B
:1017C00088F2013A691C3046FFF7B6FBC5E7039A79
:1017D000B5F801103046FFF726FC00202DE7039AEC
:1017E000B5F801103046FFF770FCF6E7697830462F
:1017F000FFF7FFFCB1E710B5044688B0FEF736FAF4
:101800002046FEF70FFA00216846FEF759FC04AAAD
:1018100010213D20F3F742FB30B9102269460DEB51
:10182000020013F051F860B16A4610213D20F3F731
:1018300027FB42F60520FEF7FFFE10B10121FFF75E
:1018400043FE08B010BD70B500200D46FEF7F4F958
:1018500035EA000417D10120FEF7EEF9A84201D1C4
:10186000002070BD42F60520FEF7E6FE0646FEF7B4
:10187000FDF92846FEF7ECF9002EF1D0214630465E
:10188000FFF722FEECE74FF4C070EAE77FB50E46A3
:1018900015461C46ADF80000FEF722FF4FF420531A
:1018A000ADF80200ADF804302246089B0296694666
:1018B0000020ADF80C50FEF7ABFD10B100F58060D4
:1018C00080B204B070BDC36B43F00803C3637047BC
:1018D000C36B23F00803C3637047C06BC0F3C00041
:1018E0007047000038B5044604200D46FBF7E9FFB9
:1018F000024658B10CB144F400741480558040F293
:1019000002310348BDE83840FBF767BB38BD00BF74
:10191000B81F0020038801339BB2002B08BF0123AE
:101920000380184670470000054B00221A70C3E977
:101930000322C3E90522DA614FF6FF721A85704768
:101940005C4B002013B50D4BC2785A60828842F27E
:10195000130194B28C420FD181788DF8021003F1FB
:101960002800ADF80420FFF7D5FF02AA052122F8D0
:10197000080D0348FBF780FB02B010BD5C4B002054
:10198000B81F002037B5314AB0F803108378536090
:1019900004468BB240F603408342104605D006D879
:1019A000102B02D0B3F5816F35D103B030BD41F2B9
:1019B0000545AB421BD042F20E05AB42F5D041F2D9
:1019C0000905AB4227D154F8060F1062A38893840F
:1019D0000620FBF776FF02460028E6D02368036066
:1019E000A388838006211A48FBF7F7FADDE76379BD
:1019F000E0888DF80130FCF72FF808B190F84E0020
:101A0000237A8DF800008DF802306A4607211048CD
:101A1000FBF732FBC9E762798DF8022042F205023A
:101A20009342ADF8041005D00CD3A3F50153013B4C
:101A3000012B07D80748FFF76DFFADF800006A4695
:101A40000521E4E7038DADF80030F8E75C4B00209A
:101A5000B81F0020844B002030B58BB001460190A8
:101A600002231A2203A83B4CFBF7ABFC1C2101A864
:101A7000FBF788FEE569BDB16A7A9DF810309342A4
:101A80000DD1FF2B06D006220DF11101E81C12F03A
:101A90001BFF20B96A7B9DF819309A4204D0284672
:101AA000FDF7C2FD0023E361E369A3B91820FBF74A
:101AB00008FFE06120B901A8FBF7B2FC0BB030BD14
:101AC0009DF8103043720AAB53F8172DC0F803206D
:101AD0009B88A0F80730E069BDF80E3083709DF850
:101AE0001B3003709DF80D3043709DF81730C372A2
:101AF0009DF8183003739DF8193043739DF81A3020
:101B00008373BDF81C30038201991430FBF7E9FDA3
:101B1000E3695869FBF763FDF42810DDE56955F8C2
:101B2000140FFBF75CFDA0F1F4012846FBF740FE23
:101B3000E269937823F0600343F040039370E06917
:101B4000837803F06003202BB8D0FDF76DFD0023F0
:101B5000E361B3E75C4B002001460148FBF7C1BDE0
:101B6000684B0020044BDA6822B95869003018BF6E
:101B700001207047012070475C4B0020034BD86860
:101B800018B103F10C00FBF78EBC70475C4B0020D2
:101B900008B528B100F0D2FDBDE80840F5F7E4BE75
:101BA00008BD08B5002141F2090000F0C9FD18B1D7
:101BB000FFF7EEFF002008BD4FF4C170FBE7000007
:101BC000A0F11B03E02B10B515D80E4B1A888242EA
:101BD0000FD004461880042142F2240000F0B0FD2A
:101BE00060B14FF0FF32A0F8034042718271FFF7FD
:101BF000CFFF002001E04FF4C07010BD4FF4C17062
:101C0000FBE700BFA0100020024B1A78024B53F8EC
